{
  "_format": "hh-sol-artifact-1",
  "contractName": "Presale",
  "sourceName": "contracts/Presale.sol",
  "abi": [
    {
      "inputs": [],
      "name": "get_queue",
      "outputs": [
        {
          "internalType": "address[]",
          "name": "",
          "type": "address[]"
        },
        {
          "internalType": "uint256[]",
          "name": "",
          "type": "uint256[]"
        }
      ],
      "stateMutability": "view",
      "type": "function"
    },
    {
      "inputs": [],
      "name": "get_winners",
      "outputs": [],
      "stateMutability": "nonpayable",
      "type": "function"
    },
    {
      "inputs": [
        {
          "internalType": "address",
          "name": "c",
          "type": "address"
        },
        {
          "internalType": "address",
          "name": "a",
          "type": "address"
        }
      ],
      "name": "in_queue",
      "outputs": [
        {
          "internalType": "bool",
          "name": "",
          "type": "bool"
        }
      ],
      "stateMutability": "view",
      "type": "function"
    },
    {
      "inputs": [
        {
          "internalType": "address",
          "name": "",
          "type": "address"
        }
      ],
      "name": "presales",
      "outputs": [
        {
          "internalType": "uint256",
          "name": "max_queue",
          "type": "uint256"
        },
        {
          "internalType": "bool",
          "name": "presale",
          "type": "bool"
        },
        {
          "internalType": "uint256",
          "name": "max_supply",
          "type": "uint256"
        }
      ],
      "stateMutability": "view",
      "type": "function"
    },
    {
      "inputs": [
        {
          "internalType": "address",
          "name": "addr",
          "type": "address"
        },
        {
          "internalType": "uint256",
          "name": "tokenId",
          "type": "uint256"
        }
      ],
      "name": "register",
      "outputs": [],
      "stateMutability": "nonpayable",
      "type": "function"
    },
    {
      "inputs": [
        {
          "internalType": "uint256",
          "name": "max_supply",
          "type": "uint256"
        }
      ],
      "name": "set_presale",
      "outputs": [],
      "stateMutability": "nonpayable",
      "type": "function"
    }
  ],
  "bytecode": "0x608060405234801561001057600080fd5b506108e7806100206000396000f3fe608060405234801561001057600080fd5b50600436106100725760003560e01c80636d705ebb116100505780636d705ebb146100bf578063705fdf3d146100d2578063efcd708f1461010b57600080fd5b80631dc740c91461007757806325b6fe0c1461009f57806332c816c0146100a9575b600080fd5b61008a6100853660046106f2565b61015b565b60405190151581526020015b60405180910390f35b6100a76101d8565b005b6100b161056a565b604051610096929190610725565b6100a76100cd3660046107a9565b610641565b6100a76100e03660046107d3565b336000908152602081905260408120600381019290925560028201805460ff19169055600190910155565b6101406101193660046107ec565b600060208190529081526040902060018101546002820154600390920154909160ff169083565b60408051938452911515602084015290820152606001610096565b6000805b6001600160a01b0384166000908152602081905260409020600101548110156101cc576001600160a01b03848116600090815260208181526040808320858452909152902054811690841614156101ba5760019150506101d2565b806101c481610824565b91505061015f565b50600090505b92915050565b3360008181526020819052604090206002015460ff1615610259576040517f08c379a000000000000000000000000000000000000000000000000000000000815260206004820152601460248201527f616c726561647920686176652077696e6e657273000000000000000000000000604482015260640160405180910390fd5b6001600160a01b03811660009081526020818152604080832060028101805460ff19166001908117909155015490513360601b6bffffffffffffffffffffffff19169281019290925242603483015260548201839052906074016040516020818303038152906040528051906020012060001c6102d6919061083f565b90508160005b6001600160a01b038416600090815260208190526040902060010154811015610564576001600160a01b0384166000908152602081905260408120600181015482906103288588610861565b610332919061083f565b8152602080820192909252604090810160009081206001908101546001600160a01b038a16835293829052918120918201549293509182906103748689610861565b61037e919061083f565b8152602081019190915260409081016000205490517f4f558e79000000000000000000000000000000000000000000000000000000008152600481018490526001600160a01b03918216925090851690634f558e799060240160206040518083038186803b1580156103ef57600080fd5b505afa158015610403573d6000803e3d6000fd5b505050506040513d601f19601f820116820180604052508101906104279190610879565b15801561044e57506001600160a01b03861660009081526020819052604090206003015483105b156104d3576040517f40c10f190000000000000000000000000000000000000000000000000000000081526001600160a01b038281166004830152602482018490528516906340c10f1990604401600060405180830381600087803b1580156104b657600080fd5b505af11580156104ca573d6000803e3d6000fd5b5050505061054f565b6040517f410085df0000000000000000000000000000000000000000000000000000000081526001600160a01b0382811660048301526024820184905285169063410085df90604401600060405180830381600087803b15801561053657600080fd5b505af115801561054a573d6000803e3d6000fd5b505050505b5050808061055c90610824565b9150506102dc565b50505050565b60608033818060005b6001600160a01b038416600090815260208190526040902060010154811015610636576001600160a01b0380851660009081526020818152604080832085845290915290205484519116908490839081106105d0576105d061089b565b6001600160a01b0392831660209182029290920181019190915290851660009081528082526040808220848352909252206001015482518390839081106106195761061961089b565b60209081029190910101528061062e81610824565b915050610573565b509094909350915050565b6040805180820182526001600160a01b0384168152602080820184905233600081815291829052928120600181018054919291908261067f83610824565b909155508152602080820192909252604001600020825181547fffffffffffffffffffffffff0000000000000000000000000000000000000000166001600160a01b03909116178155910151600190910155505050565b80356001600160a01b03811681146106ed57600080fd5b919050565b6000806040838503121561070557600080fd5b61070e836106d6565b915061071c602084016106d6565b90509250929050565b604080825283519082018190526000906020906060840190828701845b828110156107675781516001600160a01b031684529284019290840190600101610742565b5050508381038285015284518082528583019183019060005b8181101561079c57835183529284019291840191600101610780565b5090979650505050505050565b600080604083850312156107bc57600080fd5b6107c5836106d6565b946020939093013593505050565b6000602082840312156107e557600080fd5b5035919050565b6000602082840312156107fe57600080fd5b610807826106d6565b9392505050565b634e487b7160e01b600052601160045260246000fd5b60006000198214156108385761083861080e565b5060010190565b60008261085c57634e487b7160e01b600052601260045260246000fd5b500690565b600082198211156108745761087461080e565b500190565b60006020828403121561088b57600080fd5b8151801515811461080757600080fd5b634e487b7160e01b600052603260045260246000fdfea2646970667358221220b222b25d43781d43dba5ecf47bd59b4d89cbf9a8c0dab57906d22822396b1c5764736f6c63430008090033",
  "linkReferences": {},
  "deployedLinkReferences": {}
}