{
  "_format": "hh-sol-artifact-1",
  "contractName": "EventFactory",
  "sourceName": "contracts/Event.sol",
  "abi": [
    {
      "inputs": [
        {
          "internalType": "address",
          "name": "presale_addr_",
          "type": "address"
        },
        {
          "internalType": "address",
          "name": "market_addr_",
          "type": "address"
        }
      ],
      "stateMutability": "nonpayable",
      "type": "constructor"
    },
    {
      "anonymous": false,
      "inputs": [
        {
          "indexed": false,
          "internalType": "address",
          "name": "",
          "type": "address"
        }
      ],
      "name": "EventCreated",
      "type": "event"
    },
    {
      "inputs": [
        {
          "internalType": "string",
          "name": "name",
          "type": "string"
        },
        {
          "internalType": "string",
          "name": "symbol",
          "type": "string"
        },
        {
          "internalType": "uint256",
          "name": "max_tickets",
          "type": "uint256"
        },
        {
          "internalType": "uint256",
          "name": "max_presale",
          "type": "uint256"
        },
        {
          "internalType": "uint256",
          "name": "max_price_factor",
          "type": "uint256"
        }
      ],
      "name": "createEvent",
      "outputs": [],
      "stateMutability": "nonpayable",
      "type": "function"
    },
    {
      "inputs": [
        {
          "internalType": "uint256",
          "name": "",
          "type": "uint256"
        }
      ],
      "name": "events",
      "outputs": [
        {
          "internalType": "address",
          "name": "",
          "type": "address"
        }
      ],
      "stateMutability": "view",
      "type": "function"
    },
    {
      "inputs": [],
      "name": "getDeployEvents",
      "outputs": [
        {
          "internalType": "address[]",
          "name": "",
          "type": "address[]"
        }
      ],
      "stateMutability": "view",
      "type": "function"
    },
    {
      "inputs": [],
      "name": "market_addr",
      "outputs": [
        {
          "internalType": "address",
          "name": "",
          "type": "address"
        }
      ],
      "stateMutability": "view",
      "type": "function"
    },
    {
      "inputs": [],
      "name": "presale_addr",
      "outputs": [
        {
          "internalType": "address",
          "name": "",
          "type": "address"
        }
      ],
      "stateMutability": "view",
      "type": "function"
    }
  ],
  "bytecode": "0x6080604052600180546001600160a01b031990811690915560028054909116905534801561002c57600080fd5b50604051613d9f380380613d9f83398101604081905261004b91610098565b600180546001600160a01b039384166001600160a01b031991821617909155600280549290931691161790556100cb565b80516001600160a01b038116811461009357600080fd5b919050565b600080604083850312156100ab57600080fd5b6100b48361007c565b91506100c26020840161007c565b90509250929050565b613cc5806100da6000396000f3fe608060405234801561001057600080fd5b50600436106100675760003560e01c806368024d3f1161005057806368024d3f146100b1578063d4646e17146100c4578063e1352d70146100d957600080fd5b80630b7914301461006c5780633c2fc56c1461009c575b600080fd5b61007f61007a366004610284565b6100ec565b6040516001600160a01b0390911681526020015b60405180910390f35b6100af6100aa366004610359565b610116565b005b60015461007f906001600160a01b031681565b6100cc610214565b60405161009391906103d8565b60025461007f906001600160a01b031681565b600081815481106100fc57600080fd5b6000918252602090912001546001600160a01b0316905081565b6001546002546040516000926001600160a01b0390811692169088908890339089908990899061014590610276565b610156989796959493929190610472565b604051809103906000f080158015610172573d6000803e3d6000fd5b50600080546001810182559080527f290decd9548b62a8d60345a988386fc84ba6bc95484008f6362f93160ef3e5630180547fffffffffffffffffffffffff0000000000000000000000000000000000000000166001600160a01b0383169081179091556040519081529091507ffc8a4c0621b9788c4dbe57053a51ce2d22625a067d039f38004df2a07ca755a49060200160405180910390a1505050505050565b6060600080548060200260200160405190810160405280929190818152602001828054801561026c57602002820191906000526020600020905b81546001600160a01b0316815260019091019060200180831161024e575b5050505050905090565b6137b680620004da83390190565b60006020828403121561029657600080fd5b5035919050565b7f4e487b7100000000000000000000000000000000000000000000000000000000600052604160045260246000fd5b600082601f8301126102dd57600080fd5b813567ffffffffffffffff808211156102f8576102f861029d565b604051601f8301601f19908116603f011681019082821181831017156103205761032061029d565b8160405283815286602085880101111561033957600080fd5b836020870160208301376000602085830101528094505050505092915050565b600080600080600060a0868803121561037157600080fd5b853567ffffffffffffffff8082111561038957600080fd5b61039589838a016102cc565b965060208801359150808211156103ab57600080fd5b506103b8888289016102cc565b959895975050505060408401359360608101359360809091013592509050565b6020808252825182820181905260009190848201906040850190845b818110156104195783516001600160a01b0316835292840192918401916001016103f4565b50909695505050505050565b6000815180845260005b8181101561044b5760208185018101518683018201520161042f565b8181111561045d576000602083870101525b50601f01601f19169290920160200192915050565b60006101006001600160a01b03808c168452808b16602085015281604085015261049e8285018b610425565b915083820360608501526104b2828a610425565b97166080840152505060a081019390935260c083019190915260e09091015294935050505056fe6080604052600019600b5560006013553480156200001c57600080fd5b50604051620037b6380380620037b68339810160408190526200003f91620002ee565b855186908690620000589060009060208501906200015e565b5080516200006e9060019060208401906200015e565b50506006805460ff1916905550600d80546001600160a01b03808b166001600160a01b03199283168117909355600e8054918b1691831682179055600780548316841790556012805490921617905560405163705fdf3d60e01b815263705fdf3d90620000e390859060040190815260200190565b600060405180830381600087803b158015620000fe57600080fd5b505af115801562000113573d6000803e3d6000fd5b5050506010939093556000600955600b54601155600680546001600160a01b0390951661010002610100600160a81b0319909516949094179093555050600c5550620003eb92505050565b8280546200016c90620003ae565b90600052602060002090601f016020900481019282620001905760008555620001db565b82601f10620001ab57805160ff1916838001178555620001db565b82800160010185558215620001db579182015b82811115620001db578251825591602001919060010190620001be565b50620001e9929150620001ed565b5090565b5b80821115620001e95760008155600101620001ee565b80516001600160a01b03811681146200021c57600080fd5b919050565b634e487b7160e01b600052604160045260246000fd5b600082601f8301126200024957600080fd5b81516001600160401b038082111562000266576200026662000221565b604051601f8301601f19908116603f0116810190828211818310171562000291576200029162000221565b81604052838152602092508683858801011115620002ae57600080fd5b600091505b83821015620002d25785820183015181830184015290820190620002b3565b83821115620002e45760008385830101525b9695505050505050565b600080600080600080600080610100898b0312156200030c57600080fd5b620003178962000204565b97506200032760208a0162000204565b60408a01519097506001600160401b03808211156200034557600080fd5b620003538c838d0162000237565b975060608b01519150808211156200036a57600080fd5b50620003798b828c0162000237565b9550506200038a60808a0162000204565b935060a0890151925060c0890151915060e089015190509295985092959890939650565b600181811c90821680620003c357607f821691505b60208210811415620003e557634e487b7160e01b600052602260045260246000fd5b50919050565b6133bb80620003fb6000396000f3fe6080604052600436106102a05760003560e01c80636352211e1161016e578063af1c5211116100cb578063d93580ff1161007f578063e985e9c511610064578063e985e9c514610709578063ea8a1af014610752578063f207564e1461076757600080fd5b8063d93580ff146106c9578063d96a094a146106f657600080fd5b8063c0fd2c8b116100b0578063c0fd2c8b14610673578063c87b56dd14610693578063d5c95694146106b357600080fd5b8063af1c521114610633578063b88d4fde1461065357600080fd5b806395d89b4111610122578063a22cb46511610107578063a22cb465146105e0578063a2b1b71e14610600578063a9059cbb1461061357600080fd5b806395d89b41146105b55780639f1b51ef146105ca57600080fd5b8063786f291011610153578063786f2910146105685780638456cb591461057d5780638da5cb5b1461059257600080fd5b80636352211e1461052857806370a082311461054857600080fd5b80633ccfd60b1161021c57806342966c68116101d057806350b44712116101b557806350b44712146104b55780635ad95a69146104f05780635c975abb1461051057600080fd5b806342966c68146104755780634f558e791461049557600080fd5b806340c10f191161020157806340c10f1914610415578063410085df1461043557806342842e0e1461045557600080fd5b80633ccfd60b146103eb5780633f4ba83a1461040057600080fd5b80631aef4b051161027357806321f2fc3d1161025857806321f2fc3d1461039657806323b872dd146103b657806325b6fe0c146103d657600080fd5b80631aef4b051461035657806321eaaeb51461037657600080fd5b806301ffc9a7146102a557806306fdde03146102da578063081812fc146102fc578063095ea7b314610334575b600080fd5b3480156102b157600080fd5b506102c56102c0366004612ccf565b61077a565b60405190151581526020015b60405180910390f35b3480156102e657600080fd5b506102ef610817565b6040516102d19190612d44565b34801561030857600080fd5b5061031c610317366004612d57565b6108a9565b6040516001600160a01b0390911681526020016102d1565b34801561034057600080fd5b5061035461034f366004612d85565b6108d0565b005b34801561036257600080fd5b50610354610371366004612db1565b610a07565b34801561038257600080fd5b50610354610391366004612de9565b610acf565b3480156103a257600080fd5b506103546103b1366004612d57565b610b2f565b3480156103c257600080fd5b506103546103d1366004612e0b565b610bb1565b3480156103e257600080fd5b50610354610c29565b3480156103f757600080fd5b50610354610ce1565b34801561040c57600080fd5b50610354610d67565b34801561042157600080fd5b50610354610430366004612d85565b610dbf565b34801561044157600080fd5b50610354610450366004612d85565b610e19565b34801561046157600080fd5b50610354610470366004612e0b565b610f59565b34801561048157600080fd5b50610354610490366004612d57565b610f74565b3480156104a157600080fd5b506102c56104b0366004612d57565b610feb565b3480156104c157600080fd5b506104e26104d0366004612d57565b600f6020526000908152604090205481565b6040519081526020016102d1565b3480156104fc57600080fd5b5061035461050b366004612d57565b61100a565b34801561051c57600080fd5b5060065460ff166102c5565b34801561053457600080fd5b5061031c610543366004612d57565b6110ba565b34801561055457600080fd5b506104e2610563366004612e3b565b61111f565b34801561057457600080fd5b506102ef6111b9565b34801561058957600080fd5b50610354611247565b34801561059e57600080fd5b5060065461010090046001600160a01b031661031c565b3480156105c157600080fd5b506102ef61129d565b3480156105d657600080fd5b506104e2600c5481565b3480156105ec57600080fd5b506103546105fb366004612e66565b6112ac565b61035461060e366004612d57565b6112b7565b34801561061f57600080fd5b5061035461062e366004612d85565b611779565b34801561063f57600080fd5b5061035461064e366004612f3e565b6117f5565b34801561065f57600080fd5b5061035461066e366004612f87565b611856565b34801561067f57600080fd5b5061035461068e366004613007565b6118ce565b34801561069f57600080fd5b506102ef6106ae366004612d57565b611b98565b3480156106bf57600080fd5b506104e260105481565b3480156106d557600080fd5b506104e26106e4366004612d57565b6000908152600f602052604090205490565b610354610704366004612d57565b611bff565b34801561071557600080fd5b506102c5610724366004613033565b6001600160a01b03918216600090815260056020908152604080832093909416825291909152205460ff1690565b34801561075e57600080fd5b50610354611d87565b610354610775366004612d57565b611edf565b60006001600160e01b031982167f80ac58cd0000000000000000000000000000000000000000000000000000000014806107dd57506001600160e01b031982167f5b5e139f00000000000000000000000000000000000000000000000000000000145b8061081157507f01ffc9a7000000000000000000000000000000000000000000000000000000006001600160e01b03198316145b92915050565b60606000805461082690613061565b80601f016020809104026020016040519081016040528092919081815260200182805461085290613061565b801561089f5780601f106108745761010080835404028352916020019161089f565b820191906000526020600020905b81548152906001019060200180831161088257829003601f168201915b5050505050905090565b60006108b482612074565b506000908152600460205260409020546001600160a01b031690565b60006108db826110ba565b9050806001600160a01b0316836001600160a01b0316141561096a5760405162461bcd60e51b815260206004820152602160248201527f4552433732313a20617070726f76616c20746f2063757272656e74206f776e6560448201527f720000000000000000000000000000000000000000000000000000000000000060648201526084015b60405180910390fd5b336001600160a01b038216148061098657506109868133610724565b6109f85760405162461bcd60e51b815260206004820152603d60248201527f4552433732313a20617070726f76652063616c6c6572206973206e6f7420746f60448201527f6b656e206f776e6572206f7220617070726f76656420666f7220616c6c0000006064820152608401610961565b610a0283836120d8565b505050565b6006546001600160a01b03610100909104163314610a555760405162461bcd60e51b815260206004820152600b60248201526a3737ba1036b0b730b3b2b960a91b6044820152606401610961565b6000838152600860205260409020546001600160a01b0316610a875760098054906000610a81836130b2565b91905055505b6040805180820182526001600160a01b03938416815260208082019384526000958652600890529320925183546001600160a01b031916921691909117825551600190910155565b6006546001600160a01b03610100909104163314610b1d5760405162461bcd60e51b815260206004820152600b60248201526a3737ba1036b0b730b3b2b960a91b6044820152606401610961565b6000918252600f602052604090912055565b6006546001600160a01b03610100909104163314610b7d5760405162461bcd60e51b815260206004820152600b60248201526a3737ba1036b0b730b3b2b960a91b6044820152606401610961565b60005b601054811015610bad576000818152600f6020526040902082905580610ba5816130b2565b915050610b80565b5050565b610bbc335b82612146565b610c1e5760405162461bcd60e51b815260206004820152602d60248201527f4552433732313a2063616c6c6572206973206e6f7420746f6b656e206f776e6560448201526c1c881bdc88185c1c1c9bdd9959609a1b6064820152608401610961565b610a028383836121c5565b6006546001600160a01b03610100909104163314610c775760405162461bcd60e51b815260206004820152600b60248201526a3737ba1036b0b730b3b2b960a91b6044820152606401610961565b600760009054906101000a90046001600160a01b03166001600160a01b03166325b6fe0c6040518163ffffffff1660e01b8152600401600060405180830381600087803b158015610cc757600080fd5b505af1158015610cdb573d6000803e3d6000fd5b50505050565b4760005b600954811015610bad57600081815260086020526040902080546001909101546001600160a01b03909116906108fc90606490610d2290866130cd565b610d2c91906130ec565b6040518115909202916000818181858888f19350505050158015610d54573d6000803e3d6000fd5b5080610d5f816130b2565b915050610ce5565b6006546001600160a01b03610100909104163314610db55760405162461bcd60e51b815260206004820152600b60248201526a3737ba1036b0b730b3b2b960a91b6044820152606401610961565b610dbd6123cb565b565b600d546001600160a01b0316331480610dd757503330145b610e0f5760405162461bcd60e51b81526020600482015260096024820152686e6f7420616c6c6f7760b81b6044820152606401610961565b610bad828261241d565b6011544210610e905760405162461bcd60e51b815260206004820152602160248201527f6576656e7420616c72656164792073746172742c2063616e277420726566756e60448201527f64000000000000000000000000000000000000000000000000000000000000006064820152608401610961565b33610e9a826110ba565b6001600160a01b03161480610eb95750600d546001600160a01b031633145b610ef15760405162461bcd60e51b81526020600482015260096024820152683737ba1037bbb732b960b91b6044820152606401610961565b6000818152600260205260409020546001600160a01b0316610f1657610f1681612437565b6000818152600f60205260408082205490516001600160a01b0385169282156108fc02929190818181858888f19350505050158015610a02573d6000803e3d6000fd5b610a0283838360405180602001604052806000815250611856565b610f7d33610bb6565b610fdf5760405162461bcd60e51b815260206004820152602d60248201527f4552433732313a2063616c6c6572206973206e6f7420746f6b656e206f776e6560448201526c1c881bdc88185c1c1c9bdd9959609a1b6064820152608401610961565b610fe881612437565b50565b6000818152600260205260408120546001600160a01b03161515610811565b6006546001600160a01b036101009091041633146110585760405162461bcd60e51b815260206004820152600b60248201526a3737ba1036b0b730b3b2b960a91b6044820152606401610961565b806000108015611069575060198111155b6110b55760405162461bcd60e51b815260206004820152601c60248201527f70657263656e746167652073686f756c64203e30202626203c3d3235000000006044820152606401610961565b601355565b6000818152600260205260408120546001600160a01b0316806108115760405162461bcd60e51b815260206004820152601860248201527f4552433732313a20696e76616c696420746f6b656e20494400000000000000006044820152606401610961565b60006001600160a01b03821661119d5760405162461bcd60e51b815260206004820152602960248201527f4552433732313a2061646472657373207a65726f206973206e6f74206120766160448201527f6c6964206f776e657200000000000000000000000000000000000000000000006064820152608401610961565b506001600160a01b031660009081526003602052604090205490565b600a80546111c690613061565b80601f01602080910402602001604051908101604052809291908181526020018280546111f290613061565b801561123f5780601f106112145761010080835404028352916020019161123f565b820191906000526020600020905b81548152906001019060200180831161122257829003601f168201915b505050505081565b6006546001600160a01b036101009091041633146112955760405162461bcd60e51b815260206004820152600b60248201526a3737ba1036b0b730b3b2b960a91b6044820152606401610961565b610dbd6124da565b60606001805461082690613061565b610bad338383612517565b6012546040517fe133190e000000000000000000000000000000000000000000000000000000008152306004820152602481018390526001600160a01b039091169063e133190e9060440160206040518083038186803b15801561131a57600080fd5b505afa15801561132e573d6000803e3d6000fd5b505050506040513d601f19601f82011682018060405250810190611352919061310e565b61139e5760405162461bcd60e51b815260206004820152600b60248201527f6e6f74206c697374696e670000000000000000000000000000000000000000006044820152606401610961565b6012546040517f03f25a79000000000000000000000000000000000000000000000000000000008152306004820152602481018390526001600160a01b03909116906303f25a799060440160206040518083038186803b15801561140157600080fd5b505afa158015611415573d6000803e3d6000fd5b505050506040513d601f19601f82011682018060405250810190611439919061312b565b3410156114885760405162461bcd60e51b815260206004820152601060248201527f6e6f7420656e6f756768206d6f6e6579000000000000000000000000000000006044820152606401610961565b6012546040517f0f43bc140000000000000000000000000000000000000000000000000000000081523060048201526024810183905260609182916000916001600160a01b031690630f43bc149060440160006040518083038186803b1580156114f157600080fd5b505afa158015611505573d6000803e3d6000fd5b505050506040513d6000823e601f3d908101601f1916820160405261152d91908101906131d3565b9194509250905060005b818110156115d157838181518110611551576115516132a1565b60200260200101516001600160a01b03166108fc6064858481518110611579576115796132a1565b60200260200101513461158c91906130cd565b61159691906130ec565b6040518115909202916000818181858888f193505050501580156115be573d6000803e3d6000fd5b50806115c9816130b2565b915050611537565b506012546040517f536fc65c000000000000000000000000000000000000000000000000000000008152306004820152602481018690526000916001600160a01b03169063536fc65c9060440160206040518083038186803b15801561163657600080fd5b505afa15801561164a573d6000803e3d6000fd5b505050506040513d601f19601f8201168201806040525081019061166e91906132b7565b6012546040517f60a916fb00000000000000000000000000000000000000000000000000000000815230600482015260248101889052600060448201529192506001600160a01b0316906360a916fb90606401600060405180830381600087803b1580156116db57600080fd5b505af11580156116ef573d6000803e3d6000fd5b50506040517f42842e0e0000000000000000000000000000000000000000000000000000000081526001600160a01b0384166004820152336024820152604481018890523092506342842e0e9150606401600060405180830381600087803b15801561175a57600080fd5b505af115801561176e573d6000803e3d6000fd5b505050505050505050565b600d546001600160a01b031633146117bf5760405162461bcd60e51b81526020600482015260096024820152686e6f7420616c6c6f7760b81b6044820152606401610961565b6040516001600160a01b0383169082156108fc029083906000818181858888f19350505050158015610a02573d6000803e3d6000fd5b6006546001600160a01b036101009091041633146118435760405162461bcd60e51b815260206004820152600b60248201526a3737ba1036b0b730b3b2b960a91b6044820152606401610961565b8051610bad90600a906020840190612c20565b6118603383612146565b6118c25760405162461bcd60e51b815260206004820152602d60248201527f4552433732313a2063616c6c6572206973206e6f7420746f6b656e206f776e6560448201526c1c881bdc88185c1c1c9bdd9959609a1b6064820152608401610961565b610cdb848484846125e6565b336118d8846110ba565b6001600160a01b03161461191a5760405162461bcd60e51b81526020600482015260096024820152683737ba1037bbb732b960b91b6044820152606401610961565b80600010801561192b575060198111155b6119775760405162461bcd60e51b815260206004820152601c60248201527f70657263656e746167652073686f756c64203e30202626203c3d3235000000006044820152606401610961565b600c546000848152600f602052604090205461199391906130cd565b821115611a085760405162461bcd60e51b815260206004820152602160248201527f70726963652073686f756c64206c6f776572207468616e206d61785f7072696360448201527f65000000000000000000000000000000000000000000000000000000000000006064820152608401610961565b611a1230846108d0565b60135415611a9157601254601354604051632aa727c960e01b8152306004820181905260248201879052604482015260648101919091526001600160a01b0390911690632aa727c990608401600060405180830381600087803b158015611a7857600080fd5b505af1158015611a8c573d6000803e3d6000fd5b505050505b8015611b0957601254604051632aa727c960e01b815230600482015260248101859052336044820152606481018390526001600160a01b0390911690632aa727c990608401600060405180830381600087803b158015611af057600080fd5b505af1158015611b04573d6000803e3d6000fd5b505050505b6012546040517f42cadb1800000000000000000000000000000000000000000000000000000000815233600482015230602482015260448101859052606481018490526001600160a01b03909116906342cadb1890608401600060405180830381600087803b158015611b7b57600080fd5b505af1158015611b8f573d6000803e3d6000fd5b50505050505050565b6060611ba382612074565b6000611bad612664565b90506000815111611bcd5760405180602001604052806000815250611bf8565b80611bd784612673565b604051602001611be89291906132d4565b6040516020818303038152906040525b9392505050565b6000818152600260205260409020546001600160a01b031615611c645760405162461bcd60e51b815260206004820152600b60248201527f746f6b656e2065786973740000000000000000000000000000000000000000006044820152606401610961565b6000818152600f6020526040902054341015611cc25760405162461bcd60e51b815260206004820152601160248201527f616d6f756e74206e6f7420656e6f7567680000000000000000000000000000006044820152606401610961565b6010548110611d135760405162461bcd60e51b815260206004820152600d60248201527f746f6b656e20696e76616c6964000000000000000000000000000000000000006044820152606401610961565b6040517f40c10f190000000000000000000000000000000000000000000000000000000081523360048201526024810182905230906340c10f19906044015b600060405180830381600087803b158015611d6c57600080fd5b505af1158015611d80573d6000803e3d6000fd5b5050505050565b6006546001600160a01b03610100909104163314611dd55760405162461bcd60e51b815260206004820152600b60248201526a3737ba1036b0b730b3b2b960a91b6044820152606401610961565b6011544210611e4c5760405162461bcd60e51b815260206004820152602160248201527f6576656e7420616c72656164792073746172742c2063616e27742063616e636560448201527f6c000000000000000000000000000000000000000000000000000000000000006064820152608401610961565b60005b601054811015611ed6576000818152600260205260409020546001600160a01b031615611ec457611e7f816110ba565b6000828152600f60205260408082205490516001600160a01b03939093169281156108fc0292818181858888f19350505050158015611ec2573d6000803e3d6000fd5b505b80611ece816130b2565b915050611e4f565b50610dbd611247565b6000818152600f6020526040902054341015611f3d5760405162461bcd60e51b815260206004820152601060248201527f6e6f7420656e6f756768206d6f6e6579000000000000000000000000000000006044820152606401610961565b6007546040517f1dc740c90000000000000000000000000000000000000000000000000000000081523060048201523360248201526001600160a01b0390911690631dc740c99060440160206040518083038186803b158015611f9f57600080fd5b505afa158015611fb3573d6000803e3d6000fd5b505050506040513d601f19601f82011682018060405250810190611fd7919061310e565b156120245760405162461bcd60e51b815260206004820152601e60248201527f757365722073686f756c64207265676973746572206f6e6c79206f6e636500006044820152606401610961565b6007546040517f6d705ebb000000000000000000000000000000000000000000000000000000008152336004820152602481018390526001600160a01b0390911690636d705ebb90604401611d52565b6000818152600260205260409020546001600160a01b0316610fe85760405162461bcd60e51b815260206004820152601860248201527f4552433732313a20696e76616c696420746f6b656e20494400000000000000006044820152606401610961565b600081815260046020526040902080546001600160a01b0319166001600160a01b038416908117909155819061210d826110ba565b6001600160a01b03167f8c5be1e5ebec7d5bd14f71427d1e84f3dd0314c0f7b2291e5b200ac8c7c3b92560405160405180910390a45050565b600080612152836110ba565b9050806001600160a01b0316846001600160a01b0316148061219957506001600160a01b0380821660009081526005602090815260408083209388168352929052205460ff165b806121bd5750836001600160a01b03166121b2846108a9565b6001600160a01b0316145b949350505050565b826001600160a01b03166121d8826110ba565b6001600160a01b03161461223c5760405162461bcd60e51b815260206004820152602560248201527f4552433732313a207472616e736665722066726f6d20696e636f72726563742060448201526437bbb732b960d91b6064820152608401610961565b6001600160a01b0382166122b75760405162461bcd60e51b8152602060048201526024808201527f4552433732313a207472616e7366657220746f20746865207a65726f2061646460448201527f72657373000000000000000000000000000000000000000000000000000000006064820152608401610961565b6122c4838383600161271d565b826001600160a01b03166122d7826110ba565b6001600160a01b03161461233b5760405162461bcd60e51b815260206004820152602560248201527f4552433732313a207472616e736665722066726f6d20696e636f72726563742060448201526437bbb732b960d91b6064820152608401610961565b600081815260046020908152604080832080546001600160a01b03199081169091556001600160a01b0387811680865260038552838620805460001901905590871680865283862080546001019055868652600290945282852080549092168417909155905184937fddf252ad1be2c89b69c2b068fc378daa952ba7f163c4a11628f55a4df523b3ef91a4505050565b6123d361272a565b6006805460ff191690557f5db9ee0a495bf2e6ff9c91a7834c1ba4fdd244a5e8aa4e537bd38aeae4b073aa335b6040516001600160a01b03909116815260200160405180910390a1565b610bad82826040518060200160405280600081525061277c565b6000612442826110ba565b905061245281600084600161271d565b61245b826110ba565b600083815260046020908152604080832080546001600160a01b03199081169091556001600160a01b0385168085526003845282852080546000190190558785526002909352818420805490911690555192935084927fddf252ad1be2c89b69c2b068fc378daa952ba7f163c4a11628f55a4df523b3ef908390a45050565b6124e26127fa565b6006805460ff191660011790557f62e78cea01bee320cd4e420270b5ea74000d11b0c9f74754ebdbfc544b05a2586124003390565b816001600160a01b0316836001600160a01b031614156125795760405162461bcd60e51b815260206004820152601960248201527f4552433732313a20617070726f766520746f2063616c6c6572000000000000006044820152606401610961565b6001600160a01b03838116600081815260056020908152604080832094871680845294825291829020805460ff191686151590811790915591519182527f17307eab39ab6107e8899845ad3d59bd9653f200f220920489ca2b5937696c31910160405180910390a3505050565b6125f18484846121c5565b6125fd8484848461284d565b610cdb5760405162461bcd60e51b815260206004820152603260248201527f4552433732313a207472616e7366657220746f206e6f6e20455243373231526560448201527131b2b4bb32b91034b6b83632b6b2b73a32b960711b6064820152608401610961565b6060600a805461082690613061565b60606000612680836129a5565b600101905060008167ffffffffffffffff8111156126a0576126a0612e9f565b6040519080825280601f01601f1916602001820160405280156126ca576020820181803683370190505b5090508181016020015b600019017f3031323334353637383961626364656600000000000000000000000000000000600a86061a8153600a850494508461271057612715565b6126d4565b509392505050565b6127256127fa565b610cdb565b60065460ff16610dbd5760405162461bcd60e51b815260206004820152601460248201527f5061757361626c653a206e6f74207061757365640000000000000000000000006044820152606401610961565b6127868383612a87565b612793600084848461284d565b610a025760405162461bcd60e51b815260206004820152603260248201527f4552433732313a207472616e7366657220746f206e6f6e20455243373231526560448201527131b2b4bb32b91034b6b83632b6b2b73a32b960711b6064820152608401610961565b60065460ff1615610dbd5760405162461bcd60e51b815260206004820152601060248201527f5061757361626c653a20706175736564000000000000000000000000000000006044820152606401610961565b60006001600160a01b0384163b1561299a57604051630a85bd0160e11b81526001600160a01b0385169063150b7a029061289190339089908890889060040161332c565b602060405180830381600087803b1580156128ab57600080fd5b505af19250505080156128db575060408051601f3d908101601f191682019092526128d891810190613368565b60015b612980573d808015612909576040519150601f19603f3d011682016040523d82523d6000602084013e61290e565b606091505b5080516129785760405162461bcd60e51b815260206004820152603260248201527f4552433732313a207472616e7366657220746f206e6f6e20455243373231526560448201527131b2b4bb32b91034b6b83632b6b2b73a32b960711b6064820152608401610961565b805181602001fd5b6001600160e01b031916630a85bd0160e11b1490506121bd565b506001949350505050565b6000807a184f03e93ff9f4daa797ed6e38ed64bf6a1f01000000000000000083106129ee577a184f03e93ff9f4daa797ed6e38ed64bf6a1f010000000000000000830492506040015b6d04ee2d6d415b85acef81000000008310612a1a576d04ee2d6d415b85acef8100000000830492506020015b662386f26fc100008310612a3857662386f26fc10000830492506010015b6305f5e1008310612a50576305f5e100830492506008015b6127108310612a6457612710830492506004015b60648310612a76576064830492506002015b600a83106108115760010192915050565b6001600160a01b038216612add5760405162461bcd60e51b815260206004820181905260248201527f4552433732313a206d696e7420746f20746865207a65726f20616464726573736044820152606401610961565b6000818152600260205260409020546001600160a01b031615612b425760405162461bcd60e51b815260206004820152601c60248201527f4552433732313a20746f6b656e20616c7265616479206d696e746564000000006044820152606401610961565b612b5060008383600161271d565b6000818152600260205260409020546001600160a01b031615612bb55760405162461bcd60e51b815260206004820152601c60248201527f4552433732313a20746f6b656e20616c7265616479206d696e746564000000006044820152606401610961565b6001600160a01b038216600081815260036020908152604080832080546001019055848352600290915280822080546001600160a01b0319168417905551839291907fddf252ad1be2c89b69c2b068fc378daa952ba7f163c4a11628f55a4df523b3ef908290a45050565b828054612c2c90613061565b90600052602060002090601f016020900481019282612c4e5760008555612c94565b82601f10612c6757805160ff1916838001178555612c94565b82800160010185558215612c94579182015b82811115612c94578251825591602001919060010190612c79565b50612ca0929150612ca4565b5090565b5b80821115612ca05760008155600101612ca5565b6001600160e01b031981168114610fe857600080fd5b600060208284031215612ce157600080fd5b8135611bf881612cb9565b60005b83811015612d07578181015183820152602001612cef565b83811115610cdb5750506000910152565b60008151808452612d30816020860160208601612cec565b601f01601f19169290920160200192915050565b602081526000611bf86020830184612d18565b600060208284031215612d6957600080fd5b5035919050565b6001600160a01b0381168114610fe857600080fd5b60008060408385031215612d9857600080fd5b8235612da381612d70565b946020939093013593505050565b600080600060608486031215612dc657600080fd5b833592506020840135612dd881612d70565b929592945050506040919091013590565b60008060408385031215612dfc57600080fd5b50508035926020909101359150565b600080600060608486031215612e2057600080fd5b8335612e2b81612d70565b92506020840135612dd881612d70565b600060208284031215612e4d57600080fd5b8135611bf881612d70565b8015158114610fe857600080fd5b60008060408385031215612e7957600080fd5b8235612e8481612d70565b91506020830135612e9481612e58565b809150509250929050565b634e487b7160e01b600052604160045260246000fd5b604051601f8201601f1916810167ffffffffffffffff81118282101715612ede57612ede612e9f565b604052919050565b600067ffffffffffffffff831115612f0057612f00612e9f565b612f13601f8401601f1916602001612eb5565b9050828152838383011115612f2757600080fd5b828260208301376000602084830101529392505050565b600060208284031215612f5057600080fd5b813567ffffffffffffffff811115612f6757600080fd5b8201601f81018413612f7857600080fd5b6121bd84823560208401612ee6565b60008060008060808587031215612f9d57600080fd5b8435612fa881612d70565b93506020850135612fb881612d70565b925060408501359150606085013567ffffffffffffffff811115612fdb57600080fd5b8501601f81018713612fec57600080fd5b612ffb87823560208401612ee6565b91505092959194509250565b60008060006060848603121561301c57600080fd5b505081359360208301359350604090920135919050565b6000806040838503121561304657600080fd5b823561305181612d70565b91506020830135612e9481612d70565b600181811c9082168061307557607f821691505b6020821081141561309657634e487b7160e01b600052602260045260246000fd5b50919050565b634e487b7160e01b600052601160045260246000fd5b60006000198214156130c6576130c661309c565b5060010190565b60008160001904831182151516156130e7576130e761309c565b500290565b60008261310957634e487b7160e01b600052601260045260246000fd5b500490565b60006020828403121561312057600080fd5b8151611bf881612e58565b60006020828403121561313d57600080fd5b5051919050565b600067ffffffffffffffff82111561315e5761315e612e9f565b5060051b60200190565b600082601f83011261317957600080fd5b8151602061318e61318983613144565b612eb5565b82815260059290921b840181019181810190868411156131ad57600080fd5b8286015b848110156131c857805183529183019183016131b1565b509695505050505050565b6000806000606084860312156131e857600080fd5b835167ffffffffffffffff8082111561320057600080fd5b818601915086601f83011261321457600080fd5b8151602061322461318983613144565b82815260059290921b8401810191818101908a84111561324357600080fd5b948201945b8386101561326a57855161325b81612d70565b82529482019490820190613248565b9189015191975090935050508082111561328357600080fd5b5061329086828701613168565b925050604084015190509250925092565b634e487b7160e01b600052603260045260246000fd5b6000602082840312156132c957600080fd5b8151611bf881612d70565b600083516132e6818460208801612cec565b7f2f000000000000000000000000000000000000000000000000000000000000009083019081528351613320816001840160208801612cec565b01600101949350505050565b60006001600160a01b0380871683528086166020840152508360408301526080606083015261335e6080830184612d18565b9695505050505050565b60006020828403121561337a57600080fd5b8151611bf881612cb956fea2646970667358221220c0a217ce16b87b6e0c103a2131d5ec0943aeb9428a4a1f00a1bf21edd66ce13c64736f6c63430008090033a264697066735822122045ef05b2f14d396e9555b4525729830294fb37af868afb947f700084d89f386b64736f6c63430008090033",
  "linkReferences": {},
  "deployedLinkReferences": {}
}