{
  "_format": "hh-sol-artifact-1",
  "contractName": "EventFactory_v0",
  "sourceName": "contracts/Event_v0.sol",
  "abi": [
    {
      "inputs": [
        {
          "internalType": "address",
          "name": "presale_addr_",
          "type": "address"
        },
        {
          "internalType": "address",
          "name": "market_addr_",
          "type": "address"
        }
      ],
      "stateMutability": "nonpayable",
      "type": "constructor"
    },
    {
      "anonymous": false,
      "inputs": [
        {
          "indexed": false,
          "internalType": "address",
          "name": "",
          "type": "address"
        }
      ],
      "name": "EventCreated",
      "type": "event"
    },
    {
      "inputs": [
        {
          "internalType": "string",
          "name": "name",
          "type": "string"
        },
        {
          "internalType": "string",
          "name": "symbol",
          "type": "string"
        },
        {
          "internalType": "uint256",
          "name": "max_tickets",
          "type": "uint256"
        },
        {
          "internalType": "uint256",
          "name": "max_presale",
          "type": "uint256"
        }
      ],
      "name": "createEvent",
      "outputs": [],
      "stateMutability": "nonpayable",
      "type": "function"
    },
    {
      "inputs": [
        {
          "internalType": "uint256",
          "name": "",
          "type": "uint256"
        }
      ],
      "name": "events",
      "outputs": [
        {
          "internalType": "address",
          "name": "",
          "type": "address"
        }
      ],
      "stateMutability": "view",
      "type": "function"
    },
    {
      "inputs": [],
      "name": "getDeployEvents",
      "outputs": [
        {
          "internalType": "address[]",
          "name": "",
          "type": "address[]"
        }
      ],
      "stateMutability": "view",
      "type": "function"
    },
    {
      "inputs": [],
      "name": "market_addr",
      "outputs": [
        {
          "internalType": "address",
          "name": "",
          "type": "address"
        }
      ],
      "stateMutability": "view",
      "type": "function"
    },
    {
      "inputs": [],
      "name": "presale_addr",
      "outputs": [
        {
          "internalType": "address",
          "name": "",
          "type": "address"
        }
      ],
      "stateMutability": "view",
      "type": "function"
    }
  ],
  "bytecode": "0x6080604052600180546001600160a01b031990811690915560028054909116905534801561002c57600080fd5b5060405161401538038061401583398101604081905261004b91610098565b600180546001600160a01b039384166001600160a01b031991821617909155600280549290931691161790556100cb565b80516001600160a01b038116811461009357600080fd5b919050565b600080604083850312156100ab57600080fd5b6100b48361007c565b91506100c26020840161007c565b90509250929050565b613f3b806100da6000396000f3fe608060405234801561001057600080fd5b50600436106100675760003560e01c8063bce062b911610050578063bce062b9146100af578063d4646e17146100c4578063e1352d70146100d957600080fd5b80630b7914301461006c57806368024d3f1461009c575b600080fd5b61007f61007a366004610280565b6100ec565b6040516001600160a01b0390911681526020015b60405180910390f35b60015461007f906001600160a01b031681565b6100c26100bd366004610355565b610116565b005b6100cc610210565b60405161009391906103c9565b60025461007f906001600160a01b031681565b600081815481106100fc57600080fd5b6000918252602090912001546001600160a01b0316905081565b6001546002546040516000926001600160a01b039081169216908790879033908890889061014390610272565b610153979695949392919061045c565b604051809103906000f08015801561016f573d6000803e3d6000fd5b50600080546001810182559080527f290decd9548b62a8d60345a988386fc84ba6bc95484008f6362f93160ef3e5630180547fffffffffffffffffffffffff0000000000000000000000000000000000000000166001600160a01b0383169081179091556040519081529091507ffc8a4c0621b9788c4dbe57053a51ce2d22625a067d039f38004df2a07ca755a49060200160405180910390a15050505050565b6060600080548060200260200160405190810160405280929190818152602001828054801561026857602002820191906000526020600020905b81546001600160a01b0316815260019091019060200180831161024a575b5050505050905090565b613a4d80620004b983390190565b60006020828403121561029257600080fd5b5035919050565b7f4e487b7100000000000000000000000000000000000000000000000000000000600052604160045260246000fd5b600082601f8301126102d957600080fd5b813567ffffffffffffffff808211156102f4576102f4610299565b604051601f8301601f19908116603f0116810190828211818310171561031c5761031c610299565b8160405283815286602085880101111561033557600080fd5b836020870160208301376000602085830101528094505050505092915050565b6000806000806080858703121561036b57600080fd5b843567ffffffffffffffff8082111561038357600080fd5b61038f888389016102c8565b955060208701359150808211156103a557600080fd5b506103b2878288016102c8565b949794965050505060408301359260600135919050565b6020808252825182820181905260009190848201906040850190845b8181101561040a5783516001600160a01b0316835292840192918401916001016103e5565b50909695505050505050565b6000815180845260005b8181101561043c57602081850181015186830182015201610420565b506000602082860101526020601f19601f83011685010191505092915050565b60006001600160a01b03808a168352808916602084015260e0604084015261048760e0840189610416565b83810360608501526104998189610416565b91909616608084015260a08301949094525060c001529594505050505056fe6080604052600019600d5560006014553480156200001c57600080fd5b5060405162003a4d38038062003a4d8339810160408190526200003f9162000226565b848460006200004f83826200036b565b5060016200005e82826200036b565b50506006805460ff1916905550600e80546001600160a01b03808a166001600160a01b03199283168117909355600f8054918a1691831682179055600980548316841790556013805490921617905560405163705fdf3d60e01b815263705fdf3d90620000d390849060040190815260200190565b600060405180830381600087803b158015620000ee57600080fd5b505af115801562000103573d6000803e3d6000fd5b50505060119290925550506000600b55600d54601255600880546001600160a01b0319166001600160a01b0392909216919091179055506200043792505050565b80516001600160a01b03811681146200015c57600080fd5b919050565b634e487b7160e01b600052604160045260246000fd5b600082601f8301126200018957600080fd5b81516001600160401b0380821115620001a657620001a662000161565b604051601f8301601f19908116603f01168101908282118183101715620001d157620001d162000161565b81604052838152602092508683858801011115620001ee57600080fd5b600091505b83821015620002125785820183015181830184015290820190620001f3565b600093810190920192909252949350505050565b600080600080600080600060e0888a0312156200024257600080fd5b6200024d8862000144565b96506200025d6020890162000144565b60408901519096506001600160401b03808211156200027b57600080fd5b620002898b838c0162000177565b965060608a0151915080821115620002a057600080fd5b50620002af8a828b0162000177565b945050620002c06080890162000144565b925060a0880151915060c0880151905092959891949750929550565b600181811c90821680620002f157607f821691505b6020821081036200031257634e487b7160e01b600052602260045260246000fd5b50919050565b601f8211156200036657600081815260208120601f850160051c81016020861015620003415750805b601f850160051c820191505b8181101562000362578281556001016200034d565b5050505b505050565b81516001600160401b0381111562000387576200038762000161565b6200039f81620003988454620002dc565b8462000318565b602080601f831160018114620003d75760008415620003be5750858301515b600019600386901b1c1916600185901b17855562000362565b600085815260208120601f198616915b828110156200040857888601518255948401946001909101908401620003e7565b5085821015620004275787850151600019600388901b60f8161c191681555b5050505050600190811b01905550565b61360680620004476000396000f3fe6080604052600436106102bb5760003560e01c8063786f29101161016e578063b88d4fde116100cb578063d5c956941161007f578063e985e9c511610064578063e985e9c5146107f0578063ea8a1af014610839578063f207564e1461084e57600080fd5b8063d5c95694146107ba578063d93580ff146107d057600080fd5b8063bf665bd3116100b0578063bf665bd31461075a578063c0fd2c8b1461077a578063c87b56dd1461079a57600080fd5b8063b88d4fde1461070d578063bc31c1c11461072d57600080fd5b806395d89b4111610122578063a2b1b71e11610107578063a2b1b71e146106ba578063a9059cbb146106cd578063af1c5211146106ed57600080fd5b806395d89b4114610685578063a22cb4651461069a57600080fd5b80638456cb59116101535780638456cb59146105f357806384ed8c56146106085780638da5cb5b1461066757600080fd5b8063786f2910146105cb5780637b35c01a146105e057600080fd5b8063410085df1161021c5780635ad95a69116101d05780636352211e116101b55780636352211e1461055d5780636ba4c1381461057d57806370a082311461059d57600080fd5b80635ad95a69146105255780635c975abb1461054557600080fd5b806342966c681161020157806342966c68146104505780634f558e791461047057806350b44712146104a857600080fd5b8063410085df1461041057806342842e0e1461043057600080fd5b806323b872dd116102735780633ccfd60b116102585780633ccfd60b146103c65780633f4ba83a146103db57806340c10f19146103f057600080fd5b806323b872dd1461039157806325b6fe0c146103b157600080fd5b8063081812fc116102a4578063081812fc14610317578063095ea7b31461034f5780631aef4b051461037157600080fd5b806301ffc9a7146102c057806306fdde03146102f5575b600080fd5b3480156102cc57600080fd5b506102e06102db366004612c9e565b610861565b60405190151581526020015b60405180910390f35b34801561030157600080fd5b5061030a6108fe565b6040516102ec9190612d0b565b34801561032357600080fd5b50610337610332366004612d1e565b610990565b6040516001600160a01b0390911681526020016102ec565b34801561035b57600080fd5b5061036f61036a366004612d4c565b6109b9565b005b34801561037d57600080fd5b5061036f61038c366004612d78565b6109c8565b34801561039d57600080fd5b5061036f6103ac366004612db0565b610aab565b3480156103bd57600080fd5b5061036f610b4f565b3480156103d257600080fd5b5061036f610c0a565b3480156103e757600080fd5b5061036f610c90565b3480156103fc57600080fd5b5061036f61040b366004612d4c565b610cf1565b34801561041c57600080fd5b5061036f61042b366004612d4c565b610d4b565b34801561043c57600080fd5b5061036f61044b366004612db0565b610eb1565b34801561045c57600080fd5b5061036f61046b366004612d1e565b610ed1565b34801561047c57600080fd5b506102e061048b366004612d1e565b6000908152600260205260409020546001600160a01b0316151590565b3480156104b457600080fd5b506104f86104c3366004612d1e565b601060205260009081526040902080546001820154600283015460038401546004850154600590950154939492939192909186565b604080519687526020870195909552938501929092526060840152608083015260a082015260c0016102ec565b34801561053157600080fd5b5061036f610540366004612d1e565b610edd565b34801561055157600080fd5b5060065460ff166102e0565b34801561056957600080fd5b50610337610578366004612d1e565b610f96565b34801561058957600080fd5b5061036f610598366004612eb6565b610fa1565b3480156105a957600080fd5b506105bd6105b8366004612eeb565b611126565b6040519081526020016102ec565b3480156105d757600080fd5b5061030a611187565b61036f6105ee366004612eb6565b611215565b3480156105ff57600080fd5b5061036f61149d565b34801561061457600080fd5b50610648610623366004612d1e565b600a60205260009081526040902080546001909101546001600160a01b039091169082565b604080516001600160a01b0390931683526020830191909152016102ec565b34801561067357600080fd5b506008546001600160a01b0316610337565b34801561069157600080fd5b5061030a6114fc565b3480156106a657600080fd5b5061036f6106b5366004612f16565b61150b565b61036f6106c8366004612d1e565b611516565b3480156106d957600080fd5b5061036f6106e8366004612d4c565b61199c565b3480156106f957600080fd5b5061036f610708366004612fa7565b611a18565b34801561071957600080fd5b5061036f610728366004612ff0565b611a7b565b34801561073957600080fd5b506105bd610748366004612d1e565b60076020526000908152604090205481565b34801561076657600080fd5b5061036f610775366004613070565b611a92565b34801561078657600080fd5b5061036f610795366004613165565b611c27565b3480156107a657600080fd5b5061030a6107b5366004612d1e565b611e4b565b3480156107c657600080fd5b506105bd60115481565b3480156107dc57600080fd5b506105bd6107eb366004612d1e565b611f0e565b3480156107fc57600080fd5b506102e061080b366004613191565b6001600160a01b03918216600090815260056020908152604080832093909416825291909152205460ff1690565b34801561084557600080fd5b5061036f611f8a565b61036f61085c366004612d1e565b6120ee565b60006001600160e01b031982167f80ac58cd0000000000000000000000000000000000000000000000000000000014806108c457506001600160e01b031982167f5b5e139f00000000000000000000000000000000000000000000000000000000145b806108f857507f01ffc9a7000000000000000000000000000000000000000000000000000000006001600160e01b03198316145b92915050565b60606000805461090d906131bf565b80601f0160208091040260200160405190810160405280929190818152602001828054610939906131bf565b80156109865780601f1061095b57610100808354040283529160200191610986565b820191906000526020600020905b81548152906001019060200180831161096957829003601f168201915b5050505050905090565b600061099b826122c9565b506000828152600460205260409020546001600160a01b03166108f8565b6109c4828233612302565b5050565b336109db6008546001600160a01b031690565b6001600160a01b031614610a245760405162461bcd60e51b815260206004820152600b60248201526a3737ba1036b0b730b3b2b960a91b60448201526064015b60405180910390fd5b6000838152600a60205260409020546001600160a01b0316610a5657600b8054906000610a508361320f565b91905055505b6040805180820182526001600160a01b03938416815260208082019384526000958652600a905293209251835473ffffffffffffffffffffffffffffffffffffffff1916921691909117825551600190910155565b6001600160a01b038216610ad557604051633250574960e11b815260006004820152602401610a1b565b6000610ae283833361230f565b9050836001600160a01b0316816001600160a01b031614610b49576040517f64283d7b0000000000000000000000000000000000000000000000000000000081526001600160a01b0380861660048301526024820184905282166044820152606401610a1b565b50505050565b33610b626008546001600160a01b031690565b6001600160a01b031614610ba65760405162461bcd60e51b815260206004820152600b60248201526a3737ba1036b0b730b3b2b960a91b6044820152606401610a1b565b600960009054906101000a90046001600160a01b03166001600160a01b03166325b6fe0c6040518163ffffffff1660e01b8152600401600060405180830381600087803b158015610bf657600080fd5b505af1158015610b49573d6000803e3d6000fd5b4760005b600b548110156109c4576000818152600a6020526040902080546001909101546001600160a01b03909116906108fc90606490610c4b9086613228565b610c55919061323f565b6040518115909202916000818181858888f19350505050158015610c7d573d6000803e3d6000fd5b5080610c888161320f565b915050610c0e565b33610ca36008546001600160a01b031690565b6001600160a01b031614610ce75760405162461bcd60e51b815260206004820152600b60248201526a3737ba1036b0b730b3b2b960a91b6044820152606401610a1b565b610cef61231c565b565b600e546001600160a01b0316331480610d0957503330145b610d415760405162461bcd60e51b81526020600482015260096024820152686e6f7420616c6c6f7760b81b6044820152606401610a1b565b6109c4828261236e565b6012544210610dc25760405162461bcd60e51b815260206004820152602160248201527f6576656e7420616c72656164792073746172742c2063616e277420726566756e60448201527f64000000000000000000000000000000000000000000000000000000000000006064820152608401610a1b565b33610dcc82610f96565b6001600160a01b03161480610deb5750600e546001600160a01b031633145b610e235760405162461bcd60e51b81526020600482015260096024820152683737ba1037bbb732b960b91b6044820152606401610a1b565b6000818152600260205260409020546001600160a01b0316610e4857610e4881612388565b6000818152601060205260408120600281015481546001909201549091610e6e91613261565b610e789190613228565b6040519091506001600160a01b0384169082156108fc029083906000818181858888f19350505050158015610b49573d6000803e3d6000fd5b610ecc83838360405180602001604052806000815250611a7b565b505050565b6109c46000823361230f565b33610ef06008546001600160a01b031690565b6001600160a01b031614610f345760405162461bcd60e51b815260206004820152600b60248201526a3737ba1036b0b730b3b2b960a91b6044820152606401610a1b565b806000108015610f45575060198111155b610f915760405162461bcd60e51b815260206004820152601c60248201527f70657263656e746167652073686f756c64203e30202626203c3d3235000000006044820152606401610a1b565b601455565b60006108f8826122c9565b60005b815181101561103d5760106000838381518110610fc357610fc3613274565b6020026020010151815260200190815260200160002060010154421161102b5760405162461bcd60e51b815260206004820152600c60248201527f6e6f7420656e642073656c6c00000000000000000000000000000000000000006044820152606401610a1b565b806110358161320f565b915050610fa4565b5060005b81518110156109c4573361105482610f96565b6001600160a01b031603611114576000600760006010600086868151811061107e5761107e613274565b6020026020010151815260200190815260200160002060040154815260200190815260200160002054601060008585815181106110bd576110bd613274565b60200260200101518152602001908152602001600020600501546110e19190613261565b604051909150339082156108fc029083906000818181858888f19350505050158015611111573d6000803e3d6000fd5b50505b8061111e8161320f565b915050611041565b60006001600160a01b03821661116b576040517f89c62b6400000000000000000000000000000000000000000000000000000000815260006004820152602401610a1b565b506001600160a01b031660009081526003602052604090205490565b600c8054611194906131bf565b80601f01602080910402602001604051908101604052809291908181526020018280546111c0906131bf565b801561120d5780601f106111e25761010080835404028352916020019161120d565b820191906000526020600020905b8154815290600101906020018083116111f057829003601f168201915b505050505081565b6000805b82518110156113255761125c83828151811061123757611237613274565b60200260200101516000908152600260205260409020546001600160a01b0316151590565b156112a95760405162461bcd60e51b815260206004820152600b60248201527f746f6b656e2065786973740000000000000000000000000000000000000000006044820152606401610a1b565b601060008483815181106112bf576112bf613274565b60200260200101518152602001908152602001600020600101544211156112e557600080fd5b6113078382815181106112fa576112fa613274565b6020026020010151611f0e565b611311908361328a565b91508061131d8161320f565b915050611219565b50803410156113765760405162461bcd60e51b815260206004820152601160248201527f616d6f756e74206e6f7420656e6f7567680000000000000000000000000000006044820152606401610a1b565b60005b8251811015610ecc5734600760006010600087868151811061139d5761139d613274565b602002602001015181526020019081526020016000206004015481526020019081526020016000208190555034601060008584815181106113e0576113e0613274565b6020026020010151815260200190815260200160002060050181905550306001600160a01b03166340c10f193385848151811061141f5761141f613274565b60200260200101516040518363ffffffff1660e01b81526004016114589291906001600160a01b03929092168252602082015260400190565b600060405180830381600087803b15801561147257600080fd5b505af1158015611486573d6000803e3d6000fd5b5050505080806114959061320f565b915050611379565b336114b06008546001600160a01b031690565b6001600160a01b0316146114f45760405162461bcd60e51b815260206004820152600b60248201526a3737ba1036b0b730b3b2b960a91b6044820152606401610a1b565b610cef6123c3565b60606001805461090d906131bf565b6109c4338383612400565b6013546040517fe133190e000000000000000000000000000000000000000000000000000000008152306004820152602481018390526001600160a01b039091169063e133190e90604401602060405180830381865afa15801561157e573d6000803e3d6000fd5b505050506040513d601f19601f820116820180604052508101906115a2919061329d565b6115ee5760405162461bcd60e51b815260206004820152600b60248201527f6e6f74206c697374696e670000000000000000000000000000000000000000006044820152606401610a1b565b6013546040517f03f25a79000000000000000000000000000000000000000000000000000000008152306004820152602481018390526001600160a01b03909116906303f25a7990604401602060405180830381865afa158015611656573d6000803e3d6000fd5b505050506040513d601f19601f8201168201806040525081019061167a91906132ba565b3410156116c95760405162461bcd60e51b815260206004820152601060248201527f6e6f7420656e6f756768206d6f6e6579000000000000000000000000000000006044820152606401610a1b565b6013546040517f0f43bc140000000000000000000000000000000000000000000000000000000081523060048201526024810183905260609182916000916001600160a01b031690630f43bc1490604401600060405180830381865afa158015611737573d6000803e3d6000fd5b505050506040513d6000823e601f3d908101601f1916820160405261175f919081019061332e565b9194509250905060005b818110156118035783818151811061178357611783613274565b60200260200101516001600160a01b03166108fc60648584815181106117ab576117ab613274565b6020026020010151346117be9190613228565b6117c8919061323f565b6040518115909202916000818181858888f193505050501580156117f0573d6000803e3d6000fd5b50806117fb8161320f565b915050611769565b506013546040517f536fc65c000000000000000000000000000000000000000000000000000000008152306004820152602481018690526000916001600160a01b03169063536fc65c90604401602060405180830381865afa15801561186d573d6000803e3d6000fd5b505050506040513d601f19601f8201168201806040525081019061189191906133fc565b6013546040517f60a916fb00000000000000000000000000000000000000000000000000000000815230600482015260248101889052600060448201529192506001600160a01b0316906360a916fb90606401600060405180830381600087803b1580156118fe57600080fd5b505af1158015611912573d6000803e3d6000fd5b50506040517f42842e0e0000000000000000000000000000000000000000000000000000000081526001600160a01b0384166004820152336024820152604481018890523092506342842e0e9150606401600060405180830381600087803b15801561197d57600080fd5b505af1158015611991573d6000803e3d6000fd5b505050505050505050565b600e546001600160a01b031633146119e25760405162461bcd60e51b81526020600482015260096024820152686e6f7420616c6c6f7760b81b6044820152606401610a1b565b6040516001600160a01b0383169082156108fc029083906000818181858888f19350505050158015610ecc573d6000803e3d6000fd5b33611a2b6008546001600160a01b031690565b6001600160a01b031614611a6f5760405162461bcd60e51b815260206004820152600b60248201526a3737ba1036b0b730b3b2b960a91b6044820152606401610a1b565b600c6109c4828261345f565b611a86848484610aab565b610b49848484846124b8565b33611aa56008546001600160a01b031690565b6001600160a01b031614611ae95760405162461bcd60e51b815260206004820152600b60248201526a3737ba1036b0b730b3b2b960a91b6044820152606401610a1b565b60005b8651811015611c1e576040518060c00160405280878381518110611b1257611b12613274565b60200260200101518152602001868381518110611b3157611b31613274565b60200260200101518152602001858381518110611b5057611b50613274565b60200260200101518152602001848381518110611b6f57611b6f613274565b60200260200101518152602001838381518110611b8e57611b8e613274565b60200260200101518152602001600081525060106000898481518110611bb657611bb6613274565b60200260200101518152602001908152602001600020600082015181600001556020820151816001015560408201518160020155606082015181600301556080820151816004015560a082015181600501559050508080611c169061320f565b915050611aec565b50505050505050565b33611c3184610f96565b6001600160a01b031614611c735760405162461bcd60e51b81526020600482015260096024820152683737ba1037bbb732b960b91b6044820152606401610a1b565b6019811115611cc45760405162461bcd60e51b815260206004820152601d60248201527f70657263656e746167652073686f756c64203e3d30202626203c3d32350000006044820152606401610a1b565b611cce30846109b9565b60145415611d4d57601354601454604051632aa727c960e01b8152306004820181905260248201879052604482015260648101919091526001600160a01b0390911690632aa727c990608401600060405180830381600087803b158015611d3457600080fd5b505af1158015611d48573d6000803e3d6000fd5b505050505b8015611dc557601354604051632aa727c960e01b815230600482015260248101859052336044820152606481018390526001600160a01b0390911690632aa727c990608401600060405180830381600087803b158015611dac57600080fd5b505af1158015611dc0573d6000803e3d6000fd5b505050505b6013546040517f42cadb1800000000000000000000000000000000000000000000000000000000815233600482015230602482015260448101859052606481018490526001600160a01b03909116906342cadb1890608401600060405180830381600087803b158015611e3757600080fd5b505af1158015611c1e573d6000803e3d6000fd5b6000818152600260205260409020546060906001600160a01b0316611eb25760405162461bcd60e51b815260206004820152601060248201527f746f6b656e206e6f74206d696e746564000000000000000000000000000000006044820152606401610a1b565b6000611ebc6125e1565b90506000815111611edc5760405180602001604052806000815250611f07565b80611ee6846125f0565b604051602001611ef792919061351f565b6040516020818303038152906040525b9392505050565b600081815260106020526040812054611f28904290612690565b600082815260106020526040812054611f419042613261565b60008481526010602052604081206002015491925090611f62908390613228565b600085815260106020526040902060030154909150611f82908290613261565b949350505050565b33611f9d6008546001600160a01b031690565b6001600160a01b031614611fe15760405162461bcd60e51b815260206004820152600b60248201526a3737ba1036b0b730b3b2b960a91b6044820152606401610a1b565b60125442106120585760405162461bcd60e51b815260206004820152602160248201527f6576656e7420616c72656164792073746172742c2063616e27742063616e636560448201527f6c000000000000000000000000000000000000000000000000000000000000006064820152608401610a1b565b60005b6011548110156120e5576000818152600260205260409020546001600160a01b0316156120d35761208b81610f96565b6000828152601060205260408082206005015490516001600160a01b03939093169281156108fc0292818181858888f193505050501580156120d1573d6000803e3d6000fd5b505b806120dd8161320f565b91505061205b565b50610cef61149d565b600081815260106020526040812060028101548154600190920154909161211491613261565b61211e9190613228565b9050803410156121705760405162461bcd60e51b815260206004820152601060248201527f6e6f7420656e6f756768206d6f6e6579000000000000000000000000000000006044820152606401610a1b565b6009546040517f1dc740c90000000000000000000000000000000000000000000000000000000081523060048201523360248201526001600160a01b0390911690631dc740c990604401602060405180830381865afa1580156121d7573d6000803e3d6000fd5b505050506040513d601f19601f820116820180604052508101906121fb919061329d565b156122485760405162461bcd60e51b815260206004820152601e60248201527f757365722073686f756c64207265676973746572206f6e6c79206f6e636500006044820152606401610a1b565b6009546040517f6d705ebb000000000000000000000000000000000000000000000000000000008152336004820152602481018490526001600160a01b0390911690636d705ebb90604401600060405180830381600087803b1580156122ad57600080fd5b505af11580156122c1573d6000803e3d6000fd5b505050505050565b6000818152600260205260408120546001600160a01b0316806108f857604051637e27328960e01b815260048101849052602401610a1b565b610ecc8383836001612705565b6000611f82848484612850565b612324612865565b6006805460ff191690557f5db9ee0a495bf2e6ff9c91a7834c1ba4fdd244a5e8aa4e537bd38aeae4b073aa335b6040516001600160a01b03909116815260200160405180910390a1565b6109c48282604051806020016040528060008152506128a1565b6000612397600083600061230f565b90506001600160a01b0381166109c457604051637e27328960e01b815260048101839052602401610a1b565b6123cb6128b8565b6006805460ff191660011790557f62e78cea01bee320cd4e420270b5ea74000d11b0c9f74754ebdbfc544b05a2586123513390565b6001600160a01b03821661244b576040517f5b08ba180000000000000000000000000000000000000000000000000000000081526001600160a01b0383166004820152602401610a1b565b6001600160a01b03838116600081815260056020908152604080832094871680845294825291829020805460ff191686151590811790915591519182527f17307eab39ab6107e8899845ad3d59bd9653f200f220920489ca2b5937696c31910160405180910390a3505050565b6001600160a01b0383163b15610b4957604051630a85bd0160e11b81526001600160a01b0384169063150b7a02906124fa903390889087908790600401613577565b6020604051808303816000875af1925050508015612535575060408051601f3d908101601f19168201909252612532918101906135b3565b60015b61259e573d808015612563576040519150601f19603f3d011682016040523d82523d6000602084013e612568565b606091505b50805160000361259657604051633250574960e11b81526001600160a01b0385166004820152602401610a1b565b805181602001fd5b6001600160e01b03198116630a85bd0160e11b146125da57604051633250574960e11b81526001600160a01b0385166004820152602401610a1b565b5050505050565b6060600c805461090d906131bf565b606060006125fd836128f5565b600101905060008167ffffffffffffffff81111561261d5761261d612de0565b6040519080825280601f01601f191660200182016040528015612647576020820181803683370190505b5090508181016020015b600019017f3031323334353637383961626364656600000000000000000000000000000000600a86061a8153600a850494508461265157509392505050565b60405160248101839052604481018290526109c49060640160408051601f198184030181529190526020810180517bffffffffffffffffffffffffffffffffffffffffffffffffffffffff167ff666715a000000000000000000000000000000000000000000000000000000001790526129d7565b808061271957506001600160a01b03821615155b15612813576000612729846122c9565b90506001600160a01b038316158015906127555750826001600160a01b0316816001600160a01b031614155b801561278757506001600160a01b0380821660009081526005602090815260408083209387168352929052205460ff16155b156127c9576040517fa9fbf51f0000000000000000000000000000000000000000000000000000000081526001600160a01b0384166004820152602401610a1b565b81156128115783856001600160a01b0316826001600160a01b03167f8c5be1e5ebec7d5bd14f71427d1e84f3dd0314c0f7b2291e5b200ac8c7c3b92560405160405180910390a45b505b50506000908152600460205260409020805473ffffffffffffffffffffffffffffffffffffffff19166001600160a01b0392909216919091179055565b600061285a6128b8565b611f828484846129e3565b60065460ff16610cef576040517f8dfc202b00000000000000000000000000000000000000000000000000000000815260040160405180910390fd5b6128ab8383612ae9565b610ecc60008484846124b8565b60065460ff1615610cef576040517fd93c066500000000000000000000000000000000000000000000000000000000815260040160405180910390fd5b6000807a184f03e93ff9f4daa797ed6e38ed64bf6a1f010000000000000000831061293e577a184f03e93ff9f4daa797ed6e38ed64bf6a1f010000000000000000830492506040015b6d04ee2d6d415b85acef8100000000831061296a576d04ee2d6d415b85acef8100000000830492506020015b662386f26fc10000831061298857662386f26fc10000830492506010015b6305f5e10083106129a0576305f5e100830492506008015b61271083106129b457612710830492506004015b606483106129c6576064830492506002015b600a83106108f85760010192915050565b6129e081612b67565b50565b6000828152600260205260408120546001600160a01b0390811690831615612a1057612a10818486612b88565b6001600160a01b03811615612a4e57612a2d600085600080612705565b6001600160a01b038116600090815260036020526040902080546000190190555b6001600160a01b03851615612a7d576001600160a01b0385166000908152600360205260409020805460010190555b600084815260026020526040808220805473ffffffffffffffffffffffffffffffffffffffff19166001600160a01b0389811691821790925591518793918516917fddf252ad1be2c89b69c2b068fc378daa952ba7f163c4a11628f55a4df523b3ef91a4949350505050565b6001600160a01b038216612b1357604051633250574960e11b815260006004820152602401610a1b565b6000612b218383600061230f565b90506001600160a01b03811615610ecc576040517f73c6ac6e00000000000000000000000000000000000000000000000000000000815260006004820152602401610a1b565b60006a636f6e736f6c652e6c6f679050600080835160208501845afa505050565b612b93838383612c05565b610ecc576001600160a01b038316612bc157604051637e27328960e01b815260048101829052602401610a1b565b6040517f177e802f0000000000000000000000000000000000000000000000000000000081526001600160a01b038316600482015260248101829052604401610a1b565b60006001600160a01b03831615801590611f825750826001600160a01b0316846001600160a01b03161480612c5f57506001600160a01b0380851660009081526005602090815260408083209387168352929052205460ff165b80611f825750506000908152600460205260409020546001600160a01b03908116911614919050565b6001600160e01b0319811681146129e057600080fd5b600060208284031215612cb057600080fd5b8135611f0781612c88565b60005b83811015612cd6578181015183820152602001612cbe565b50506000910152565b60008151808452612cf7816020860160208601612cbb565b601f01601f19169290920160200192915050565b602081526000611f076020830184612cdf565b600060208284031215612d3057600080fd5b5035919050565b6001600160a01b03811681146129e057600080fd5b60008060408385031215612d5f57600080fd5b8235612d6a81612d37565b946020939093013593505050565b600080600060608486031215612d8d57600080fd5b833592506020840135612d9f81612d37565b929592945050506040919091013590565b600080600060608486031215612dc557600080fd5b8335612dd081612d37565b92506020840135612d9f81612d37565b634e487b7160e01b600052604160045260246000fd5b604051601f8201601f1916810167ffffffffffffffff81118282101715612e1f57612e1f612de0565b604052919050565b600067ffffffffffffffff821115612e4157612e41612de0565b5060051b60200190565b600082601f830112612e5c57600080fd5b81356020612e71612e6c83612e27565b612df6565b82815260059290921b84018101918181019086841115612e9057600080fd5b8286015b84811015612eab5780358352918301918301612e94565b509695505050505050565b600060208284031215612ec857600080fd5b813567ffffffffffffffff811115612edf57600080fd5b611f8284828501612e4b565b600060208284031215612efd57600080fd5b8135611f0781612d37565b80151581146129e057600080fd5b60008060408385031215612f2957600080fd5b8235612f3481612d37565b91506020830135612f4481612f08565b809150509250929050565b600067ffffffffffffffff831115612f6957612f69612de0565b612f7c601f8401601f1916602001612df6565b9050828152838383011115612f9057600080fd5b828260208301376000602084830101529392505050565b600060208284031215612fb957600080fd5b813567ffffffffffffffff811115612fd057600080fd5b8201601f81018413612fe157600080fd5b611f8284823560208401612f4f565b6000806000806080858703121561300657600080fd5b843561301181612d37565b9350602085013561302181612d37565b925060408501359150606085013567ffffffffffffffff81111561304457600080fd5b8501601f8101871361305557600080fd5b61306487823560208401612f4f565b91505092959194509250565b60008060008060008060c0878903121561308957600080fd5b863567ffffffffffffffff808211156130a157600080fd5b6130ad8a838b01612e4b565b975060208901359150808211156130c357600080fd5b6130cf8a838b01612e4b565b965060408901359150808211156130e557600080fd5b6130f18a838b01612e4b565b9550606089013591508082111561310757600080fd5b6131138a838b01612e4b565b9450608089013591508082111561312957600080fd5b6131358a838b01612e4b565b935060a089013591508082111561314b57600080fd5b5061315889828a01612e4b565b9150509295509295509295565b60008060006060848603121561317a57600080fd5b505081359360208301359350604090920135919050565b600080604083850312156131a457600080fd5b82356131af81612d37565b91506020830135612f4481612d37565b600181811c908216806131d357607f821691505b6020821081036131f357634e487b7160e01b600052602260045260246000fd5b50919050565b634e487b7160e01b600052601160045260246000fd5b600060018201613221576132216131f9565b5060010190565b80820281158282048414176108f8576108f86131f9565b60008261325c57634e487b7160e01b600052601260045260246000fd5b500490565b818103818111156108f8576108f86131f9565b634e487b7160e01b600052603260045260246000fd5b808201808211156108f8576108f86131f9565b6000602082840312156132af57600080fd5b8151611f0781612f08565b6000602082840312156132cc57600080fd5b5051919050565b600082601f8301126132e457600080fd5b815160206132f4612e6c83612e27565b82815260059290921b8401810191818101908684111561331357600080fd5b8286015b84811015612eab5780518352918301918301613317565b60008060006060848603121561334357600080fd5b835167ffffffffffffffff8082111561335b57600080fd5b818601915086601f83011261336f57600080fd5b8151602061337f612e6c83612e27565b82815260059290921b8401810191818101908a84111561339e57600080fd5b948201945b838610156133c55785516133b681612d37565b825294820194908201906133a3565b918901519197509093505050808211156133de57600080fd5b506133eb868287016132d3565b925050604084015190509250925092565b60006020828403121561340e57600080fd5b8151611f0781612d37565b601f821115610ecc57600081815260208120601f850160051c810160208610156134405750805b601f850160051c820191505b818110156122c15782815560010161344c565b815167ffffffffffffffff81111561347957613479612de0565b61348d8161348784546131bf565b84613419565b602080601f8311600181146134c257600084156134aa5750858301515b600019600386901b1c1916600185901b1785556122c1565b600085815260208120601f198616915b828110156134f1578886015182559484019460019091019084016134d2565b508582101561350f5787850151600019600388901b60f8161c191681555b5050505050600190811b01905550565b60008351613531818460208801612cbb565b7f2f00000000000000000000000000000000000000000000000000000000000000908301908152835161356b816001840160208801612cbb565b01600101949350505050565b60006001600160a01b038087168352808616602084015250836040830152608060608301526135a96080830184612cdf565b9695505050505050565b6000602082840312156135c557600080fd5b8151611f0781612c8856fea26469706673582212200211364197afa40e06b41e0085315b05e79f1944cb3e2aacf239f379e524e1b664736f6c63430008140033a2646970667358221220d298fa501a7db67f912f47283550ae734b408754258f4610bb28d7fbae7caab764736f6c63430008140033",
  "linkReferences": {},
  "deployedLinkReferences": {}
}