{
  "_format": "hh-sol-artifact-1",
  "contractName": "Market",
  "sourceName": "contracts/Market.sol",
  "abi": [
    {
      "inputs": [
        {
          "internalType": "address",
          "name": "c",
          "type": "address"
        },
        {
          "internalType": "uint256",
          "name": "tokenId",
          "type": "uint256"
        }
      ],
      "name": "buy",
      "outputs": [],
      "stateMutability": "payable",
      "type": "function"
    },
    {
      "inputs": [
        {
          "internalType": "address",
          "name": "c",
          "type": "address"
        },
        {
          "internalType": "uint256",
          "name": "tokenId",
          "type": "uint256"
        }
      ],
      "name": "get_listing",
      "outputs": [
        {
          "internalType": "bool",
          "name": "",
          "type": "bool"
        }
      ],
      "stateMutability": "view",
      "type": "function"
    },
    {
      "inputs": [
        {
          "internalType": "address",
          "name": "c",
          "type": "address"
        },
        {
          "internalType": "uint256",
          "name": "tokenId",
          "type": "uint256"
        }
      ],
      "name": "get_price",
      "outputs": [
        {
          "internalType": "uint256",
          "name": "",
          "type": "uint256"
        }
      ],
      "stateMutability": "view",
      "type": "function"
    },
    {
      "inputs": [
        {
          "internalType": "address",
          "name": "c",
          "type": "address"
        },
        {
          "internalType": "uint256",
          "name": "tokenId",
          "type": "uint256"
        }
      ],
      "name": "get_royalties",
      "outputs": [
        {
          "internalType": "address[]",
          "name": "",
          "type": "address[]"
        },
        {
          "internalType": "uint256[]",
          "name": "",
          "type": "uint256[]"
        },
        {
          "internalType": "uint256",
          "name": "",
          "type": "uint256"
        }
      ],
      "stateMutability": "view",
      "type": "function"
    },
    {
      "inputs": [
        {
          "internalType": "address",
          "name": "c",
          "type": "address"
        },
        {
          "internalType": "uint256",
          "name": "tokenId",
          "type": "uint256"
        }
      ],
      "name": "get_seller",
      "outputs": [
        {
          "internalType": "address",
          "name": "",
          "type": "address"
        }
      ],
      "stateMutability": "view",
      "type": "function"
    },
    {
      "inputs": [
        {
          "internalType": "address",
          "name": "seller",
          "type": "address"
        },
        {
          "internalType": "address",
          "name": "c",
          "type": "address"
        },
        {
          "internalType": "uint256",
          "name": "tokenId",
          "type": "uint256"
        },
        {
          "internalType": "uint256",
          "name": "price",
          "type": "uint256"
        }
      ],
      "name": "list_on_marketplace",
      "outputs": [],
      "stateMutability": "nonpayable",
      "type": "function"
    },
    {
      "inputs": [
        {
          "internalType": "address",
          "name": "c",
          "type": "address"
        },
        {
          "internalType": "uint256",
          "name": "tokenId",
          "type": "uint256"
        },
        {
          "internalType": "bool",
          "name": "listing",
          "type": "bool"
        }
      ],
      "name": "set_listing",
      "outputs": [],
      "stateMutability": "nonpayable",
      "type": "function"
    },
    {
      "inputs": [
        {
          "internalType": "address",
          "name": "c",
          "type": "address"
        },
        {
          "internalType": "uint256",
          "name": "tokenId",
          "type": "uint256"
        },
        {
          "internalType": "address",
          "name": "target",
          "type": "address"
        },
        {
          "internalType": "uint256",
          "name": "percentage",
          "type": "uint256"
        }
      ],
      "name": "set_royalty",
      "outputs": [],
      "stateMutability": "nonpayable",
      "type": "function"
    }
  ],
  "bytecode": "0x6080604052600060035534801561001557600080fd5b50610a11806100256000396000f3fe60806040526004361061007b5760003560e01c8063536fc65c1161004e578063536fc65c1461014a57806360a916fb146101a8578063cce7ec13146101c8578063e133190e146101db57600080fd5b806303f25a79146100805780630f43bc14146100d95780632aa727c91461010857806342cadb181461012a575b600080fd5b34801561008c57600080fd5b506100c661009b3660046107ea565b6001600160a01b03919091166000908152600160208181526040808420948452939052919020015490565b6040519081526020015b60405180910390f35b3480156100e557600080fd5b506100f96100f43660046107ea565b610231565b6040516100d093929190610816565b34801561011457600080fd5b506101286101233660046108a3565b610358565b005b34801561013657600080fd5b506101286101453660046108eb565b610440565b34801561015657600080fd5b506101906101653660046107ea565b6001600160a01b03918216600090815260016020908152604080832093835292905220600201541690565b6040516001600160a01b0390911681526020016100d0565b3480156101b457600080fd5b506101286101c3366004610931565b6105e1565b6101286101d63660046107ea565b61066e565b3480156101e757600080fd5b506102216101f63660046107ea565b6001600160a01b03919091166000908152600160209081526040808320938352929052205460ff1690565b60405190151581526020016100d0565b606080600060608060005b6001600160a01b03881660009081526001602090815260408083208a8452909152902060040154811015610324576001600160a01b0380891660009081526001602090815260408083208b8452825280832085845260030190915290205484519116908490839081106102b1576102b1610978565b6001600160a01b039283166020918202929092018101919091529089166000908152600180835260408083208b845284528083208584526003019093529190200154825183908390811061030757610307610978565b60209081029190910101528061031c8161098e565b91505061023c565b506001600160a01b039690961660009081526001602090815260408083209783529690529490942060040154939592505050565b6001600160a01b03841633146103a45760405162461bcd60e51b815260206004820152600c60248201526b1b9bdd0818dbdb9d1c9858dd60a21b60448201526064015b60405180910390fd5b6040805180820182526001600160a01b0384811682526020808301859052908716600090815260018252838120878252909152918220600481018054929360039092019290826103f38361098e565b9091555081526020808201929092526040016000208251815473ffffffffffffffffffffffffffffffffffffffff19166001600160a01b0390911617815591015160019091015550505050565b6040517f6352211e0000000000000000000000000000000000000000000000000000000081526004810183905283906001600160a01b038681169190831690636352211e9060240160206040518083038186803b1580156104a057600080fd5b505afa1580156104b4573d6000803e3d6000fd5b505050506040513d601f19601f820116820180604052508101906104d891906109b7565b6001600160a01b03161461052e5760405162461bcd60e51b815260206004820152600f60248201527f6e6f7420746f6b656e206f776e65720000000000000000000000000000000000604482015260640161039b565b6001600160a01b03841633146105755760405162461bcd60e51b815260206004820152600c60248201526b1b9bdd0818dbdb9d1c9858dd60a21b604482015260640161039b565b506001600160a01b039283166000908152600160208181526040808420958452949052928120805460ff1916841781559283019190915560028201805473ffffffffffffffffffffffffffffffffffffffff191694909316939093179091556004810182905560050155565b6001600160a01b03831633146106395760405162461bcd60e51b815260206004820152601260248201527f6e6f7420636f6e7472616374206f776e65720000000000000000000000000000604482015260640161039b565b6001600160a01b0392909216600090815260016020908152604080832093835292905220805460ff1916911515919091179055565b6001600160a01b038216600090815260016020908152604080832084845290915290205460ff166106e15760405162461bcd60e51b815260206004820152600b60248201527f6e6f74206c697374696e67000000000000000000000000000000000000000000604482015260640161039b565b6001600160a01b038216600090815260016020818152604080842085855290915290912001543410156107565760405162461bcd60e51b815260206004820152601060248201527f6e6f7420656e6f756768206d6f6e657900000000000000000000000000000000604482015260640161039b565b6040517fa2b1b71e0000000000000000000000000000000000000000000000000000000081526004810182905282906001600160a01b0382169063a2b1b71e9034906024016000604051808303818588803b1580156107b457600080fd5b505af11580156107c8573d6000803e3d6000fd5b5050505050505050565b6001600160a01b03811681146107e757600080fd5b50565b600080604083850312156107fd57600080fd5b8235610808816107d2565b946020939093013593505050565b606080825284519082018190526000906020906080840190828801845b828110156108585781516001600160a01b031684529284019290840190600101610833565b5050508381038285015285518082528683019183019060005b8181101561088d57835183529284019291840191600101610871565b5050809350505050826040830152949350505050565b600080600080608085870312156108b957600080fd5b84356108c4816107d2565b93506020850135925060408501356108db816107d2565b9396929550929360600135925050565b6000806000806080858703121561090157600080fd5b843561090c816107d2565b9350602085013561091c816107d2565b93969395505050506040820135916060013590565b60008060006060848603121561094657600080fd5b8335610951816107d2565b9250602084013591506040840135801515811461096d57600080fd5b809150509250925092565b634e487b7160e01b600052603260045260246000fd5b60006000198214156109b057634e487b7160e01b600052601160045260246000fd5b5060010190565b6000602082840312156109c957600080fd5b81516109d4816107d2565b939250505056fea2646970667358221220ab1cf05bdd479c570b89c1584fd990b9a4caca17fe9e6612f1e34b6a161bb40e64736f6c63430008090033",
  "linkReferences": {},
  "deployedLinkReferences": {}
}