{
  "_format": "hh-sol-artifact-1",
  "contractName": "Market_v0",
  "sourceName": "contracts/Market_v0.sol",
  "abi": [
    {
      "inputs": [
        {
          "internalType": "address",
          "name": "c",
          "type": "address"
        },
        {
          "internalType": "uint256",
          "name": "tokenId",
          "type": "uint256"
        }
      ],
      "name": "buy",
      "outputs": [],
      "stateMutability": "payable",
      "type": "function"
    },
    {
      "inputs": [
        {
          "internalType": "address",
          "name": "c",
          "type": "address"
        },
        {
          "internalType": "uint256",
          "name": "tokenId",
          "type": "uint256"
        }
      ],
      "name": "get_listing",
      "outputs": [
        {
          "internalType": "bool",
          "name": "",
          "type": "bool"
        }
      ],
      "stateMutability": "view",
      "type": "function"
    },
    {
      "inputs": [
        {
          "internalType": "address",
          "name": "c",
          "type": "address"
        },
        {
          "internalType": "uint256",
          "name": "tokenId",
          "type": "uint256"
        }
      ],
      "name": "get_price",
      "outputs": [
        {
          "internalType": "uint256",
          "name": "",
          "type": "uint256"
        }
      ],
      "stateMutability": "view",
      "type": "function"
    },
    {
      "inputs": [
        {
          "internalType": "address",
          "name": "c",
          "type": "address"
        },
        {
          "internalType": "uint256",
          "name": "tokenId",
          "type": "uint256"
        }
      ],
      "name": "get_royalties",
      "outputs": [
        {
          "internalType": "address[]",
          "name": "",
          "type": "address[]"
        },
        {
          "internalType": "uint256[]",
          "name": "",
          "type": "uint256[]"
        },
        {
          "internalType": "uint256",
          "name": "",
          "type": "uint256"
        }
      ],
      "stateMutability": "view",
      "type": "function"
    },
    {
      "inputs": [
        {
          "internalType": "address",
          "name": "c",
          "type": "address"
        },
        {
          "internalType": "uint256",
          "name": "tokenId",
          "type": "uint256"
        }
      ],
      "name": "get_seller",
      "outputs": [
        {
          "internalType": "address",
          "name": "",
          "type": "address"
        }
      ],
      "stateMutability": "view",
      "type": "function"
    },
    {
      "inputs": [
        {
          "internalType": "address",
          "name": "seller",
          "type": "address"
        },
        {
          "internalType": "address",
          "name": "c",
          "type": "address"
        },
        {
          "internalType": "uint256",
          "name": "tokenId",
          "type": "uint256"
        },
        {
          "internalType": "uint256",
          "name": "price",
          "type": "uint256"
        }
      ],
      "name": "list_on_marketplace",
      "outputs": [],
      "stateMutability": "nonpayable",
      "type": "function"
    },
    {
      "inputs": [
        {
          "internalType": "address",
          "name": "c",
          "type": "address"
        },
        {
          "internalType": "uint256",
          "name": "tokenId",
          "type": "uint256"
        },
        {
          "internalType": "bool",
          "name": "listing",
          "type": "bool"
        }
      ],
      "name": "set_listing",
      "outputs": [],
      "stateMutability": "nonpayable",
      "type": "function"
    },
    {
      "inputs": [
        {
          "internalType": "address",
          "name": "c",
          "type": "address"
        },
        {
          "internalType": "uint256",
          "name": "tokenId",
          "type": "uint256"
        },
        {
          "internalType": "address",
          "name": "target",
          "type": "address"
        },
        {
          "internalType": "uint256",
          "name": "percentage",
          "type": "uint256"
        }
      ],
      "name": "set_royalty",
      "outputs": [],
      "stateMutability": "nonpayable",
      "type": "function"
    }
  ],
  "bytecode": "0x6080604052600060025534801561001557600080fd5b506109ef806100256000396000f3fe60806040526004361061007b5760003560e01c8063536fc65c1161004e578063536fc65c1461014857806360a916fb146101a4578063cce7ec13146101c4578063e133190e146101d757600080fd5b806303f25a79146100805780630f43bc14146100d75780632aa727c91461010657806342cadb1814610128575b600080fd5b34801561008c57600080fd5b506100c461009b3660046107ca565b6001600160a01b0391909116600090815260208181526040808320938352929052206001015490565b6040519081526020015b60405180910390f35b3480156100e357600080fd5b506100f76100f23660046107ca565b61022b565b6040516100ce939291906107f6565b34801561011257600080fd5b50610126610121366004610883565b61034a565b005b34801561013457600080fd5b506101266101433660046108cb565b610431565b34801561015457600080fd5b5061018c6101633660046107ca565b6001600160a01b0391821660009081526020818152604080832093835292905220600201541690565b6040516001600160a01b0390911681526020016100ce565b3480156101b057600080fd5b506101266101bf366004610911565b6105c6565b6101266101d23660046107ca565b610651565b3480156101e357600080fd5b5061021b6101f23660046107ca565b6001600160a01b0391909116600090815260208181526040808320938352929052205460ff1690565b60405190151581526020016100ce565b606080600060608060005b6001600160a01b0388166000908152602081815260408083208a8452909152902060040154811015610318576001600160a01b038089166000908152602081815260408083208b8452825280832085845260030190915290205484519116908490839081106102a7576102a7610958565b6001600160a01b03928316602091820292909201810191909152908916600090815280825260408082208a83528352808220848352600301909252206001015482518390839081106102fb576102fb610958565b6020908102919091010152806103108161096e565b915050610236565b506001600160a01b03969096166000908152602081815260408083209783529690529490942060040154939592505050565b6001600160a01b03841633146103965760405162461bcd60e51b815260206004820152600c60248201526b1b9bdd0818dbdb9d1c9858dd60a21b60448201526064015b60405180910390fd5b6040805180820182526001600160a01b03848116825260208083018590529087166000908152808252838120878252909152918220600481018054929360039092019290826103e48361096e565b9091555081526020808201929092526040016000208251815473ffffffffffffffffffffffffffffffffffffffff19166001600160a01b0390911617815591015160019091015550505050565b6040517f6352211e0000000000000000000000000000000000000000000000000000000081526004810183905283906001600160a01b038681169190831690636352211e90602401602060405180830381865afa158015610496573d6000803e3d6000fd5b505050506040513d601f19601f820116820180604052508101906104ba9190610995565b6001600160a01b0316146105105760405162461bcd60e51b815260206004820152600f60248201527f6e6f7420746f6b656e206f776e65720000000000000000000000000000000000604482015260640161038d565b6001600160a01b03841633146105575760405162461bcd60e51b815260206004820152600c60248201526b1b9bdd0818dbdb9d1c9858dd60a21b604482015260640161038d565b506001600160a01b039283166000908152602081815260408083209483529390529182208054600160ff199091168117825581019190915560028101805473ffffffffffffffffffffffffffffffffffffffff1916949093169390931790915560048201819055600590910155565b6001600160a01b038316331461061e5760405162461bcd60e51b815260206004820152601260248201527f6e6f7420636f6e7472616374206f776e65720000000000000000000000000000604482015260640161038d565b6001600160a01b039290921660009081526020818152604080832093835292905220805460ff1916911515919091179055565b6001600160a01b03821660009081526020818152604080832084845290915290205460ff166106c25760405162461bcd60e51b815260206004820152600b60248201527f6e6f74206c697374696e67000000000000000000000000000000000000000000604482015260640161038d565b6001600160a01b0382166000908152602081815260408083208484529091529020600101543410156107365760405162461bcd60e51b815260206004820152601060248201527f6e6f7420656e6f756768206d6f6e657900000000000000000000000000000000604482015260640161038d565b6040517fa2b1b71e0000000000000000000000000000000000000000000000000000000081526004810182905282906001600160a01b0382169063a2b1b71e9034906024016000604051808303818588803b15801561079457600080fd5b505af11580156107a8573d6000803e3d6000fd5b5050505050505050565b6001600160a01b03811681146107c757600080fd5b50565b600080604083850312156107dd57600080fd5b82356107e8816107b2565b946020939093013593505050565b606080825284519082018190526000906020906080840190828801845b828110156108385781516001600160a01b031684529284019290840190600101610813565b5050508381038285015285518082528683019183019060005b8181101561086d57835183529284019291840191600101610851565b5050809350505050826040830152949350505050565b6000806000806080858703121561089957600080fd5b84356108a4816107b2565b93506020850135925060408501356108bb816107b2565b9396929550929360600135925050565b600080600080608085870312156108e157600080fd5b84356108ec816107b2565b935060208501356108fc816107b2565b93969395505050506040820135916060013590565b60008060006060848603121561092657600080fd5b8335610931816107b2565b9250602084013591506040840135801515811461094d57600080fd5b809150509250925092565b634e487b7160e01b600052603260045260246000fd5b60006001820161098e57634e487b7160e01b600052601160045260246000fd5b5060010190565b6000602082840312156109a757600080fd5b81516109b2816107b2565b939250505056fea2646970667358221220b4c09a8fe69d1d3c2f562d5b2a5006cc2743da10040c609e936eb21832e382d464736f6c63430008140033",
  "linkReferences": {},
  "deployedLinkReferences": {}
}