{
  "_format": "hh-sol-artifact-1",
  "contractName": "FansToken",
  "sourceName": "contracts/FansToken.sol",
  "abi": [
    {
      "inputs": [],
      "stateMutability": "nonpayable",
      "type": "constructor"
    },
    {
      "inputs": [],
      "name": "ECDSAInvalidSignature",
      "type": "error"
    },
    {
      "inputs": [
        {
          "internalType": "uint256",
          "name": "length",
          "type": "uint256"
        }
      ],
      "name": "ECDSAInvalidSignatureLength",
      "type": "error"
    },
    {
      "inputs": [
        {
          "internalType": "bytes32",
          "name": "s",
          "type": "bytes32"
        }
      ],
      "name": "ECDSAInvalidSignatureS",
      "type": "error"
    },
    {
      "inputs": [
        {
          "internalType": "address",
          "name": "spender",
          "type": "address"
        },
        {
          "internalType": "uint256",
          "name": "allowance",
          "type": "uint256"
        },
        {
          "internalType": "uint256",
          "name": "needed",
          "type": "uint256"
        }
      ],
      "name": "ERC20InsufficientAllowance",
      "type": "error"
    },
    {
      "inputs": [
        {
          "internalType": "address",
          "name": "sender",
          "type": "address"
        },
        {
          "internalType": "uint256",
          "name": "balance",
          "type": "uint256"
        },
        {
          "internalType": "uint256",
          "name": "needed",
          "type": "uint256"
        }
      ],
      "name": "ERC20InsufficientBalance",
      "type": "error"
    },
    {
      "inputs": [
        {
          "internalType": "address",
          "name": "approver",
          "type": "address"
        }
      ],
      "name": "ERC20InvalidApprover",
      "type": "error"
    },
    {
      "inputs": [
        {
          "internalType": "address",
          "name": "receiver",
          "type": "address"
        }
      ],
      "name": "ERC20InvalidReceiver",
      "type": "error"
    },
    {
      "inputs": [
        {
          "internalType": "address",
          "name": "sender",
          "type": "address"
        }
      ],
      "name": "ERC20InvalidSender",
      "type": "error"
    },
    {
      "inputs": [
        {
          "internalType": "address",
          "name": "spender",
          "type": "address"
        }
      ],
      "name": "ERC20InvalidSpender",
      "type": "error"
    },
    {
      "inputs": [
        {
          "internalType": "uint256",
          "name": "deadline",
          "type": "uint256"
        }
      ],
      "name": "ERC2612ExpiredSignature",
      "type": "error"
    },
    {
      "inputs": [
        {
          "internalType": "address",
          "name": "signer",
          "type": "address"
        },
        {
          "internalType": "address",
          "name": "owner",
          "type": "address"
        }
      ],
      "name": "ERC2612InvalidSigner",
      "type": "error"
    },
    {
      "inputs": [],
      "name": "EnforcedPause",
      "type": "error"
    },
    {
      "inputs": [],
      "name": "ExpectedPause",
      "type": "error"
    },
    {
      "inputs": [
        {
          "internalType": "address",
          "name": "account",
          "type": "address"
        },
        {
          "internalType": "uint256",
          "name": "currentNonce",
          "type": "uint256"
        }
      ],
      "name": "InvalidAccountNonce",
      "type": "error"
    },
    {
      "inputs": [],
      "name": "InvalidShortString",
      "type": "error"
    },
    {
      "inputs": [
        {
          "internalType": "address",
          "name": "owner",
          "type": "address"
        }
      ],
      "name": "OwnableInvalidOwner",
      "type": "error"
    },
    {
      "inputs": [
        {
          "internalType": "address",
          "name": "account",
          "type": "address"
        }
      ],
      "name": "OwnableUnauthorizedAccount",
      "type": "error"
    },
    {
      "inputs": [
        {
          "internalType": "string",
          "name": "str",
          "type": "string"
        }
      ],
      "name": "StringTooLong",
      "type": "error"
    },
    {
      "anonymous": false,
      "inputs": [
        {
          "indexed": true,
          "internalType": "address",
          "name": "owner",
          "type": "address"
        },
        {
          "indexed": true,
          "internalType": "address",
          "name": "spender",
          "type": "address"
        },
        {
          "indexed": false,
          "internalType": "uint256",
          "name": "value",
          "type": "uint256"
        }
      ],
      "name": "Approval",
      "type": "event"
    },
    {
      "anonymous": false,
      "inputs": [],
      "name": "EIP712DomainChanged",
      "type": "event"
    },
    {
      "anonymous": false,
      "inputs": [
        {
          "indexed": true,
          "internalType": "address",
          "name": "previousOwner",
          "type": "address"
        },
        {
          "indexed": true,
          "internalType": "address",
          "name": "newOwner",
          "type": "address"
        }
      ],
      "name": "OwnershipTransferred",
      "type": "event"
    },
    {
      "anonymous": false,
      "inputs": [
        {
          "indexed": false,
          "internalType": "address",
          "name": "account",
          "type": "address"
        }
      ],
      "name": "Paused",
      "type": "event"
    },
    {
      "anonymous": false,
      "inputs": [
        {
          "indexed": true,
          "internalType": "address",
          "name": "from",
          "type": "address"
        },
        {
          "indexed": true,
          "internalType": "address",
          "name": "to",
          "type": "address"
        },
        {
          "indexed": false,
          "internalType": "uint256",
          "name": "value",
          "type": "uint256"
        }
      ],
      "name": "Transfer",
      "type": "event"
    },
    {
      "anonymous": false,
      "inputs": [
        {
          "indexed": false,
          "internalType": "address",
          "name": "account",
          "type": "address"
        }
      ],
      "name": "Unpaused",
      "type": "event"
    },
    {
      "inputs": [],
      "name": "DOMAIN_SEPARATOR",
      "outputs": [
        {
          "internalType": "bytes32",
          "name": "",
          "type": "bytes32"
        }
      ],
      "stateMutability": "view",
      "type": "function"
    },
    {
      "inputs": [
        {
          "internalType": "address",
          "name": "owner",
          "type": "address"
        },
        {
          "internalType": "address",
          "name": "spender",
          "type": "address"
        }
      ],
      "name": "allowance",
      "outputs": [
        {
          "internalType": "uint256",
          "name": "",
          "type": "uint256"
        }
      ],
      "stateMutability": "view",
      "type": "function"
    },
    {
      "inputs": [
        {
          "internalType": "address",
          "name": "spender",
          "type": "address"
        },
        {
          "internalType": "uint256",
          "name": "value",
          "type": "uint256"
        }
      ],
      "name": "approve",
      "outputs": [
        {
          "internalType": "bool",
          "name": "",
          "type": "bool"
        }
      ],
      "stateMutability": "nonpayable",
      "type": "function"
    },
    {
      "inputs": [
        {
          "internalType": "address",
          "name": "account",
          "type": "address"
        }
      ],
      "name": "balanceOf",
      "outputs": [
        {
          "internalType": "uint256",
          "name": "",
          "type": "uint256"
        }
      ],
      "stateMutability": "view",
      "type": "function"
    },
    {
      "inputs": [],
      "name": "decimals",
      "outputs": [
        {
          "internalType": "uint8",
          "name": "",
          "type": "uint8"
        }
      ],
      "stateMutability": "view",
      "type": "function"
    },
    {
      "inputs": [],
      "name": "eip712Domain",
      "outputs": [
        {
          "internalType": "bytes1",
          "name": "fields",
          "type": "bytes1"
        },
        {
          "internalType": "string",
          "name": "name",
          "type": "string"
        },
        {
          "internalType": "string",
          "name": "version",
          "type": "string"
        },
        {
          "internalType": "uint256",
          "name": "chainId",
          "type": "uint256"
        },
        {
          "internalType": "address",
          "name": "verifyingContract",
          "type": "address"
        },
        {
          "internalType": "bytes32",
          "name": "salt",
          "type": "bytes32"
        },
        {
          "internalType": "uint256[]",
          "name": "extensions",
          "type": "uint256[]"
        }
      ],
      "stateMutability": "view",
      "type": "function"
    },
    {
      "inputs": [
        {
          "internalType": "address",
          "name": "to",
          "type": "address"
        },
        {
          "internalType": "uint256",
          "name": "amount",
          "type": "uint256"
        }
      ],
      "name": "mint",
      "outputs": [],
      "stateMutability": "nonpayable",
      "type": "function"
    },
    {
      "inputs": [],
      "name": "name",
      "outputs": [
        {
          "internalType": "string",
          "name": "",
          "type": "string"
        }
      ],
      "stateMutability": "view",
      "type": "function"
    },
    {
      "inputs": [
        {
          "internalType": "address",
          "name": "owner",
          "type": "address"
        }
      ],
      "name": "nonces",
      "outputs": [
        {
          "internalType": "uint256",
          "name": "",
          "type": "uint256"
        }
      ],
      "stateMutability": "view",
      "type": "function"
    },
    {
      "inputs": [],
      "name": "owner",
      "outputs": [
        {
          "internalType": "address",
          "name": "",
          "type": "address"
        }
      ],
      "stateMutability": "view",
      "type": "function"
    },
    {
      "inputs": [],
      "name": "pause",
      "outputs": [],
      "stateMutability": "nonpayable",
      "type": "function"
    },
    {
      "inputs": [],
      "name": "paused",
      "outputs": [
        {
          "internalType": "bool",
          "name": "",
          "type": "bool"
        }
      ],
      "stateMutability": "view",
      "type": "function"
    },
    {
      "inputs": [
        {
          "internalType": "address",
          "name": "owner",
          "type": "address"
        },
        {
          "internalType": "address",
          "name": "spender",
          "type": "address"
        },
        {
          "internalType": "uint256",
          "name": "value",
          "type": "uint256"
        },
        {
          "internalType": "uint256",
          "name": "deadline",
          "type": "uint256"
        },
        {
          "internalType": "uint8",
          "name": "v",
          "type": "uint8"
        },
        {
          "internalType": "bytes32",
          "name": "r",
          "type": "bytes32"
        },
        {
          "internalType": "bytes32",
          "name": "s",
          "type": "bytes32"
        }
      ],
      "name": "permit",
      "outputs": [],
      "stateMutability": "nonpayable",
      "type": "function"
    },
    {
      "inputs": [],
      "name": "renounceOwnership",
      "outputs": [],
      "stateMutability": "nonpayable",
      "type": "function"
    },
    {
      "inputs": [],
      "name": "symbol",
      "outputs": [
        {
          "internalType": "string",
          "name": "",
          "type": "string"
        }
      ],
      "stateMutability": "view",
      "type": "function"
    },
    {
      "inputs": [],
      "name": "totalSupply",
      "outputs": [
        {
          "internalType": "uint256",
          "name": "",
          "type": "uint256"
        }
      ],
      "stateMutability": "view",
      "type": "function"
    },
    {
      "inputs": [
        {
          "internalType": "address",
          "name": "to",
          "type": "address"
        },
        {
          "internalType": "uint256",
          "name": "value",
          "type": "uint256"
        }
      ],
      "name": "transfer",
      "outputs": [
        {
          "internalType": "bool",
          "name": "",
          "type": "bool"
        }
      ],
      "stateMutability": "nonpayable",
      "type": "function"
    },
    {
      "inputs": [
        {
          "internalType": "address",
          "name": "from",
          "type": "address"
        },
        {
          "internalType": "address",
          "name": "to",
          "type": "address"
        },
        {
          "internalType": "uint256",
          "name": "value",
          "type": "uint256"
        }
      ],
      "name": "transferFrom",
      "outputs": [
        {
          "internalType": "bool",
          "name": "",
          "type": "bool"
        }
      ],
      "stateMutability": "nonpayable",
      "type": "function"
    },
    {
      "inputs": [
        {
          "internalType": "address",
          "name": "newOwner",
          "type": "address"
        }
      ],
      "name": "transferOwnership",
      "outputs": [],
      "stateMutability": "nonpayable",
      "type": "function"
    },
    {
      "inputs": [],
      "name": "unpause",
      "outputs": [],
      "stateMutability": "nonpayable",
      "type": "function"
    }
  ],
  "bytecode": "0x6101606040523480156200001257600080fd5b50604051806040016040528060098152602001683330b739aa37b5b2b760b91b81525080604051806040016040528060018152602001603160f81b81525033604051806040016040528060098152602001683330b739aa37b5b2b760b91b81525060405180604001604052806002815260200161119560f21b81525081600390816200009f919062000519565b506004620000ae828262000519565b50506005805460ff19169055506001600160a01b038116620000eb57604051631e4fbdf760e01b8152600060048201526024015b60405180910390fd5b620000f681620001de565b506200010482600662000238565b610120526200011581600762000238565b61014052815160208084019190912060e052815190820120610100524660a052620001a360e05161010051604080517f8b73c3c69bb8fe3d512ecc4cf759cc79239f7b179b0ffacaa9a75d522b39400f60208201529081019290925260608201524660808201523060a082015260009060c00160405160208183030381529060405280519060200120905090565b60805250503060c05250620001d833620001c06012600a620006f8565b620001d2906509184e72a00062000710565b62000271565b620007b5565b600580546001600160a01b03838116610100818102610100600160a81b031985161790945560405193909204169182907f8be0079c531659141344cd1fd0a4f28419497f9722a3daafe3b4186f6b6457e090600090a35050565b600060208351101562000258576200025083620002af565b90506200026b565b8162000265848262000519565b5060ff90505b92915050565b6001600160a01b0382166200029d5760405163ec442f0560e01b815260006004820152602401620000e2565b620002ab60008383620002f2565b5050565b600080829050601f81511115620002dd578260405163305a27a960e01b8152600401620000e291906200072a565b8051620002ea826200077a565b179392505050565b620002ff83838362000304565b505050565b6200030e6200031b565b620002ff83838362000342565b60055460ff1615620003405760405163d93c066560e01b815260040160405180910390fd5b565b6001600160a01b038316620003715780600260008282546200036591906200079f565b90915550620003e59050565b6001600160a01b03831660009081526020819052604090205481811015620003c65760405163391434e360e21b81526001600160a01b03851660048201526024810182905260448101839052606401620000e2565b6001600160a01b03841660009081526020819052604090209082900390555b6001600160a01b038216620004035760028054829003905562000422565b6001600160a01b03821660009081526020819052604090208054820190555b816001600160a01b0316836001600160a01b03167fddf252ad1be2c89b69c2b068fc378daa952ba7f163c4a11628f55a4df523b3ef836040516200046891815260200190565b60405180910390a3505050565b634e487b7160e01b600052604160045260246000fd5b600181811c90821680620004a057607f821691505b602082108103620004c157634e487b7160e01b600052602260045260246000fd5b50919050565b601f821115620002ff57600081815260208120601f850160051c81016020861015620004f05750805b601f850160051c820191505b818110156200051157828155600101620004fc565b505050505050565b81516001600160401b0381111562000535576200053562000475565b6200054d816200054684546200048b565b84620004c7565b602080601f8311600181146200058557600084156200056c5750858301515b600019600386901b1c1916600185901b17855562000511565b600085815260208120601f198616915b82811015620005b65788860151825594840194600190910190840162000595565b5085821015620005d55787850151600019600388901b60f8161c191681555b5050505050600190811b01905550565b634e487b7160e01b600052601160045260246000fd5b600181815b808511156200063c578160001904821115620006205762000620620005e5565b808516156200062e57918102915b93841c939080029062000600565b509250929050565b60008262000655575060016200026b565b8162000664575060006200026b565b81600181146200067d57600281146200068857620006a8565b60019150506200026b565b60ff8411156200069c576200069c620005e5565b50506001821b6200026b565b5060208310610133831016604e8410600b8410161715620006cd575081810a6200026b565b620006d98383620005fb565b8060001904821115620006f057620006f0620005e5565b029392505050565b60006200070960ff84168362000644565b9392505050565b80820281158282048414176200026b576200026b620005e5565b600060208083528351808285015260005b8181101562000759578581018301518582016040015282016200073b565b506000604082860101526040601f19601f8301168501019250505092915050565b80516020808301519190811015620004c15760001960209190910360031b1b16919050565b808201808211156200026b576200026b620005e5565b60805160a05160c05160e051610100516101205161014051611427620008106000396000610ab001526000610a83015260006108a901526000610881015260006107dc015260006108060152600061083001526114276000f3fe608060405234801561001057600080fd5b506004361061016c5760003560e01c8063715018a6116100cd57806395d89b4111610081578063d505accf11610066578063d505accf146102c1578063dd62ed3e146102d4578063f2fde38b1461030d57600080fd5b806395d89b41146102a6578063a9059cbb146102ae57600080fd5b80638456cb59116100b25780638456cb591461025a57806384b0196e146102625780638da5cb5b1461027d57600080fd5b8063715018a61461023f5780637ecebe001461024757600080fd5b80633644e5151161012457806340c10f191161010957806340c10f19146101f85780635c975abb1461020b57806370a082311461021657600080fd5b80633644e515146101e65780633f4ba83a146101ee57600080fd5b806318160ddd1161015557806318160ddd146101b257806323b872dd146101c4578063313ce567146101d757600080fd5b806306fdde0314610171578063095ea7b31461018f575b600080fd5b610179610320565b6040516101869190611171565b60405180910390f35b6101a261019d3660046111a7565b6103b2565b6040519015158152602001610186565b6002545b604051908152602001610186565b6101a26101d23660046111d1565b6103cc565b60405160128152602001610186565b6101b66103f0565b6101f66103ff565b005b6101f66102063660046111a7565b610411565b60055460ff166101a2565b6101b661022436600461120d565b6001600160a01b031660009081526020819052604090205490565b6101f6610427565b6101b661025536600461120d565b610439565b6101f6610457565b61026a610467565b6040516101869796959493929190611228565b60055461010090046001600160a01b03166040516001600160a01b039091168152602001610186565b6101796104c9565b6101a26102bc3660046111a7565b6104d8565b6101f66102cf3660046112da565b6104e6565b6101b66102e236600461134d565b6001600160a01b03918216600090815260016020908152604080832093909416825291909152205490565b6101f661031b36600461120d565b610657565b60606003805461032f90611380565b80601f016020809104026020016040519081016040528092919081815260200182805461035b90611380565b80156103a85780601f1061037d576101008083540402835291602001916103a8565b820191906000526020600020905b81548152906001019060200180831161038b57829003601f168201915b5050505050905090565b6000336103c08185856106ae565b60019150505b92915050565b6000336103da8582856106c0565b6103e5858585610757565b506001949350505050565b60006103fa6107cf565b905090565b6104076108fa565b61040f610946565b565b6104196108fa565b6104238282610998565b5050565b61042f6108fa565b61040f60006109ce565b6001600160a01b0381166000908152600860205260408120546103c6565b61045f6108fa565b61040f610a3f565b60006060806000806000606061047b610a7c565b610483610aa9565b604080516000808252602082019092527f0f000000000000000000000000000000000000000000000000000000000000009b939a50919850469750309650945092509050565b60606004805461032f90611380565b6000336103c0818585610757565b83421115610528576040517f62791302000000000000000000000000000000000000000000000000000000008152600481018590526024015b60405180910390fd5b60007f6e71edae12b1b97f4d1f60370fef10105fa2faae0126114a169c64845d6126c98888886105758c6001600160a01b0316600090815260086020526040902080546001810190915590565b6040805160208101969096526001600160a01b0394851690860152929091166060840152608083015260a082015260c0810186905260e00160405160208183030381529060405280519060200120905060006105d082610ad6565b905060006105e082878787610b1e565b9050896001600160a01b0316816001600160a01b031614610640576040517f4b800e460000000000000000000000000000000000000000000000000000000081526001600160a01b0380831660048301528b16602482015260440161051f565b61064b8a8a8a6106ae565b50505050505050505050565b61065f6108fa565b6001600160a01b0381166106a2576040517f1e4fbdf70000000000000000000000000000000000000000000000000000000081526000600482015260240161051f565b6106ab816109ce565b50565b6106bb8383836001610b4c565b505050565b6001600160a01b0383811660009081526001602090815260408083209386168352929052205460001981146107515781811015610742576040517ffb8f41b20000000000000000000000000000000000000000000000000000000081526001600160a01b0384166004820152602481018290526044810183905260640161051f565b61075184848484036000610b4c565b50505050565b6001600160a01b03831661079a576040517f96c6fd1e0000000000000000000000000000000000000000000000000000000081526000600482015260240161051f565b6001600160a01b0382166107c45760405163ec442f0560e01b81526000600482015260240161051f565b6106bb838383610c53565b6000306001600160a01b037f00000000000000000000000000000000000000000000000000000000000000001614801561082857507f000000000000000000000000000000000000000000000000000000000000000046145b1561085257507f000000000000000000000000000000000000000000000000000000000000000090565b6103fa604080517f8b73c3c69bb8fe3d512ecc4cf759cc79239f7b179b0ffacaa9a75d522b39400f60208201527f0000000000000000000000000000000000000000000000000000000000000000918101919091527f000000000000000000000000000000000000000000000000000000000000000060608201524660808201523060a082015260009060c00160405160208183030381529060405280519060200120905090565b6005546001600160a01b0361010090910416331461040f576040517f118cdaa700000000000000000000000000000000000000000000000000000000815233600482015260240161051f565b61094e610c5e565b6005805460ff191690557f5db9ee0a495bf2e6ff9c91a7834c1ba4fdd244a5e8aa4e537bd38aeae4b073aa335b6040516001600160a01b03909116815260200160405180910390a1565b6001600160a01b0382166109c25760405163ec442f0560e01b81526000600482015260240161051f565b61042360008383610c53565b600580546001600160a01b038381166101008181027fffffffffffffffffffffff0000000000000000000000000000000000000000ff85161790945560405193909204169182907f8be0079c531659141344cd1fd0a4f28419497f9722a3daafe3b4186f6b6457e090600090a35050565b610a47610c9a565b6005805460ff191660011790557f62e78cea01bee320cd4e420270b5ea74000d11b0c9f74754ebdbfc544b05a25861097b3390565b60606103fa7f00000000000000000000000000000000000000000000000000000000000000006006610cd7565b60606103fa7f00000000000000000000000000000000000000000000000000000000000000006007610cd7565b60006103c6610ae36107cf565b836040517f19010000000000000000000000000000000000000000000000000000000000008152600281019290925260228201526042902090565b600080600080610b3088888888610d82565b925092509250610b408282610e51565b50909695505050505050565b6001600160a01b038416610b8f576040517fe602df050000000000000000000000000000000000000000000000000000000081526000600482015260240161051f565b6001600160a01b038316610bd2576040517f94280d620000000000000000000000000000000000000000000000000000000081526000600482015260240161051f565b6001600160a01b038085166000908152600160209081526040808320938716835292905220829055801561075157826001600160a01b0316846001600160a01b03167f8c5be1e5ebec7d5bd14f71427d1e84f3dd0314c0f7b2291e5b200ac8c7c3b92584604051610c4591815260200190565b60405180910390a350505050565b6106bb838383610f55565b60055460ff1661040f576040517f8dfc202b00000000000000000000000000000000000000000000000000000000815260040160405180910390fd5b60055460ff161561040f576040517fd93c066500000000000000000000000000000000000000000000000000000000815260040160405180910390fd5b606060ff8314610cf157610cea83610f68565b90506103c6565b818054610cfd90611380565b80601f0160208091040260200160405190810160405280929190818152602001828054610d2990611380565b8015610d765780601f10610d4b57610100808354040283529160200191610d76565b820191906000526020600020905b815481529060010190602001808311610d5957829003601f168201915b505050505090506103c6565b600080807f7fffffffffffffffffffffffffffffff5d576e7357a4501ddfe92f46681b20a0841115610dbd5750600091506003905082610e47565b604080516000808252602082018084528a905260ff891692820192909252606081018790526080810186905260019060a0016020604051602081039080840390855afa158015610e11573d6000803e3d6000fd5b5050604051601f1901519150506001600160a01b038116610e3d57506000925060019150829050610e47565b9250600091508190505b9450945094915050565b6000826003811115610e6557610e656113ba565b03610e6e575050565b6001826003811115610e8257610e826113ba565b03610eb9576040517ff645eedf00000000000000000000000000000000000000000000000000000000815260040160405180910390fd5b6002826003811115610ecd57610ecd6113ba565b03610f07576040517ffce698f70000000000000000000000000000000000000000000000000000000081526004810182905260240161051f565b6003826003811115610f1b57610f1b6113ba565b03610423576040517fd78bce0c0000000000000000000000000000000000000000000000000000000081526004810182905260240161051f565b610f5d610c9a565b6106bb838383610fa7565b60606000610f75836110ea565b604080516020808252818301909252919250600091906020820181803683375050509182525060208101929092525090565b6001600160a01b038316610fd2578060026000828254610fc791906113d0565b9091555061105d9050565b6001600160a01b0383166000908152602081905260409020548181101561103e576040517fe450d38c0000000000000000000000000000000000000000000000000000000081526001600160a01b0385166004820152602481018290526044810183905260640161051f565b6001600160a01b03841660009081526020819052604090209082900390555b6001600160a01b03821661107957600280548290039055611098565b6001600160a01b03821660009081526020819052604090208054820190555b816001600160a01b0316836001600160a01b03167fddf252ad1be2c89b69c2b068fc378daa952ba7f163c4a11628f55a4df523b3ef836040516110dd91815260200190565b60405180910390a3505050565b600060ff8216601f8111156103c6576040517fb3512b0c00000000000000000000000000000000000000000000000000000000815260040160405180910390fd5b6000815180845260005b8181101561115157602081850181015186830182015201611135565b506000602082860101526020601f19601f83011685010191505092915050565b602081526000611184602083018461112b565b9392505050565b80356001600160a01b03811681146111a257600080fd5b919050565b600080604083850312156111ba57600080fd5b6111c38361118b565b946020939093013593505050565b6000806000606084860312156111e657600080fd5b6111ef8461118b565b92506111fd6020850161118b565b9150604084013590509250925092565b60006020828403121561121f57600080fd5b6111848261118b565b7fff00000000000000000000000000000000000000000000000000000000000000881681526000602060e08184015261126460e084018a61112b565b8381036040850152611276818a61112b565b606085018990526001600160a01b038816608086015260a0850187905284810360c0860152855180825283870192509083019060005b818110156112c8578351835292840192918401916001016112ac565b50909c9b505050505050505050505050565b600080600080600080600060e0888a0312156112f557600080fd5b6112fe8861118b565b965061130c6020890161118b565b95506040880135945060608801359350608088013560ff8116811461133057600080fd5b9699959850939692959460a0840135945060c09093013592915050565b6000806040838503121561136057600080fd5b6113698361118b565b91506113776020840161118b565b90509250929050565b600181811c9082168061139457607f821691505b6020821081036113b457634e487b7160e01b600052602260045260246000fd5b50919050565b634e487b7160e01b600052602160045260246000fd5b808201808211156103c657634e487b7160e01b600052601160045260246000fdfea26469706673582212205d50d760629f23a91e47dd9cb79d516723b0d3c657d95b85aeb170536fdc937c64736f6c63430008140033",
  "linkReferences": {},
  "deployedLinkReferences": {}
}