{
  "_format": "hh-sol-artifact-1",
  "contractName": "EventFactory",
  "sourceName": "contracts/Event.sol",
  "abi": [
    {
      "inputs": [
        {
          "internalType": "address",
          "name": "presale_addr_",
          "type": "address"
        },
        {
          "internalType": "address",
          "name": "market_addr_",
          "type": "address"
        }
      ],
      "stateMutability": "nonpayable",
      "type": "constructor"
    },
    {
      "anonymous": false,
      "inputs": [
        {
          "indexed": false,
          "internalType": "address",
          "name": "",
          "type": "address"
        }
      ],
      "name": "EventCreated",
      "type": "event"
    },
    {
      "inputs": [
        {
          "internalType": "string",
          "name": "name",
          "type": "string"
        },
        {
          "internalType": "string",
          "name": "symbol",
          "type": "string"
        },
        {
          "internalType": "uint256",
          "name": "max_tickets",
          "type": "uint256"
        },
        {
          "internalType": "uint256",
          "name": "max_presale",
          "type": "uint256"
        }
      ],
      "name": "createEvent",
      "outputs": [],
      "stateMutability": "nonpayable",
      "type": "function"
    },
    {
      "inputs": [
        {
          "internalType": "uint256",
          "name": "",
          "type": "uint256"
        }
      ],
      "name": "events",
      "outputs": [
        {
          "internalType": "address",
          "name": "",
          "type": "address"
        }
      ],
      "stateMutability": "view",
      "type": "function"
    },
    {
      "inputs": [],
      "name": "getDeployEvents",
      "outputs": [
        {
          "internalType": "address[]",
          "name": "",
          "type": "address[]"
        }
      ],
      "stateMutability": "view",
      "type": "function"
    },
    {
      "inputs": [],
      "name": "market_addr",
      "outputs": [
        {
          "internalType": "address",
          "name": "",
          "type": "address"
        }
      ],
      "stateMutability": "view",
      "type": "function"
    },
    {
      "inputs": [],
      "name": "presale_addr",
      "outputs": [
        {
          "internalType": "address",
          "name": "",
          "type": "address"
        }
      ],
      "stateMutability": "view",
      "type": "function"
    }
  ],
  "bytecode": "0x6080604052600180546001600160a01b031990811690915560028054909116905534801561002c57600080fd5b506040516143fc3803806143fc83398101604081905261004b91610098565b600180546001600160a01b039384166001600160a01b031991821617909155600280549290931691161790556100cb565b80516001600160a01b038116811461009357600080fd5b919050565b600080604083850312156100ab57600080fd5b6100b48361007c565b91506100c26020840161007c565b90509250929050565b614322806100da6000396000f3fe608060405234801561001057600080fd5b50600436106100675760003560e01c8063bce062b911610050578063bce062b9146100af578063d4646e17146100c4578063e1352d70146100d957600080fd5b80630b7914301461006c57806368024d3f1461009c575b600080fd5b61007f61007a366004610280565b6100ec565b6040516001600160a01b0390911681526020015b60405180910390f35b60015461007f906001600160a01b031681565b6100c26100bd366004610355565b610116565b005b6100cc610210565b60405161009391906103c9565b60025461007f906001600160a01b031681565b600081815481106100fc57600080fd5b6000918252602090912001546001600160a01b0316905081565b6001546002546040516000926001600160a01b039081169216908790879033908890889061014390610272565b6101539796959493929190610463565b604051809103906000f08015801561016f573d6000803e3d6000fd5b50600080546001810182559080527f290decd9548b62a8d60345a988386fc84ba6bc95484008f6362f93160ef3e5630180547fffffffffffffffffffffffff0000000000000000000000000000000000000000166001600160a01b0383169081179091556040519081529091507ffc8a4c0621b9788c4dbe57053a51ce2d22625a067d039f38004df2a07ca755a49060200160405180910390a15050505050565b6060600080548060200260200160405190810160405280929190818152602001828054801561026857602002820191906000526020600020905b81546001600160a01b0316815260019091019060200180831161024a575b5050505050905090565b613e2d80620004c083390190565b60006020828403121561029257600080fd5b5035919050565b7f4e487b7100000000000000000000000000000000000000000000000000000000600052604160045260246000fd5b600082601f8301126102d957600080fd5b813567ffffffffffffffff808211156102f4576102f4610299565b604051601f8301601f19908116603f0116810190828211818310171561031c5761031c610299565b8160405283815286602085880101111561033557600080fd5b836020870160208301376000602085830101528094505050505092915050565b6000806000806080858703121561036b57600080fd5b843567ffffffffffffffff8082111561038357600080fd5b61038f888389016102c8565b955060208701359150808211156103a557600080fd5b506103b2878288016102c8565b949794965050505060408301359260600135919050565b6020808252825182820181905260009190848201906040850190845b8181101561040a5783516001600160a01b0316835292840192918401916001016103e5565b50909695505050505050565b6000815180845260005b8181101561043c57602081850181015186830182015201610420565b8181111561044e576000602083870101525b50601f01601f19169290920160200192915050565b60006001600160a01b03808a168352808916602084015260e0604084015261048e60e0840189610416565b83810360608501526104a08189610416565b91909616608084015260a08301949094525060c001529594505050505056fe6080604052600019600b55600060115560006013553480156200002157600080fd5b5060405162003e2d38038062003e2d8339810160408190526200004491620002ef565b8451859085906200005d9060009060208501906200015f565b508051620000739060019060208401906200015f565b50506006805460ff1916905550600c80546001600160a01b03808a166001600160a01b03199283168117909355600d8054918a1691831682179055600780548316841790556012805490921617905560405163705fdf3d60e01b815263705fdf3d90620000e890849060040190815260200190565b600060405180830381600087803b1580156200010357600080fd5b505af115801562000118573d6000803e3d6000fd5b505050600f9290925550506000600955600b54601055600680546001600160a01b0390921661010002610100600160a81b031990921691909117905550620003e292505050565b8280546200016d90620003a5565b90600052602060002090601f016020900481019282620001915760008555620001dc565b82601f10620001ac57805160ff1916838001178555620001dc565b82800160010185558215620001dc579182015b82811115620001dc578251825591602001919060010190620001bf565b50620001ea929150620001ee565b5090565b5b80821115620001ea5760008155600101620001ef565b80516001600160a01b03811681146200021d57600080fd5b919050565b634e487b7160e01b600052604160045260246000fd5b600082601f8301126200024a57600080fd5b81516001600160401b038082111562000267576200026762000222565b604051601f8301601f19908116603f0116810190828211818310171562000292576200029262000222565b81604052838152602092508683858801011115620002af57600080fd5b600091505b83821015620002d35785820183015181830184015290820190620002b4565b83821115620002e55760008385830101525b9695505050505050565b600080600080600080600060e0888a0312156200030b57600080fd5b620003168862000205565b9650620003266020890162000205565b60408901519096506001600160401b03808211156200034457600080fd5b620003528b838c0162000238565b965060608a01519150808211156200036957600080fd5b50620003788a828b0162000238565b945050620003896080890162000205565b925060a0880151915060c0880151905092959891949750929550565b600181811c90821680620003ba57607f821691505b60208210811415620003dc57634e487b7160e01b600052602260045260246000fd5b50919050565b613a3b80620003f26000396000f3fe6080604052600436106102d15760003560e01c80636352211e11610179578063af1c5211116100d6578063d5c956941161008a578063ea8a1af011610064578063ea8a1af01461084a578063f207564e1461085f578063fb1ceb751461087257600080fd5b8063d5c95694146107be578063d93580ff146107d4578063e985e9c51461080157600080fd5b8063c0fd2c8b116100bb578063c0fd2c8b1461076b578063c5e837c71461078b578063c87b56dd1461079e57600080fd5b8063af1c52111461072b578063b88d4fde1461074b57600080fd5b80638da5cb5b1161012d578063a22cb46511610112578063a22cb465146106d8578063a2b1b71e146106f8578063a9059cbb1461070b57600080fd5b80638da5cb5b146106a057806395d89b41146106c357600080fd5b8063786f29101161015e578063786f2910146106175780638456cb591461062c57806384ed8c561461064157600080fd5b80636352211e146105c957806370a08231146105e957600080fd5b80633f4ba83a1161023257806346712257116101e657806350b44712116101c057806350b447121461051d5780635ad95a69146105915780635c975abb146105b157600080fd5b806346712257146104c65780634e71d92d146104e85780634f558e79146104fd57600080fd5b8063410085df11610217578063410085df1461046657806342842e0e1461048657806342966c68146104a657600080fd5b80633f4ba83a1461043157806340c10f191461044657600080fd5b806321f2fc3d1161028957806325b6fe0c1161026e57806325b6fe0c146103e757806338853d53146103fc5780633ccfd60b1461041c57600080fd5b806321f2fc3d146103a757806323b872dd146103c757600080fd5b8063081812fc116102ba578063081812fc1461032d578063095ea7b3146103655780631aef4b051461038757600080fd5b806301ffc9a7146102d657806306fdde031461030b575b600080fd5b3480156102e257600080fd5b506102f66102f136600461325c565b610888565b60405190151581526020015b60405180910390f35b34801561031757600080fd5b50610320610925565b60405161030291906132d1565b34801561033957600080fd5b5061034d6103483660046132e4565b6109b7565b6040516001600160a01b039091168152602001610302565b34801561037157600080fd5b50610385610380366004613312565b6109de565b005b34801561039357600080fd5b506103856103a236600461333e565b610b15565b3480156103b357600080fd5b506103856103c23660046132e4565b610bdd565b3480156103d357600080fd5b506103856103e2366004613376565b610c65565b3480156103f357600080fd5b50610385610cdd565b34801561040857600080fd5b506103856104173660046133a6565b610d95565b34801561042857600080fd5b50610385610dfe565b34801561043d57600080fd5b50610385610e84565b34801561045257600080fd5b50610385610461366004613312565b610edc565b34801561047257600080fd5b50610385610481366004613312565b610f36565b34801561049257600080fd5b506103856104a1366004613376565b611079565b3480156104b257600080fd5b506103856104c13660046132e4565b611094565b3480156104d257600080fd5b506104db61110b565b60405161030291906133d2565b3480156104f457600080fd5b506103856111a9565b34801561050957600080fd5b506102f66105183660046132e4565b611285565b34801561052957600080fd5b506105686105383660046132e4565b600e602052600090815260409020805460018201546002830154600390930154919290916001600160a01b031684565b604080519485526020850193909352918301526001600160a01b03166060820152608001610302565b34801561059d57600080fd5b506103856105ac3660046132e4565b6112a4565b3480156105bd57600080fd5b5060065460ff166102f6565b3480156105d557600080fd5b5061034d6105e43660046132e4565b611354565b3480156105f557600080fd5b50610609610604366004613416565b6113b9565b604051908152602001610302565b34801561062357600080fd5b50610320611453565b34801561063857600080fd5b506103856114e1565b34801561064d57600080fd5b5061068161065c3660046132e4565b600860205260009081526040902080546001909101546001600160a01b039091169082565b604080516001600160a01b039093168352602083019190915201610302565b3480156106ac57600080fd5b5060065461010090046001600160a01b031661034d565b3480156106cf57600080fd5b50610320611537565b3480156106e457600080fd5b506103856106f3366004613441565b611546565b6103856107063660046132e4565b611551565b34801561071757600080fd5b50610385610726366004613312565b611a13565b34801561073757600080fd5b50610385610746366004613519565b611a8f565b34801561075757600080fd5b50610385610766366004613562565b611af0565b34801561077757600080fd5b506103856107863660046133a6565b611b68565b610385610799366004613671565b611d95565b3480156107aa57600080fd5b506103206107b93660046132e4565b61227d565b3480156107ca57600080fd5b50610609600f5481565b3480156107e057600080fd5b506106096107ef3660046132e4565b6000908152600e602052604090205490565b34801561080d57600080fd5b506102f661081c3660046136d5565b6001600160a01b03918216600090815260056020908152604080832093909416825291909152205460ff1690565b34801561085657600080fd5b506103856122e4565b61038561086d3660046132e4565b61243c565b34801561087e57600080fd5b5061060960115481565b60006001600160e01b031982167f80ac58cd0000000000000000000000000000000000000000000000000000000014806108eb57506001600160e01b031982167f5b5e139f00000000000000000000000000000000000000000000000000000000145b8061091f57507f01ffc9a7000000000000000000000000000000000000000000000000000000006001600160e01b03198316145b92915050565b60606000805461093490613703565b80601f016020809104026020016040519081016040528092919081815260200182805461096090613703565b80156109ad5780601f10610982576101008083540402835291602001916109ad565b820191906000526020600020905b81548152906001019060200180831161099057829003601f168201915b5050505050905090565b60006109c282612601565b506000908152600460205260409020546001600160a01b031690565b60006109e982611354565b9050806001600160a01b0316836001600160a01b03161415610a785760405162461bcd60e51b815260206004820152602160248201527f4552433732313a20617070726f76616c20746f2063757272656e74206f776e6560448201527f720000000000000000000000000000000000000000000000000000000000000060648201526084015b60405180910390fd5b336001600160a01b0382161480610a945750610a94813361081c565b610b065760405162461bcd60e51b815260206004820152603d60248201527f4552433732313a20617070726f76652063616c6c6572206973206e6f7420746f60448201527f6b656e206f776e6572206f7220617070726f76656420666f7220616c6c0000006064820152608401610a6f565b610b108383612665565b505050565b6006546001600160a01b03610100909104163314610b635760405162461bcd60e51b815260206004820152600b60248201526a3737ba1036b0b730b3b2b960a91b6044820152606401610a6f565b6000838152600860205260409020546001600160a01b0316610b955760098054906000610b8f8361374e565b91905055505b6040805180820182526001600160a01b03938416815260208082019384526000958652600890529320925183546001600160a01b031916921691909117825551600190910155565b6006546001600160a01b03610100909104163314610c2b5760405162461bcd60e51b815260206004820152600b60248201526a3737ba1036b0b730b3b2b960a91b6044820152606401610a6f565b60005b600f54811015610c61576000818152600e6020526040902082815560010182905580610c598161374e565b915050610c2e565b5050565b610c70335b826126d3565b610cd25760405162461bcd60e51b815260206004820152602d60248201527f4552433732313a2063616c6c6572206973206e6f7420746f6b656e206f776e6560448201526c1c881bdc88185c1c1c9bdd9959609a1b6064820152608401610a6f565b610b10838383612752565b6006546001600160a01b03610100909104163314610d2b5760405162461bcd60e51b815260206004820152600b60248201526a3737ba1036b0b730b3b2b960a91b6044820152606401610a6f565b600760009054906101000a90046001600160a01b03166001600160a01b03166325b6fe0c6040518163ffffffff1660e01b8152600401600060405180830381600087803b158015610d7b57600080fd5b505af1158015610d8f573d6000803e3d6000fd5b50505050565b6006546001600160a01b03610100909104163314610de35760405162461bcd60e51b815260206004820152600b60248201526a3737ba1036b0b730b3b2b960a91b6044820152606401610a6f565b6000928352600e602052604090922081815560010155601155565b4760005b600954811015610c6157600081815260086020526040902080546001909101546001600160a01b03909116906108fc90606490610e3f9086613769565b610e499190613788565b6040518115909202916000818181858888f19350505050158015610e71573d6000803e3d6000fd5b5080610e7c8161374e565b915050610e02565b6006546001600160a01b03610100909104163314610ed25760405162461bcd60e51b815260206004820152600b60248201526a3737ba1036b0b730b3b2b960a91b6044820152606401610a6f565b610eda612958565b565b600c546001600160a01b0316331480610ef457503330145b610f2c5760405162461bcd60e51b81526020600482015260096024820152686e6f7420616c6c6f7760b81b6044820152606401610a6f565b610c6182826129aa565b6010544210610fad5760405162461bcd60e51b815260206004820152602160248201527f6576656e7420616c72656164792073746172742c2063616e277420726566756e60448201527f64000000000000000000000000000000000000000000000000000000000000006064820152608401610a6f565b33610fb782611354565b6001600160a01b03161480610fd65750600c546001600160a01b031633145b61100e5760405162461bcd60e51b81526020600482015260096024820152683737ba1037bbb732b960b91b6044820152606401610a6f565b6000818152600260205260409020546001600160a01b031661103357611033816129c4565b6000818152600e60205260408082206001015490516001600160a01b0385169282156108fc02929190818181858888f19350505050158015610b10573d6000803e3d6000fd5b610b1083838360405180602001604052806000815250611af0565b61109d33610c6a565b6110ff5760405162461bcd60e51b815260206004820152602d60248201527f4552433732313a2063616c6c6572206973206e6f7420746f6b656e206f776e6560448201526c1c881bdc88185c1c1c9bdd9959609a1b6064820152608401610a6f565b611108816129c4565b50565b60606000600f5467ffffffffffffffff81111561112a5761112a61347a565b604051908082528060200260200182016040528015611153578160200160208202803683370190505b50905060005b600f548110156111a3576000818152600e60205260409020548251839083908110611186576111866137aa565b60209081029190910101528061119b8161374e565b915050611159565b50919050565b60005b600f54811015611108576000818152600e60205260409020600301546001600160a01b0316331480156111fd57506011546000828152600e60205260409020600201546111f991906137c0565b4210155b15611273576040517f40c10f190000000000000000000000000000000000000000000000000000000081523360048201526024810182905230906340c10f1990604401600060405180830381600087803b15801561125a57600080fd5b505af115801561126e573d6000803e3d6000fd5b505050505b8061127d8161374e565b9150506111ac565b6000818152600260205260408120546001600160a01b0316151561091f565b6006546001600160a01b036101009091041633146112f25760405162461bcd60e51b815260206004820152600b60248201526a3737ba1036b0b730b3b2b960a91b6044820152606401610a6f565b806000108015611303575060198111155b61134f5760405162461bcd60e51b815260206004820152601c60248201527f70657263656e746167652073686f756c64203e30202626203c3d3235000000006044820152606401610a6f565b601355565b6000818152600260205260408120546001600160a01b03168061091f5760405162461bcd60e51b815260206004820152601860248201527f4552433732313a20696e76616c696420746f6b656e20494400000000000000006044820152606401610a6f565b60006001600160a01b0382166114375760405162461bcd60e51b815260206004820152602960248201527f4552433732313a2061646472657373207a65726f206973206e6f74206120766160448201527f6c6964206f776e657200000000000000000000000000000000000000000000006064820152608401610a6f565b506001600160a01b031660009081526003602052604090205490565b600a805461146090613703565b80601f016020809104026020016040519081016040528092919081815260200182805461148c90613703565b80156114d95780601f106114ae576101008083540402835291602001916114d9565b820191906000526020600020905b8154815290600101906020018083116114bc57829003601f168201915b505050505081565b6006546001600160a01b0361010090910416331461152f5760405162461bcd60e51b815260206004820152600b60248201526a3737ba1036b0b730b3b2b960a91b6044820152606401610a6f565b610eda612a67565b60606001805461093490613703565b610c61338383612aa4565b6012546040517fe133190e000000000000000000000000000000000000000000000000000000008152306004820152602481018390526001600160a01b039091169063e133190e9060440160206040518083038186803b1580156115b457600080fd5b505afa1580156115c8573d6000803e3d6000fd5b505050506040513d601f19601f820116820180604052508101906115ec91906137d8565b6116385760405162461bcd60e51b815260206004820152600b60248201527f6e6f74206c697374696e670000000000000000000000000000000000000000006044820152606401610a6f565b6012546040517f03f25a79000000000000000000000000000000000000000000000000000000008152306004820152602481018390526001600160a01b03909116906303f25a799060440160206040518083038186803b15801561169b57600080fd5b505afa1580156116af573d6000803e3d6000fd5b505050506040513d601f19601f820116820180604052508101906116d391906137f5565b3410156117225760405162461bcd60e51b815260206004820152601060248201527f6e6f7420656e6f756768206d6f6e6579000000000000000000000000000000006044820152606401610a6f565b6012546040517f0f43bc140000000000000000000000000000000000000000000000000000000081523060048201526024810183905260609182916000916001600160a01b031690630f43bc149060440160006040518083038186803b15801561178b57600080fd5b505afa15801561179f573d6000803e3d6000fd5b505050506040513d6000823e601f3d908101601f191682016040526117c79190810190613869565b9194509250905060005b8181101561186b578381815181106117eb576117eb6137aa565b60200260200101516001600160a01b03166108fc6064858481518110611813576118136137aa565b6020026020010151346118269190613769565b6118309190613788565b6040518115909202916000818181858888f19350505050158015611858573d6000803e3d6000fd5b50806118638161374e565b9150506117d1565b506012546040517f536fc65c000000000000000000000000000000000000000000000000000000008152306004820152602481018690526000916001600160a01b03169063536fc65c9060440160206040518083038186803b1580156118d057600080fd5b505afa1580156118e4573d6000803e3d6000fd5b505050506040513d601f19601f820116820180604052508101906119089190613937565b6012546040517f60a916fb00000000000000000000000000000000000000000000000000000000815230600482015260248101889052600060448201529192506001600160a01b0316906360a916fb90606401600060405180830381600087803b15801561197557600080fd5b505af1158015611989573d6000803e3d6000fd5b50506040517f42842e0e0000000000000000000000000000000000000000000000000000000081526001600160a01b0384166004820152336024820152604481018890523092506342842e0e9150606401600060405180830381600087803b1580156119f457600080fd5b505af1158015611a08573d6000803e3d6000fd5b505050505050505050565b600c546001600160a01b03163314611a595760405162461bcd60e51b81526020600482015260096024820152686e6f7420616c6c6f7760b81b6044820152606401610a6f565b6040516001600160a01b0383169082156108fc029083906000818181858888f19350505050158015610b10573d6000803e3d6000fd5b6006546001600160a01b03610100909104163314611add5760405162461bcd60e51b815260206004820152600b60248201526a3737ba1036b0b730b3b2b960a91b6044820152606401610a6f565b8051610c6190600a9060208401906131ad565b611afa33836126d3565b611b5c5760405162461bcd60e51b815260206004820152602d60248201527f4552433732313a2063616c6c6572206973206e6f7420746f6b656e206f776e6560448201526c1c881bdc88185c1c1c9bdd9959609a1b6064820152608401610a6f565b610d8f84848484612b73565b33611b7284611354565b6001600160a01b031614611bb45760405162461bcd60e51b81526020600482015260096024820152683737ba1037bbb732b960b91b6044820152606401610a6f565b6019811115611c055760405162461bcd60e51b815260206004820152601d60248201527f70657263656e746167652073686f756c64203e3d30202626203c3d32350000006044820152606401610a6f565b611c0f30846109de565b60135415611c8e57601254601354604051632aa727c960e01b8152306004820181905260248201879052604482015260648101919091526001600160a01b0390911690632aa727c990608401600060405180830381600087803b158015611c7557600080fd5b505af1158015611c89573d6000803e3d6000fd5b505050505b8015611d0657601254604051632aa727c960e01b815230600482015260248101859052336044820152606481018390526001600160a01b0390911690632aa727c990608401600060405180830381600087803b158015611ced57600080fd5b505af1158015611d01573d6000803e3d6000fd5b505050505b6012546040517f42cadb1800000000000000000000000000000000000000000000000000000000815233600482015230602482015260448101859052606481018490526001600160a01b03909116906342cadb1890608401600060405180830381600087803b158015611d7857600080fd5b505af1158015611d8c573d6000803e3d6000fd5b50505050505050565b6000805b835181101561203f57611ddc848281518110611db757611db76137aa565b60200260200101516000908152600260205260409020546001600160a01b0316151590565b15611e295760405162461bcd60e51b815260206004820152600b60248201527f746f6b656e2065786973740000000000000000000000000000000000000000006044820152606401610a6f565b600f54848281518110611e3e57611e3e6137aa565b602002602001015110611e935760405162461bcd60e51b815260206004820152600d60248201527f746f6b656e20696e76616c6964000000000000000000000000000000000000006044820152606401610a6f565b60006001600160a01b0316600e6000868481518110611eb457611eb46137aa565b6020908102919091018101518252810191909152604001600020600301546001600160a01b03161480611f235750601154600e6000868481518110611efb57611efb6137aa565b6020026020010151815260200190815260200160002060020154611f1f91906137c0565b4211155b611f6f5760405162461bcd60e51b815260206004820152601160248201527f6f7665722061756374696f6e2074696d650000000000000000000000000000006044820152606401610a6f565b600e6000858381518110611f8557611f856137aa565b6020026020010151815260200190815260200160002060000154838281518110611fb157611fb16137aa565b6020026020010151116120065760405162461bcd60e51b815260206004820152601b60248201527f626964206d75737420686967686572207468616e206f726967696e00000000006044820152606401610a6f565b828181518110612018576120186137aa565b60200260200101518261202b91906137c0565b9150806120378161374e565b915050611d99565b50803410156120905760405162461bcd60e51b815260206004820152601160248201527f616d6f756e74206e6f7420656e6f7567680000000000000000000000000000006044820152606401610a6f565b60005b8351811015610d8f5760006001600160a01b0316600e60008684815181106120bd576120bd6137aa565b6020908102919091018101518252810191909152604001600020600301546001600160a01b03161461219557600e60008583815181106120ff576120ff6137aa565b6020026020010151815260200190815260200160002060030160009054906101000a90046001600160a01b03166001600160a01b03166108fc600e600087858151811061214e5761214e6137aa565b60200260200101518152602001908152602001600020600001549081150290604051600060405180830381858888f19350505050158015612193573d6000803e3d6000fd5b505b8281815181106121a7576121a76137aa565b6020026020010151600e60008684815181106121c5576121c56137aa565b602002602001015181526020019081526020016000206000018190555042600e60008684815181106121f9576121f96137aa565b602002602001015181526020019081526020016000206002018190555033600e600086848151811061222d5761222d6137aa565b6020026020010151815260200190815260200160002060030160006101000a8154816001600160a01b0302191690836001600160a01b0316021790555080806122759061374e565b915050612093565b606061228882612601565b6000612292612bf1565b905060008151116122b257604051806020016040528060008152506122dd565b806122bc84612c00565b6040516020016122cd929190613954565b6040516020818303038152906040525b9392505050565b6006546001600160a01b036101009091041633146123325760405162461bcd60e51b815260206004820152600b60248201526a3737ba1036b0b730b3b2b960a91b6044820152606401610a6f565b60105442106123a95760405162461bcd60e51b815260206004820152602160248201527f6576656e7420616c72656164792073746172742c2063616e27742063616e636560448201527f6c000000000000000000000000000000000000000000000000000000000000006064820152608401610a6f565b60005b600f54811015612433576000818152600260205260409020546001600160a01b031615612421576123dc81611354565b6000828152600e60205260408082205490516001600160a01b03939093169281156108fc0292818181858888f1935050505015801561241f573d6000803e3d6000fd5b505b8061242b8161374e565b9150506123ac565b50610eda6114e1565b6000818152600e602052604090205434101561249a5760405162461bcd60e51b815260206004820152601060248201527f6e6f7420656e6f756768206d6f6e6579000000000000000000000000000000006044820152606401610a6f565b6007546040517f1dc740c90000000000000000000000000000000000000000000000000000000081523060048201523360248201526001600160a01b0390911690631dc740c99060440160206040518083038186803b1580156124fc57600080fd5b505afa158015612510573d6000803e3d6000fd5b505050506040513d601f19601f8201168201806040525081019061253491906137d8565b156125815760405162461bcd60e51b815260206004820152601e60248201527f757365722073686f756c64207265676973746572206f6e6c79206f6e636500006044820152606401610a6f565b6007546040517f6d705ebb000000000000000000000000000000000000000000000000000000008152336004820152602481018390526001600160a01b0390911690636d705ebb90604401600060405180830381600087803b1580156125e657600080fd5b505af11580156125fa573d6000803e3d6000fd5b5050505050565b6000818152600260205260409020546001600160a01b03166111085760405162461bcd60e51b815260206004820152601860248201527f4552433732313a20696e76616c696420746f6b656e20494400000000000000006044820152606401610a6f565b600081815260046020526040902080546001600160a01b0319166001600160a01b038416908117909155819061269a82611354565b6001600160a01b03167f8c5be1e5ebec7d5bd14f71427d1e84f3dd0314c0f7b2291e5b200ac8c7c3b92560405160405180910390a45050565b6000806126df83611354565b9050806001600160a01b0316846001600160a01b0316148061272657506001600160a01b0380821660009081526005602090815260408083209388168352929052205460ff165b8061274a5750836001600160a01b031661273f846109b7565b6001600160a01b0316145b949350505050565b826001600160a01b031661276582611354565b6001600160a01b0316146127c95760405162461bcd60e51b815260206004820152602560248201527f4552433732313a207472616e736665722066726f6d20696e636f72726563742060448201526437bbb732b960d91b6064820152608401610a6f565b6001600160a01b0382166128445760405162461bcd60e51b8152602060048201526024808201527f4552433732313a207472616e7366657220746f20746865207a65726f2061646460448201527f72657373000000000000000000000000000000000000000000000000000000006064820152608401610a6f565b6128518383836001612caa565b826001600160a01b031661286482611354565b6001600160a01b0316146128c85760405162461bcd60e51b815260206004820152602560248201527f4552433732313a207472616e736665722066726f6d20696e636f72726563742060448201526437bbb732b960d91b6064820152608401610a6f565b600081815260046020908152604080832080546001600160a01b03199081169091556001600160a01b0387811680865260038552838620805460001901905590871680865283862080546001019055868652600290945282852080549092168417909155905184937fddf252ad1be2c89b69c2b068fc378daa952ba7f163c4a11628f55a4df523b3ef91a4505050565b612960612cb7565b6006805460ff191690557f5db9ee0a495bf2e6ff9c91a7834c1ba4fdd244a5e8aa4e537bd38aeae4b073aa335b6040516001600160a01b03909116815260200160405180910390a1565b610c61828260405180602001604052806000815250612d09565b60006129cf82611354565b90506129df816000846001612caa565b6129e882611354565b600083815260046020908152604080832080546001600160a01b03199081169091556001600160a01b0385168085526003845282852080546000190190558785526002909352818420805490911690555192935084927fddf252ad1be2c89b69c2b068fc378daa952ba7f163c4a11628f55a4df523b3ef908390a45050565b612a6f612d87565b6006805460ff191660011790557f62e78cea01bee320cd4e420270b5ea74000d11b0c9f74754ebdbfc544b05a25861298d3390565b816001600160a01b0316836001600160a01b03161415612b065760405162461bcd60e51b815260206004820152601960248201527f4552433732313a20617070726f766520746f2063616c6c6572000000000000006044820152606401610a6f565b6001600160a01b03838116600081815260056020908152604080832094871680845294825291829020805460ff191686151590811790915591519182527f17307eab39ab6107e8899845ad3d59bd9653f200f220920489ca2b5937696c31910160405180910390a3505050565b612b7e848484612752565b612b8a84848484612dda565b610d8f5760405162461bcd60e51b815260206004820152603260248201527f4552433732313a207472616e7366657220746f206e6f6e20455243373231526560448201527131b2b4bb32b91034b6b83632b6b2b73a32b960711b6064820152608401610a6f565b6060600a805461093490613703565b60606000612c0d83612f32565b600101905060008167ffffffffffffffff811115612c2d57612c2d61347a565b6040519080825280601f01601f191660200182016040528015612c57576020820181803683370190505b5090508181016020015b600019017f3031323334353637383961626364656600000000000000000000000000000000600a86061a8153600a8504945084612c9d57612ca2565b612c61565b509392505050565b612cb2612d87565b610d8f565b60065460ff16610eda5760405162461bcd60e51b815260206004820152601460248201527f5061757361626c653a206e6f74207061757365640000000000000000000000006044820152606401610a6f565b612d138383613014565b612d206000848484612dda565b610b105760405162461bcd60e51b815260206004820152603260248201527f4552433732313a207472616e7366657220746f206e6f6e20455243373231526560448201527131b2b4bb32b91034b6b83632b6b2b73a32b960711b6064820152608401610a6f565b60065460ff1615610eda5760405162461bcd60e51b815260206004820152601060248201527f5061757361626c653a20706175736564000000000000000000000000000000006044820152606401610a6f565b60006001600160a01b0384163b15612f2757604051630a85bd0160e11b81526001600160a01b0385169063150b7a0290612e1e9033908990889088906004016139ac565b602060405180830381600087803b158015612e3857600080fd5b505af1925050508015612e68575060408051601f3d908101601f19168201909252612e65918101906139e8565b60015b612f0d573d808015612e96576040519150601f19603f3d011682016040523d82523d6000602084013e612e9b565b606091505b508051612f055760405162461bcd60e51b815260206004820152603260248201527f4552433732313a207472616e7366657220746f206e6f6e20455243373231526560448201527131b2b4bb32b91034b6b83632b6b2b73a32b960711b6064820152608401610a6f565b805181602001fd5b6001600160e01b031916630a85bd0160e11b14905061274a565b506001949350505050565b6000807a184f03e93ff9f4daa797ed6e38ed64bf6a1f0100000000000000008310612f7b577a184f03e93ff9f4daa797ed6e38ed64bf6a1f010000000000000000830492506040015b6d04ee2d6d415b85acef81000000008310612fa7576d04ee2d6d415b85acef8100000000830492506020015b662386f26fc100008310612fc557662386f26fc10000830492506010015b6305f5e1008310612fdd576305f5e100830492506008015b6127108310612ff157612710830492506004015b60648310613003576064830492506002015b600a831061091f5760010192915050565b6001600160a01b03821661306a5760405162461bcd60e51b815260206004820181905260248201527f4552433732313a206d696e7420746f20746865207a65726f20616464726573736044820152606401610a6f565b6000818152600260205260409020546001600160a01b0316156130cf5760405162461bcd60e51b815260206004820152601c60248201527f4552433732313a20746f6b656e20616c7265616479206d696e746564000000006044820152606401610a6f565b6130dd600083836001612caa565b6000818152600260205260409020546001600160a01b0316156131425760405162461bcd60e51b815260206004820152601c60248201527f4552433732313a20746f6b656e20616c7265616479206d696e746564000000006044820152606401610a6f565b6001600160a01b038216600081815260036020908152604080832080546001019055848352600290915280822080546001600160a01b0319168417905551839291907fddf252ad1be2c89b69c2b068fc378daa952ba7f163c4a11628f55a4df523b3ef908290a45050565b8280546131b990613703565b90600052602060002090601f0160209004810192826131db5760008555613221565b82601f106131f457805160ff1916838001178555613221565b82800160010185558215613221579182015b82811115613221578251825591602001919060010190613206565b5061322d929150613231565b5090565b5b8082111561322d5760008155600101613232565b6001600160e01b03198116811461110857600080fd5b60006020828403121561326e57600080fd5b81356122dd81613246565b60005b8381101561329457818101518382015260200161327c565b83811115610d8f5750506000910152565b600081518084526132bd816020860160208601613279565b601f01601f19169290920160200192915050565b6020815260006122dd60208301846132a5565b6000602082840312156132f657600080fd5b5035919050565b6001600160a01b038116811461110857600080fd5b6000806040838503121561332557600080fd5b8235613330816132fd565b946020939093013593505050565b60008060006060848603121561335357600080fd5b833592506020840135613365816132fd565b929592945050506040919091013590565b60008060006060848603121561338b57600080fd5b8335613396816132fd565b92506020840135613365816132fd565b6000806000606084860312156133bb57600080fd5b505081359360208301359350604090920135919050565b6020808252825182820181905260009190848201906040850190845b8181101561340a578351835292840192918401916001016133ee565b50909695505050505050565b60006020828403121561342857600080fd5b81356122dd816132fd565b801515811461110857600080fd5b6000806040838503121561345457600080fd5b823561345f816132fd565b9150602083013561346f81613433565b809150509250929050565b634e487b7160e01b600052604160045260246000fd5b604051601f8201601f1916810167ffffffffffffffff811182821017156134b9576134b961347a565b604052919050565b600067ffffffffffffffff8311156134db576134db61347a565b6134ee601f8401601f1916602001613490565b905082815283838301111561350257600080fd5b828260208301376000602084830101529392505050565b60006020828403121561352b57600080fd5b813567ffffffffffffffff81111561354257600080fd5b8201601f8101841361355357600080fd5b61274a848235602084016134c1565b6000806000806080858703121561357857600080fd5b8435613583816132fd565b93506020850135613593816132fd565b925060408501359150606085013567ffffffffffffffff8111156135b657600080fd5b8501601f810187136135c757600080fd5b6135d6878235602084016134c1565b91505092959194509250565b600067ffffffffffffffff8211156135fc576135fc61347a565b5060051b60200190565b600082601f83011261361757600080fd5b8135602061362c613627836135e2565b613490565b82815260059290921b8401810191818101908684111561364b57600080fd5b8286015b84811015613666578035835291830191830161364f565b509695505050505050565b6000806040838503121561368457600080fd5b823567ffffffffffffffff8082111561369c57600080fd5b6136a886838701613606565b935060208501359150808211156136be57600080fd5b506136cb85828601613606565b9150509250929050565b600080604083850312156136e857600080fd5b82356136f3816132fd565b9150602083013561346f816132fd565b600181811c9082168061371757607f821691505b602082108114156111a357634e487b7160e01b600052602260045260246000fd5b634e487b7160e01b600052601160045260246000fd5b600060001982141561376257613762613738565b5060010190565b600081600019048311821515161561378357613783613738565b500290565b6000826137a557634e487b7160e01b600052601260045260246000fd5b500490565b634e487b7160e01b600052603260045260246000fd5b600082198211156137d3576137d3613738565b500190565b6000602082840312156137ea57600080fd5b81516122dd81613433565b60006020828403121561380757600080fd5b5051919050565b600082601f83011261381f57600080fd5b8151602061382f613627836135e2565b82815260059290921b8401810191818101908684111561384e57600080fd5b8286015b848110156136665780518352918301918301613852565b60008060006060848603121561387e57600080fd5b835167ffffffffffffffff8082111561389657600080fd5b818601915086601f8301126138aa57600080fd5b815160206138ba613627836135e2565b82815260059290921b8401810191818101908a8411156138d957600080fd5b948201945b838610156139005785516138f1816132fd565b825294820194908201906138de565b9189015191975090935050508082111561391957600080fd5b506139268682870161380e565b925050604084015190509250925092565b60006020828403121561394957600080fd5b81516122dd816132fd565b60008351613966818460208801613279565b7f2f0000000000000000000000000000000000000000000000000000000000000090830190815283516139a0816001840160208801613279565b01600101949350505050565b60006001600160a01b038087168352808616602084015250836040830152608060608301526139de60808301846132a5565b9695505050505050565b6000602082840312156139fa57600080fd5b81516122dd8161324656fea264697066735822122085b025825d3da6b182b2b8a6a833c23f55db953f72ddcabd619222c8cd68228864736f6c63430008090033a26469706673582212204da24564245a44619e021d18061bd919b7109a22ca3e5e915c85088ae251b3fe64736f6c63430008090033",
  "linkReferences": {},
  "deployedLinkReferences": {}
}