{
  "_format": "hh-sol-artifact-1",
  "contractName": "Event_v1",
  "sourceName": "contracts/Event_v1.sol",
  "abi": [
    {
      "inputs": [
        {
          "internalType": "address",
          "name": "initialOwner",
          "type": "address"
        },
        {
          "internalType": "string",
          "name": "name_",
          "type": "string"
        },
        {
          "internalType": "string",
          "name": "symbol_",
          "type": "string"
        },
        {
          "internalType": "address[]",
          "name": "targets",
          "type": "address[]"
        },
        {
          "internalType": "uint256[]",
          "name": "royalties_",
          "type": "uint256[]"
        },
        {
          "internalType": "address",
          "name": "addr_payment_erc20_",
          "type": "address"
        },
        {
          "internalType": "string",
          "name": "base_uri_",
          "type": "string"
        },
        {
          "internalType": "uint256[]",
          "name": "prices",
          "type": "uint256[]"
        },
        {
          "internalType": "address",
          "name": "tax_to_",
          "type": "address"
        },
        {
          "internalType": "uint256",
          "name": "tax_",
          "type": "uint256"
        }
      ],
      "stateMutability": "nonpayable",
      "type": "constructor"
    },
    {
      "inputs": [
        {
          "internalType": "address",
          "name": "sender",
          "type": "address"
        },
        {
          "internalType": "uint256",
          "name": "tokenId",
          "type": "uint256"
        },
        {
          "internalType": "address",
          "name": "owner",
          "type": "address"
        }
      ],
      "name": "ERC721IncorrectOwner",
      "type": "error"
    },
    {
      "inputs": [
        {
          "internalType": "address",
          "name": "operator",
          "type": "address"
        },
        {
          "internalType": "uint256",
          "name": "tokenId",
          "type": "uint256"
        }
      ],
      "name": "ERC721InsufficientApproval",
      "type": "error"
    },
    {
      "inputs": [
        {
          "internalType": "address",
          "name": "approver",
          "type": "address"
        }
      ],
      "name": "ERC721InvalidApprover",
      "type": "error"
    },
    {
      "inputs": [
        {
          "internalType": "address",
          "name": "operator",
          "type": "address"
        }
      ],
      "name": "ERC721InvalidOperator",
      "type": "error"
    },
    {
      "inputs": [
        {
          "internalType": "address",
          "name": "owner",
          "type": "address"
        }
      ],
      "name": "ERC721InvalidOwner",
      "type": "error"
    },
    {
      "inputs": [
        {
          "internalType": "address",
          "name": "receiver",
          "type": "address"
        }
      ],
      "name": "ERC721InvalidReceiver",
      "type": "error"
    },
    {
      "inputs": [
        {
          "internalType": "address",
          "name": "sender",
          "type": "address"
        }
      ],
      "name": "ERC721InvalidSender",
      "type": "error"
    },
    {
      "inputs": [
        {
          "internalType": "uint256",
          "name": "tokenId",
          "type": "uint256"
        }
      ],
      "name": "ERC721NonexistentToken",
      "type": "error"
    },
    {
      "inputs": [],
      "name": "EnforcedPause",
      "type": "error"
    },
    {
      "inputs": [],
      "name": "ExpectedPause",
      "type": "error"
    },
    {
      "inputs": [
        {
          "internalType": "address",
          "name": "owner",
          "type": "address"
        }
      ],
      "name": "OwnableInvalidOwner",
      "type": "error"
    },
    {
      "inputs": [
        {
          "internalType": "address",
          "name": "account",
          "type": "address"
        }
      ],
      "name": "OwnableUnauthorizedAccount",
      "type": "error"
    },
    {
      "anonymous": false,
      "inputs": [
        {
          "indexed": true,
          "internalType": "address",
          "name": "owner",
          "type": "address"
        },
        {
          "indexed": true,
          "internalType": "address",
          "name": "approved",
          "type": "address"
        },
        {
          "indexed": true,
          "internalType": "uint256",
          "name": "tokenId",
          "type": "uint256"
        }
      ],
      "name": "Approval",
      "type": "event"
    },
    {
      "anonymous": false,
      "inputs": [
        {
          "indexed": true,
          "internalType": "address",
          "name": "owner",
          "type": "address"
        },
        {
          "indexed": true,
          "internalType": "address",
          "name": "operator",
          "type": "address"
        },
        {
          "indexed": false,
          "internalType": "bool",
          "name": "approved",
          "type": "bool"
        }
      ],
      "name": "ApprovalForAll",
      "type": "event"
    },
    {
      "anonymous": false,
      "inputs": [
        {
          "indexed": false,
          "internalType": "uint256",
          "name": "_fromTokenId",
          "type": "uint256"
        },
        {
          "indexed": false,
          "internalType": "uint256",
          "name": "_toTokenId",
          "type": "uint256"
        }
      ],
      "name": "BatchMetadataUpdate",
      "type": "event"
    },
    {
      "anonymous": false,
      "inputs": [
        {
          "indexed": false,
          "internalType": "uint256",
          "name": "_tokenId",
          "type": "uint256"
        }
      ],
      "name": "MetadataUpdate",
      "type": "event"
    },
    {
      "anonymous": false,
      "inputs": [
        {
          "indexed": true,
          "internalType": "address",
          "name": "previousOwner",
          "type": "address"
        },
        {
          "indexed": true,
          "internalType": "address",
          "name": "newOwner",
          "type": "address"
        }
      ],
      "name": "OwnershipTransferred",
      "type": "event"
    },
    {
      "anonymous": false,
      "inputs": [
        {
          "indexed": false,
          "internalType": "address",
          "name": "account",
          "type": "address"
        }
      ],
      "name": "Paused",
      "type": "event"
    },
    {
      "anonymous": false,
      "inputs": [
        {
          "indexed": true,
          "internalType": "address",
          "name": "from",
          "type": "address"
        },
        {
          "indexed": true,
          "internalType": "address",
          "name": "to",
          "type": "address"
        },
        {
          "indexed": true,
          "internalType": "uint256",
          "name": "tokenId",
          "type": "uint256"
        }
      ],
      "name": "Transfer",
      "type": "event"
    },
    {
      "anonymous": false,
      "inputs": [
        {
          "indexed": false,
          "internalType": "address",
          "name": "account",
          "type": "address"
        }
      ],
      "name": "Unpaused",
      "type": "event"
    },
    {
      "stateMutability": "payable",
      "type": "fallback"
    },
    {
      "inputs": [
        {
          "internalType": "address",
          "name": "to",
          "type": "address"
        },
        {
          "internalType": "uint256",
          "name": "tokenId",
          "type": "uint256"
        }
      ],
      "name": "approve",
      "outputs": [],
      "stateMutability": "nonpayable",
      "type": "function"
    },
    {
      "inputs": [
        {
          "internalType": "address",
          "name": "owner",
          "type": "address"
        }
      ],
      "name": "balanceOf",
      "outputs": [
        {
          "internalType": "uint256",
          "name": "",
          "type": "uint256"
        }
      ],
      "stateMutability": "view",
      "type": "function"
    },
    {
      "inputs": [],
      "name": "baseURI",
      "outputs": [
        {
          "internalType": "string",
          "name": "",
          "type": "string"
        }
      ],
      "stateMutability": "view",
      "type": "function"
    },
    {
      "inputs": [
        {
          "internalType": "uint256",
          "name": "tokenId",
          "type": "uint256"
        }
      ],
      "name": "burn",
      "outputs": [],
      "stateMutability": "nonpayable",
      "type": "function"
    },
    {
      "inputs": [
        {
          "internalType": "uint256[]",
          "name": "tokenIds",
          "type": "uint256[]"
        }
      ],
      "name": "buy",
      "outputs": [],
      "stateMutability": "payable",
      "type": "function"
    },
    {
      "inputs": [
        {
          "internalType": "uint256",
          "name": "tokenId",
          "type": "uint256"
        }
      ],
      "name": "exists",
      "outputs": [
        {
          "internalType": "bool",
          "name": "",
          "type": "bool"
        }
      ],
      "stateMutability": "view",
      "type": "function"
    },
    {
      "inputs": [
        {
          "internalType": "uint256",
          "name": "tokenId",
          "type": "uint256"
        }
      ],
      "name": "getApproved",
      "outputs": [
        {
          "internalType": "address",
          "name": "",
          "type": "address"
        }
      ],
      "stateMutability": "view",
      "type": "function"
    },
    {
      "inputs": [],
      "name": "getContractBalance",
      "outputs": [
        {
          "internalType": "uint256",
          "name": "",
          "type": "uint256"
        },
        {
          "internalType": "uint256",
          "name": "",
          "type": "uint256"
        }
      ],
      "stateMutability": "view",
      "type": "function"
    },
    {
      "inputs": [
        {
          "internalType": "uint256[]",
          "name": "tokenIds",
          "type": "uint256[]"
        }
      ],
      "name": "getPrices",
      "outputs": [
        {
          "internalType": "uint256[]",
          "name": "",
          "type": "uint256[]"
        }
      ],
      "stateMutability": "view",
      "type": "function"
    },
    {
      "inputs": [],
      "name": "getRoyalties",
      "outputs": [
        {
          "internalType": "address[]",
          "name": "",
          "type": "address[]"
        },
        {
          "internalType": "uint256[]",
          "name": "",
          "type": "uint256[]"
        }
      ],
      "stateMutability": "view",
      "type": "function"
    },
    {
      "inputs": [
        {
          "internalType": "address",
          "name": "owner",
          "type": "address"
        },
        {
          "internalType": "address",
          "name": "operator",
          "type": "address"
        }
      ],
      "name": "isApprovedForAll",
      "outputs": [
        {
          "internalType": "bool",
          "name": "",
          "type": "bool"
        }
      ],
      "stateMutability": "view",
      "type": "function"
    },
    {
      "inputs": [],
      "name": "max_supply",
      "outputs": [
        {
          "internalType": "uint256",
          "name": "",
          "type": "uint256"
        }
      ],
      "stateMutability": "view",
      "type": "function"
    },
    {
      "inputs": [],
      "name": "n_royalties",
      "outputs": [
        {
          "internalType": "uint256",
          "name": "",
          "type": "uint256"
        }
      ],
      "stateMutability": "view",
      "type": "function"
    },
    {
      "inputs": [],
      "name": "name",
      "outputs": [
        {
          "internalType": "string",
          "name": "",
          "type": "string"
        }
      ],
      "stateMutability": "view",
      "type": "function"
    },
    {
      "inputs": [],
      "name": "owner",
      "outputs": [
        {
          "internalType": "address",
          "name": "",
          "type": "address"
        }
      ],
      "stateMutability": "view",
      "type": "function"
    },
    {
      "inputs": [
        {
          "internalType": "uint256",
          "name": "tokenId",
          "type": "uint256"
        }
      ],
      "name": "ownerOf",
      "outputs": [
        {
          "internalType": "address",
          "name": "",
          "type": "address"
        }
      ],
      "stateMutability": "view",
      "type": "function"
    },
    {
      "inputs": [],
      "name": "pause",
      "outputs": [],
      "stateMutability": "nonpayable",
      "type": "function"
    },
    {
      "inputs": [],
      "name": "paused",
      "outputs": [
        {
          "internalType": "bool",
          "name": "",
          "type": "bool"
        }
      ],
      "stateMutability": "view",
      "type": "function"
    },
    {
      "inputs": [],
      "name": "renounceOwnership",
      "outputs": [],
      "stateMutability": "nonpayable",
      "type": "function"
    },
    {
      "inputs": [
        {
          "internalType": "address",
          "name": "to",
          "type": "address"
        },
        {
          "internalType": "uint256",
          "name": "tokenId",
          "type": "uint256"
        }
      ],
      "name": "safeMint",
      "outputs": [],
      "stateMutability": "nonpayable",
      "type": "function"
    },
    {
      "inputs": [
        {
          "internalType": "address",
          "name": "from",
          "type": "address"
        },
        {
          "internalType": "address",
          "name": "to",
          "type": "address"
        },
        {
          "internalType": "uint256",
          "name": "tokenId",
          "type": "uint256"
        }
      ],
      "name": "safeTransferFrom",
      "outputs": [],
      "stateMutability": "nonpayable",
      "type": "function"
    },
    {
      "inputs": [
        {
          "internalType": "address",
          "name": "from",
          "type": "address"
        },
        {
          "internalType": "address",
          "name": "to",
          "type": "address"
        },
        {
          "internalType": "uint256",
          "name": "tokenId",
          "type": "uint256"
        },
        {
          "internalType": "bytes",
          "name": "data",
          "type": "bytes"
        }
      ],
      "name": "safeTransferFrom",
      "outputs": [],
      "stateMutability": "nonpayable",
      "type": "function"
    },
    {
      "inputs": [
        {
          "internalType": "address",
          "name": "operator",
          "type": "address"
        },
        {
          "internalType": "bool",
          "name": "approved",
          "type": "bool"
        }
      ],
      "name": "setApprovalForAll",
      "outputs": [],
      "stateMutability": "nonpayable",
      "type": "function"
    },
    {
      "inputs": [
        {
          "internalType": "string",
          "name": "base_uri_",
          "type": "string"
        }
      ],
      "name": "setBaseURI",
      "outputs": [],
      "stateMutability": "nonpayable",
      "type": "function"
    },
    {
      "inputs": [
        {
          "internalType": "uint256[]",
          "name": "tokenIds",
          "type": "uint256[]"
        },
        {
          "internalType": "uint256[]",
          "name": "prices",
          "type": "uint256[]"
        }
      ],
      "name": "setPrices",
      "outputs": [],
      "stateMutability": "nonpayable",
      "type": "function"
    },
    {
      "inputs": [
        {
          "internalType": "uint256[]",
          "name": "tokenId",
          "type": "uint256[]"
        },
        {
          "internalType": "uint256[]",
          "name": "prices",
          "type": "uint256[]"
        }
      ],
      "name": "setTickets",
      "outputs": [],
      "stateMutability": "nonpayable",
      "type": "function"
    },
    {
      "inputs": [
        {
          "internalType": "bytes4",
          "name": "interfaceId",
          "type": "bytes4"
        }
      ],
      "name": "supportsInterface",
      "outputs": [
        {
          "internalType": "bool",
          "name": "",
          "type": "bool"
        }
      ],
      "stateMutability": "view",
      "type": "function"
    },
    {
      "inputs": [],
      "name": "symbol",
      "outputs": [
        {
          "internalType": "string",
          "name": "",
          "type": "string"
        }
      ],
      "stateMutability": "view",
      "type": "function"
    },
    {
      "inputs": [],
      "name": "tax",
      "outputs": [
        {
          "internalType": "uint256",
          "name": "",
          "type": "uint256"
        }
      ],
      "stateMutability": "view",
      "type": "function"
    },
    {
      "inputs": [],
      "name": "tax_to",
      "outputs": [
        {
          "internalType": "address",
          "name": "",
          "type": "address"
        }
      ],
      "stateMutability": "view",
      "type": "function"
    },
    {
      "inputs": [],
      "name": "token",
      "outputs": [
        {
          "internalType": "contract IERC20",
          "name": "",
          "type": "address"
        }
      ],
      "stateMutability": "view",
      "type": "function"
    },
    {
      "inputs": [
        {
          "internalType": "uint256",
          "name": "tokenId",
          "type": "uint256"
        }
      ],
      "name": "tokenURI",
      "outputs": [
        {
          "internalType": "string",
          "name": "",
          "type": "string"
        }
      ],
      "stateMutability": "view",
      "type": "function"
    },
    {
      "inputs": [],
      "name": "totalSupply",
      "outputs": [
        {
          "internalType": "uint256",
          "name": "",
          "type": "uint256"
        }
      ],
      "stateMutability": "view",
      "type": "function"
    },
    {
      "inputs": [
        {
          "internalType": "address",
          "name": "from",
          "type": "address"
        },
        {
          "internalType": "address",
          "name": "to",
          "type": "address"
        },
        {
          "internalType": "uint256",
          "name": "tokenId",
          "type": "uint256"
        }
      ],
      "name": "transferFrom",
      "outputs": [],
      "stateMutability": "nonpayable",
      "type": "function"
    },
    {
      "inputs": [
        {
          "internalType": "address",
          "name": "newOwner",
          "type": "address"
        }
      ],
      "name": "transferOwnership",
      "outputs": [],
      "stateMutability": "nonpayable",
      "type": "function"
    },
    {
      "inputs": [],
      "name": "unpause",
      "outputs": [],
      "stateMutability": "nonpayable",
      "type": "function"
    },
    {
      "inputs": [],
      "name": "withdraw",
      "outputs": [],
      "stateMutability": "nonpayable",
      "type": "function"
    },
    {
      "stateMutability": "payable",
      "type": "receive"
    }
  ],
  "bytecode": "0x60006009819055600b81905560a06040526080908152600c90620000249082620003f9565b50600d80546001600160a01b03199081169091556000600e819055600f80549092169091556010553480156200005957600080fd5b5060405162002ef438038062002ef48339810160408190526200007c91620006a6565b89898960006200008d8382620003f9565b5060016200009c8282620003f9565b50506006805460ff19169055506001600160a01b038116620000d957604051631e4fbdf760e01b8152600060048201526024015b60405180910390fd5b620000e481620002fa565b506000805b88518110156200013457878181518110620001085762000108620007f3565b6020026020010151826200011d91906200081f565b9150806200012b816200083b565b915050620000e9565b506103e8811115620001895760405162461bcd60e51b815260206004820152601a60248201527f30203c2073756d206f6620726f79616c74696573203c313030300000000000006044820152606401620000d0565b60005b88518110156200024b57888181518110620001ab57620001ab620007f3565b60200260200101516008600083815260200190815260200160002060000160006101000a8154816001600160a01b0302191690836001600160a01b03160217905550878181518110620002025762000202620007f3565b602090810291909101810151600083815260089092526040822060010155600980549162000230836200083b565b9190505550808062000242906200083b565b9150506200018c565b508351601055600d80546001600160a01b038089166001600160a01b031992831617909255600f805492861692909116919091179055600e829055600c620002948682620003f9565b5060005b8451811015620002e857848181518110620002b757620002b7620007f3565b6020908102919091018101516000838152600a90925260409091205580620002df816200083b565b91505062000298565b50505050505050505050505062000857565b600680546001600160a01b03838116610100818102610100600160a81b031985161790945560405193909204169182907f8be0079c531659141344cd1fd0a4f28419497f9722a3daafe3b4186f6b6457e090600090a35050565b634e487b7160e01b600052604160045260246000fd5b600181811c908216806200037f57607f821691505b602082108103620003a057634e487b7160e01b600052602260045260246000fd5b50919050565b601f821115620003f457600081815260208120601f850160051c81016020861015620003cf5750805b601f850160051c820191505b81811015620003f057828155600101620003db565b5050505b505050565b81516001600160401b0381111562000415576200041562000354565b6200042d816200042684546200036a565b84620003a6565b602080601f8311600181146200046557600084156200044c5750858301515b600019600386901b1c1916600185901b178555620003f0565b600085815260208120601f198616915b82811015620004965788860151825594840194600190910190840162000475565b5085821015620004b55787850151600019600388901b60f8161c191681555b5050505050600190811b01905550565b80516001600160a01b0381168114620004dd57600080fd5b919050565b604051601f8201601f191681016001600160401b03811182821017156200050d576200050d62000354565b604052919050565b600082601f8301126200052757600080fd5b81516001600160401b0381111562000543576200054362000354565b602062000559601f8301601f19168201620004e2565b82815285828487010111156200056e57600080fd5b60005b838110156200058e57858101830151828201840152820162000571565b506000928101909101919091529392505050565b60006001600160401b03821115620005be57620005be62000354565b5060051b60200190565b600082601f830112620005da57600080fd5b81516020620005f3620005ed83620005a2565b620004e2565b82815260059290921b840181019181810190868411156200061357600080fd5b8286015b8481101562000639576200062b81620004c5565b835291830191830162000617565b509695505050505050565b600082601f8301126200065657600080fd5b8151602062000669620005ed83620005a2565b82815260059290921b840181019181810190868411156200068957600080fd5b8286015b848110156200063957805183529183019183016200068d565b6000806000806000806000806000806101408b8d031215620006c757600080fd5b620006d28b620004c5565b60208c0151909a506001600160401b0380821115620006f057600080fd5b620006fe8e838f0162000515565b9a5060408d01519150808211156200071557600080fd5b620007238e838f0162000515565b995060608d01519150808211156200073a57600080fd5b620007488e838f01620005c8565b985060808d01519150808211156200075f57600080fd5b6200076d8e838f0162000644565b97506200077d60a08e01620004c5565b965060c08d01519150808211156200079457600080fd5b620007a28e838f0162000515565b955060e08d0151915080821115620007b957600080fd5b50620007c88d828e0162000644565b935050620007da6101008c01620004c5565b91506101208b015190509295989b9194979a5092959850565b634e487b7160e01b600052603260045260246000fd5b634e487b7160e01b600052601160045260246000fd5b8082018082111562000835576200083562000809565b92915050565b60006001820162000850576200085062000809565b5060010190565b61268d80620008676000396000f3fe6080604052600436106102475760003560e01c80636f9fb98a1161013e578063a1448194116100bf578063c87b56dd11610079578063e985e9c511610061578063e985e9c514610683578063f2fde38b146106cc578063fc0c546a146106ec57005b8063c87b56dd14610643578063d05eaae01461066357005b8063b88d4fde116100a7578063b88d4fde146105f0578063c243c72b14610610578063c3264f971461062357005b8063a1448194146105b0578063a22cb465146105d057005b80638a333b501161011057806390101f16116100f857806390101f161461056557806395d89b411461058557806399c8d5561461059a57005b80638a333b501461052c5780638da5cb5b1461054257005b80636f9fb98a146104b857806370a08231146104e2578063715018a6146105025780638456cb591461051757005b80633ccfd60b116101c85780634f558e791161019a5780635c975abb116101825780635c975abb1461046b5780636352211e146104835780636c0360eb146104a357005b80634f558e791461041357806355f804b31461044b57005b80633ccfd60b146103a95780633f4ba83a146103be57806342842e0e146103d357806342966c68146103f357005b806309cb3a4e116102195780631cfdb542116102015780631cfdb5421461035057806323b872dd1461036657806333df048e1461038657005b806309cb3a4e146102ff57806318160ddd1461032c57005b806301ffc9a71461025057806306fdde0314610285578063081812fc146102a7578063095ea7b3146102df57005b3661024e57005b005b34801561025c57600080fd5b5061027061026b366004611ede565b61070c565b60405190151581526020015b60405180910390f35b34801561029157600080fd5b5061029a61071d565b60405161027c9190611f4b565b3480156102b357600080fd5b506102c76102c2366004611f5e565b6107af565b6040516001600160a01b03909116815260200161027c565b3480156102eb57600080fd5b5061024e6102fa366004611f93565b6107d8565b34801561030b57600080fd5b5061031f61031a366004612084565b6107e7565b60405161027c91906120f4565b34801561033857600080fd5b50610342600b5481565b60405190815260200161027c565b34801561035c57600080fd5b5061034260095481565b34801561037257600080fd5b5061024e610381366004612107565b6108a0565b34801561039257600080fd5b5061039b610949565b60405161027c929190612143565b3480156103b557600080fd5b5061024e6109ef565b3480156103ca57600080fd5b5061024e610cd0565b3480156103df57600080fd5b5061024e6103ee366004612107565b610ce2565b3480156103ff57600080fd5b5061024e61040e366004611f5e565b610d02565b34801561041f57600080fd5b5061027061042e366004611f5e565b6000908152600260205260409020546001600160a01b0316151590565b34801561045757600080fd5b5061024e6104663660046121fb565b610d0e565b34801561047757600080fd5b5060065460ff16610270565b34801561048f57600080fd5b506102c761049e366004611f5e565b610d22565b3480156104af57600080fd5b5061029a610d2d565b3480156104c457600080fd5b506104cd610dbb565b6040805192835260208301919091520161027c565b3480156104ee57600080fd5b506103426104fd366004612244565b610e34565b34801561050e57600080fd5b5061024e610e95565b34801561052357600080fd5b5061024e610ea7565b34801561053857600080fd5b5061034260105481565b34801561054e57600080fd5b5060065461010090046001600160a01b03166102c7565b34801561057157600080fd5b5061024e61058036600461225f565b610eb7565b34801561059157600080fd5b5061029a610f28565b3480156105a657600080fd5b50610342600e5481565b3480156105bc57600080fd5b5061024e6105cb366004611f93565b610f37565b3480156105dc57600080fd5b5061024e6105eb3660046122d1565b610f62565b3480156105fc57600080fd5b5061024e61060b366004612308565b610f6d565b61024e61061e366004612084565b610f84565b34801561062f57600080fd5b50600f546102c7906001600160a01b031681565b34801561064f57600080fd5b5061029a61065e366004611f5e565b611218565b34801561066f57600080fd5b5061024e61067e36600461225f565b611223565b34801561068f57600080fd5b5061027061069e366004612384565b6001600160a01b03918216600090815260056020908152604080832093909416825291909152205460ff1690565b3480156106d857600080fd5b5061024e6106e7366004612244565b611294565b3480156106f857600080fd5b50600d546102c7906001600160a01b031681565b6000610717826112eb565b92915050565b60606000805461072c906123b7565b80601f0160208091040260200160405190810160405280929190818152602001828054610758906123b7565b80156107a55780601f1061077a576101008083540402835291602001916107a5565b820191906000526020600020905b81548152906001019060200180831161078857829003601f168201915b5050505050905090565b60006107ba82611329565b506000828152600460205260409020546001600160a01b0316610717565b6107e3828233611362565b5050565b60606000825167ffffffffffffffff81111561080557610805611fbd565b60405190808252806020026020018201604052801561082e578160200160208202803683370190505b50905060005b835181101561089957600a6000858381518110610853576108536123f1565b602002602001015181526020019081526020016000205482828151811061087c5761087c6123f1565b6020908102919091010152806108918161241d565b915050610834565b5092915050565b6001600160a01b0382166108cf57604051633250574960e11b8152600060048201526024015b60405180910390fd5b60006108dc83833361136f565b9050836001600160a01b0316816001600160a01b031614610943576040517f64283d7b0000000000000000000000000000000000000000000000000000000081526001600160a01b03808616600483015260248201849052821660448201526064016108c6565b50505050565b60608060608060005b6009548110156109e55760008181526008602052604090205483516001600160a01b039091169084908390811061098b5761098b6123f1565b6001600160a01b0390921660209283029190910182015260008281526008909152604090206001015482518390839081106109c8576109c86123f1565b6020908102919091010152806109dd8161241d565b915050610952565b5090939092509050565b6109f7611384565b600d546040516370a0823160e01b81523060048201526000916001600160a01b0316906370a0823190602401602060405180830381865afa158015610a40573d6000803e3d6000fd5b505050506040513d601f19601f82011682018060405250810190610a649190612436565b905060006103e8600e5483610a79919061244f565b610a839190612466565b600d54600f546040517fa9059cbb0000000000000000000000000000000000000000000000000000000081526001600160a01b03918216600482015260248101849052929350169063a9059cbb906044016020604051808303816000875af1158015610af3573d6000803e3d6000fd5b505050506040513d601f19601f82011682018060405250810190610b179190612488565b50610b2281836124a5565b9150600047905060006103e8600e5483610b3c919061244f565b610b469190612466565b600f546040519192506001600160a01b03169082156108fc029083906000818181858888f19350505050158015610b81573d6000803e3d6000fd5b50610b8c81836124a5565b915060005b600954811015610cc957600081815260086020526040902080546001909101546001600160a01b03909116906108fc906103e890610bcf908761244f565b610bd99190612466565b6040518115909202916000818181858888f19350505050158015610c01573d6000803e3d6000fd5b50600d54600082815260086020526040902080546001909101546001600160a01b039283169263a9059cbb9216906103e890610c3d908a61244f565b610c479190612466565b6040516001600160e01b031960e085901b1681526001600160a01b03909216600483015260248201526044016020604051808303816000875af1158015610c92573d6000803e3d6000fd5b505050506040513d601f19601f82011682018060405250810190610cb69190612488565b5080610cc18161241d565b915050610b91565b5050505050565b610cd8611384565b610ce06113d0565b565b610cfd83838360405180602001604052806000815250610f6d565b505050565b6107e36000823361136f565b610d16611384565b600c6107e38282612506565b600061071782611329565b600c8054610d3a906123b7565b80601f0160208091040260200160405190810160405280929190818152602001828054610d66906123b7565b8015610db35780601f10610d8857610100808354040283529160200191610db3565b820191906000526020600020905b815481529060010190602001808311610d9657829003601f168201915b505050505081565b600d546040516370a0823160e01b815230600482015260009182916001600160a01b03909116906370a0823190602401602060405180830381865afa158015610e08573d6000803e3d6000fd5b505050506040513d601f19601f82011682018060405250810190610e2c9190612436565b924792509050565b60006001600160a01b038216610e79576040517f89c62b64000000000000000000000000000000000000000000000000000000008152600060048201526024016108c6565b506001600160a01b031660009081526003602052604090205490565b610e9d611384565b610ce06000611422565b610eaf611384565b610ce0611493565b610ebf611384565b60005b8251811015610cfd57818181518110610edd57610edd6123f1565b6020026020010151600a6000858481518110610efb57610efb6123f1565b60200260200101518152602001908152602001600020819055508080610f209061241d565b915050610ec2565b60606001805461072c906123b7565b610f3f611384565b610f4982826114d0565b600b8054906000610f598361241d565b91905055505050565b6107e33383836114ea565b610f788484846108a0565b610943848484846115a2565b6000805b82518110156110e0576000600a6000858481518110610fa957610fa96123f1565b60200260200101518152602001908152602001600020541161100d5760405162461bcd60e51b815260206004820152600960248201527f6e6f7420616c6c6f77000000000000000000000000000000000000000000000060448201526064016108c6565b611047838281518110611022576110226123f1565b60200260200101516000908152600260205260409020546001600160a01b0316151590565b156110945760405162461bcd60e51b815260206004820152600b60248201527f746f6b656e20657869737400000000000000000000000000000000000000000060448201526064016108c6565b600a60008483815181106110aa576110aa6123f1565b6020026020010151815260200190815260200160002054826110cc91906125c6565b9150806110d88161241d565b915050610f88565b50600d546040517f23b872dd000000000000000000000000000000000000000000000000000000008152336004820152306024820152604481018390526001600160a01b03909116906323b872dd906064016020604051808303816000875af1158015611151573d6000803e3d6000fd5b505050506040513d601f19601f820116820180604052508101906111759190612488565b6111c15760405162461bcd60e51b815260206004820152600f60248201527f7472616e73666572204661696c6564000000000000000000000000000000000060448201526064016108c6565b60005b8251811015610cfd576111f0338483815181106111e3576111e36123f1565b60200260200101516114d0565b600b80549060006112008361241d565b919050555080806112109061241d565b9150506111c4565b6060610717826116c4565b61122b611384565b60005b8251811015610cfd57818181518110611249576112496123f1565b6020026020010151600a6000858481518110611267576112676123f1565b6020026020010151815260200190815260200160002081905550808061128c9061241d565b91505061122e565b61129c611384565b6001600160a01b0381166112df576040517f1e4fbdf7000000000000000000000000000000000000000000000000000000008152600060048201526024016108c6565b6112e881611422565b50565b60006001600160e01b031982167f490649060000000000000000000000000000000000000000000000000000000014806107175750610717826117c0565b6000818152600260205260408120546001600160a01b03168061071757604051637e27328960e01b8152600481018490526024016108c6565b610cfd838383600161185b565b600061137c8484846119a6565b949350505050565b6006546001600160a01b03610100909104163314610ce0576040517f118cdaa70000000000000000000000000000000000000000000000000000000081523360048201526024016108c6565b6113d86119bb565b6006805460ff191690557f5db9ee0a495bf2e6ff9c91a7834c1ba4fdd244a5e8aa4e537bd38aeae4b073aa335b6040516001600160a01b03909116815260200160405180910390a1565b600680546001600160a01b038381166101008181027fffffffffffffffffffffff0000000000000000000000000000000000000000ff85161790945560405193909204169182907f8be0079c531659141344cd1fd0a4f28419497f9722a3daafe3b4186f6b6457e090600090a35050565b61149b6119f7565b6006805460ff191660011790557f62e78cea01bee320cd4e420270b5ea74000d11b0c9f74754ebdbfc544b05a2586114053390565b6107e3828260405180602001604052806000815250611a34565b6001600160a01b038216611535576040517f5b08ba180000000000000000000000000000000000000000000000000000000081526001600160a01b03831660048201526024016108c6565b6001600160a01b03838116600081815260056020908152604080832094871680845294825291829020805460ff191686151590811790915591519182527f17307eab39ab6107e8899845ad3d59bd9653f200f220920489ca2b5937696c31910160405180910390a3505050565b6001600160a01b0383163b1561094357604051630a85bd0160e11b81526001600160a01b0384169063150b7a02906115e49033908890879087906004016125d9565b6020604051808303816000875af192505050801561161f575060408051601f3d908101601f1916820190925261161c9181019061260b565b60015b611688573d80801561164d576040519150601f19603f3d011682016040523d82523d6000602084013e611652565b606091505b50805160000361168057604051633250574960e11b81526001600160a01b03851660048201526024016108c6565b805181602001fd5b6001600160e01b03198116630a85bd0160e11b14610cc957604051633250574960e11b81526001600160a01b03851660048201526024016108c6565b60606116cf82611329565b50600082815260076020526040812080546116e9906123b7565b80601f0160208091040260200160405190810160405280929190818152602001828054611715906123b7565b80156117625780601f1061173757610100808354040283529160200191611762565b820191906000526020600020905b81548152906001019060200180831161174557829003601f168201915b505050505090506000611773611a4b565b90508051600003611785575092915050565b8151156117b757808260405160200161179f929190612628565b60405160208183030381529060405292505050919050565b61137c84611a5a565b60006001600160e01b031982167f80ac58cd00000000000000000000000000000000000000000000000000000000148061182357506001600160e01b031982167f5b5e139f00000000000000000000000000000000000000000000000000000000145b8061071757507f01ffc9a7000000000000000000000000000000000000000000000000000000006001600160e01b0319831614610717565b808061186f57506001600160a01b03821615155b1561196957600061187f84611329565b90506001600160a01b038316158015906118ab5750826001600160a01b0316816001600160a01b031614155b80156118dd57506001600160a01b0380821660009081526005602090815260408083209387168352929052205460ff16155b1561191f576040517fa9fbf51f0000000000000000000000000000000000000000000000000000000081526001600160a01b03841660048201526024016108c6565b81156119675783856001600160a01b0316826001600160a01b03167f8c5be1e5ebec7d5bd14f71427d1e84f3dd0314c0f7b2291e5b200ac8c7c3b92560405160405180910390a45b505b50506000908152600460205260409020805473ffffffffffffffffffffffffffffffffffffffff19166001600160a01b0392909216919091179055565b60006119b06119f7565b61137c848484611ac2565b60065460ff16610ce0576040517f8dfc202b00000000000000000000000000000000000000000000000000000000815260040160405180910390fd5b60065460ff1615610ce0576040517fd93c066500000000000000000000000000000000000000000000000000000000815260040160405180910390fd5b611a3e8383611bc8565b610cfd60008484846115a2565b6060600c805461072c906123b7565b6060611a6582611329565b506000611a70611a4b565b90506000815111611a905760405180602001604052806000815250611abb565b80611a9a84611c46565b604051602001611aab929190612628565b6040516020818303038152906040525b9392505050565b6000828152600260205260408120546001600160a01b0390811690831615611aef57611aef818486611ce6565b6001600160a01b03811615611b2d57611b0c60008560008061185b565b6001600160a01b038116600090815260036020526040902080546000190190555b6001600160a01b03851615611b5c576001600160a01b0385166000908152600360205260409020805460010190555b600084815260026020526040808220805473ffffffffffffffffffffffffffffffffffffffff19166001600160a01b0389811691821790925591518793918516917fddf252ad1be2c89b69c2b068fc378daa952ba7f163c4a11628f55a4df523b3ef91a4949350505050565b6001600160a01b038216611bf257604051633250574960e11b8152600060048201526024016108c6565b6000611c008383600061136f565b90506001600160a01b03811615610cfd576040517f73c6ac6e000000000000000000000000000000000000000000000000000000008152600060048201526024016108c6565b60606000611c5383611d63565b600101905060008167ffffffffffffffff811115611c7357611c73611fbd565b6040519080825280601f01601f191660200182016040528015611c9d576020820181803683370190505b5090508181016020015b600019017f3031323334353637383961626364656600000000000000000000000000000000600a86061a8153600a8504945084611ca757509392505050565b611cf1838383611e45565b610cfd576001600160a01b038316611d1f57604051637e27328960e01b8152600481018290526024016108c6565b6040517f177e802f0000000000000000000000000000000000000000000000000000000081526001600160a01b0383166004820152602481018290526044016108c6565b6000807a184f03e93ff9f4daa797ed6e38ed64bf6a1f0100000000000000008310611dac577a184f03e93ff9f4daa797ed6e38ed64bf6a1f010000000000000000830492506040015b6d04ee2d6d415b85acef81000000008310611dd8576d04ee2d6d415b85acef8100000000830492506020015b662386f26fc100008310611df657662386f26fc10000830492506010015b6305f5e1008310611e0e576305f5e100830492506008015b6127108310611e2257612710830492506004015b60648310611e34576064830492506002015b600a83106107175760010192915050565b60006001600160a01b0383161580159061137c5750826001600160a01b0316846001600160a01b03161480611e9f57506001600160a01b0380851660009081526005602090815260408083209387168352929052205460ff165b8061137c5750506000908152600460205260409020546001600160a01b03908116911614919050565b6001600160e01b0319811681146112e857600080fd5b600060208284031215611ef057600080fd5b8135611abb81611ec8565b60005b83811015611f16578181015183820152602001611efe565b50506000910152565b60008151808452611f37816020860160208601611efb565b601f01601f19169290920160200192915050565b602081526000611abb6020830184611f1f565b600060208284031215611f7057600080fd5b5035919050565b80356001600160a01b0381168114611f8e57600080fd5b919050565b60008060408385031215611fa657600080fd5b611faf83611f77565b946020939093013593505050565b634e487b7160e01b600052604160045260246000fd5b604051601f8201601f1916810167ffffffffffffffff81118282101715611ffc57611ffc611fbd565b604052919050565b600082601f83011261201557600080fd5b8135602067ffffffffffffffff82111561203157612031611fbd565b8160051b612040828201611fd3565b928352848101820192828101908785111561205a57600080fd5b83870192505b8483101561207957823582529183019190830190612060565b979650505050505050565b60006020828403121561209657600080fd5b813567ffffffffffffffff8111156120ad57600080fd5b61137c84828501612004565b600081518084526020808501945080840160005b838110156120e9578151875295820195908201906001016120cd565b509495945050505050565b602081526000611abb60208301846120b9565b60008060006060848603121561211c57600080fd5b61212584611f77565b925061213360208501611f77565b9150604084013590509250925092565b604080825283519082018190526000906020906060840190828701845b828110156121855781516001600160a01b031684529284019290840190600101612160565b5050508381038285015261219981866120b9565b9695505050505050565b600067ffffffffffffffff8311156121bd576121bd611fbd565b6121d0601f8401601f1916602001611fd3565b90508281528383830111156121e457600080fd5b828260208301376000602084830101529392505050565b60006020828403121561220d57600080fd5b813567ffffffffffffffff81111561222457600080fd5b8201601f8101841361223557600080fd5b61137c848235602084016121a3565b60006020828403121561225657600080fd5b611abb82611f77565b6000806040838503121561227257600080fd5b823567ffffffffffffffff8082111561228a57600080fd5b61229686838701612004565b935060208501359150808211156122ac57600080fd5b506122b985828601612004565b9150509250929050565b80151581146112e857600080fd5b600080604083850312156122e457600080fd5b6122ed83611f77565b915060208301356122fd816122c3565b809150509250929050565b6000806000806080858703121561231e57600080fd5b61232785611f77565b935061233560208601611f77565b925060408501359150606085013567ffffffffffffffff81111561235857600080fd5b8501601f8101871361236957600080fd5b612378878235602084016121a3565b91505092959194509250565b6000806040838503121561239757600080fd5b6123a083611f77565b91506123ae60208401611f77565b90509250929050565b600181811c908216806123cb57607f821691505b6020821081036123eb57634e487b7160e01b600052602260045260246000fd5b50919050565b634e487b7160e01b600052603260045260246000fd5b634e487b7160e01b600052601160045260246000fd5b60006001820161242f5761242f612407565b5060010190565b60006020828403121561244857600080fd5b5051919050565b808202811582820484141761071757610717612407565b60008261248357634e487b7160e01b600052601260045260246000fd5b500490565b60006020828403121561249a57600080fd5b8151611abb816122c3565b8181038181111561071757610717612407565b601f821115610cfd57600081815260208120601f850160051c810160208610156124df5750805b601f850160051c820191505b818110156124fe578281556001016124eb565b505050505050565b815167ffffffffffffffff81111561252057612520611fbd565b6125348161252e84546123b7565b846124b8565b602080601f83116001811461256957600084156125515750858301515b600019600386901b1c1916600185901b1785556124fe565b600085815260208120601f198616915b8281101561259857888601518255948401946001909101908401612579565b50858210156125b65787850151600019600388901b60f8161c191681555b5050505050600190811b01905550565b8082018082111561071757610717612407565b60006001600160a01b038087168352808616602084015250836040830152608060608301526121996080830184611f1f565b60006020828403121561261d57600080fd5b8151611abb81611ec8565b6000835161263a818460208801611efb565b83519083019061264e818360208801611efb565b0194935050505056fea26469706673582212208d5f1aa43267a6365795f35058206593c2b7d8382a40999e5696eef1eea10e4864736f6c63430008140033",
  "linkReferences": {},
  "deployedLinkReferences": {}
}