{
  "_format": "hh-sol-artifact-1",
  "contractName": "Presale_v0",
  "sourceName": "contracts/Presale_v0.sol",
  "abi": [
    {
      "inputs": [],
      "name": "get_queue",
      "outputs": [
        {
          "internalType": "address[]",
          "name": "",
          "type": "address[]"
        },
        {
          "internalType": "uint256[]",
          "name": "",
          "type": "uint256[]"
        }
      ],
      "stateMutability": "view",
      "type": "function"
    },
    {
      "inputs": [],
      "name": "get_winners",
      "outputs": [],
      "stateMutability": "nonpayable",
      "type": "function"
    },
    {
      "inputs": [
        {
          "internalType": "address",
          "name": "c",
          "type": "address"
        },
        {
          "internalType": "address",
          "name": "a",
          "type": "address"
        }
      ],
      "name": "in_queue",
      "outputs": [
        {
          "internalType": "bool",
          "name": "",
          "type": "bool"
        }
      ],
      "stateMutability": "view",
      "type": "function"
    },
    {
      "inputs": [
        {
          "internalType": "address",
          "name": "",
          "type": "address"
        }
      ],
      "name": "presales",
      "outputs": [
        {
          "internalType": "uint256",
          "name": "max_queue",
          "type": "uint256"
        },
        {
          "internalType": "bool",
          "name": "presale",
          "type": "bool"
        },
        {
          "internalType": "uint256",
          "name": "max_supply",
          "type": "uint256"
        }
      ],
      "stateMutability": "view",
      "type": "function"
    },
    {
      "inputs": [
        {
          "internalType": "address",
          "name": "addr",
          "type": "address"
        },
        {
          "internalType": "uint256",
          "name": "tokenId",
          "type": "uint256"
        }
      ],
      "name": "register",
      "outputs": [],
      "stateMutability": "nonpayable",
      "type": "function"
    },
    {
      "inputs": [
        {
          "internalType": "uint256",
          "name": "max_supply",
          "type": "uint256"
        }
      ],
      "name": "set_presale",
      "outputs": [],
      "stateMutability": "nonpayable",
      "type": "function"
    }
  ],
  "bytecode": "0x608060405234801561001057600080fd5b506108d0806100206000396000f3fe608060405234801561001057600080fd5b50600436106100725760003560e01c80636d705ebb116100505780636d705ebb146100bf578063705fdf3d146100d2578063efcd708f1461010b57600080fd5b80631dc740c91461007757806325b6fe0c1461009f57806332c816c0146100a9575b600080fd5b61008a6100853660046106e2565b61015b565b60405190151581526020015b60405180910390f35b6100a76101d7565b005b6100b161055a565b604051610096929190610715565b6100a76100cd366004610799565b610631565b6100a76100e03660046107c3565b336000908152602081905260408120600381019290925560028201805460ff19169055600190910155565b6101406101193660046107dc565b600060208190529081526040902060018101546002820154600390920154909160ff169083565b60408051938452911515602084015290820152606001610096565b6000805b6001600160a01b0384166000908152602081905260409020600101548110156101cb576001600160a01b038481166000908152602081815260408083208584529091529020548185169116036101b95760019150506101d1565b806101c381610814565b91505061015f565b50600090505b92915050565b3360008181526020819052604090206002015460ff1615610258576040517f08c379a000000000000000000000000000000000000000000000000000000000815260206004820152601460248201527f616c726561647920686176652077696e6e657273000000000000000000000000604482015260640160405180910390fd5b6001600160a01b03811660009081526020818152604080832060028101805460ff19166001908117909155015490513360601b6bffffffffffffffffffffffff19169281019290925242603483015260548201839052906074016040516020818303038152906040528051906020012060001c6102d5919061082d565b90508160005b6001600160a01b038416600090815260208190526040902060010154811015610554576001600160a01b038416600090815260208190526040812060018101548290610327858861084f565b610331919061082d565b8152602080820192909252604090810160009081206001908101546001600160a01b038a1683529382905291812091820154929350918290610373868961084f565b61037d919061082d565b8152602081019190915260409081016000205490517f4f558e79000000000000000000000000000000000000000000000000000000008152600481018490526001600160a01b03918216925090851690634f558e7990602401602060405180830381865afa1580156103f3573d6000803e3d6000fd5b505050506040513d601f19601f820116820180604052508101906104179190610862565b15801561043e57506001600160a01b03861660009081526020819052604090206003015483105b156104c3576040517f40c10f190000000000000000000000000000000000000000000000000000000081526001600160a01b038281166004830152602482018490528516906340c10f1990604401600060405180830381600087803b1580156104a657600080fd5b505af11580156104ba573d6000803e3d6000fd5b5050505061053f565b6040517f410085df0000000000000000000000000000000000000000000000000000000081526001600160a01b0382811660048301526024820184905285169063410085df90604401600060405180830381600087803b15801561052657600080fd5b505af115801561053a573d6000803e3d6000fd5b505050505b5050808061054c90610814565b9150506102db565b50505050565b60608033818060005b6001600160a01b038416600090815260208190526040902060010154811015610626576001600160a01b0380851660009081526020818152604080832085845290915290205484519116908490839081106105c0576105c0610884565b6001600160a01b03928316602091820292909201810191909152908516600090815280825260408082208483529092522060010154825183908390811061060957610609610884565b60209081029190910101528061061e81610814565b915050610563565b509094909350915050565b6040805180820182526001600160a01b0384168152602080820184905233600081815291829052928120600181018054919291908261066f83610814565b909155508152602080820192909252604001600020825181547fffffffffffffffffffffffff0000000000000000000000000000000000000000166001600160a01b03909116178155910151600190910155505050565b80356001600160a01b03811681146106dd57600080fd5b919050565b600080604083850312156106f557600080fd5b6106fe836106c6565b915061070c602084016106c6565b90509250929050565b604080825283519082018190526000906020906060840190828701845b828110156107575781516001600160a01b031684529284019290840190600101610732565b5050508381038285015284518082528583019183019060005b8181101561078c57835183529284019291840191600101610770565b5090979650505050505050565b600080604083850312156107ac57600080fd5b6107b5836106c6565b946020939093013593505050565b6000602082840312156107d557600080fd5b5035919050565b6000602082840312156107ee57600080fd5b6107f7826106c6565b9392505050565b634e487b7160e01b600052601160045260246000fd5b600060018201610826576108266107fe565b5060010190565b60008261084a57634e487b7160e01b600052601260045260246000fd5b500690565b808201808211156101d1576101d16107fe565b60006020828403121561087457600080fd5b815180151581146107f757600080fd5b634e487b7160e01b600052603260045260246000fdfea26469706673582212204fe2f57e794ead0c45e95dbca48c63125ac1566dfdc32874f5a65350e66e26bf64736f6c63430008140033",
  "linkReferences": {},
  "deployedLinkReferences": {}
}